{
  "_format": "hh-sol-artifact-1",
  "contractName": "OctopusFun",
  "sourceName": "contracts/OctopusFun.sol",
  "abi": [
    {
      "inputs": [],
      "stateMutability": "nonpayable",
      "type": "constructor"
    },
    {
      "anonymous": false,
      "inputs": [
        {
          "indexed": true,
          "internalType": "address",
          "name": "owner",
          "type": "address"
        },
        {
          "indexed": true,
          "internalType": "address",
          "name": "approved",
          "type": "address"
        },
        {
          "indexed": true,
          "internalType": "uint256",
          "name": "tokenId",
          "type": "uint256"
        }
      ],
      "name": "Approval",
      "type": "event"
    },
    {
      "anonymous": false,
      "inputs": [
        {
          "indexed": true,
          "internalType": "address",
          "name": "owner",
          "type": "address"
        },
        {
          "indexed": true,
          "internalType": "address",
          "name": "operator",
          "type": "address"
        },
        {
          "indexed": false,
          "internalType": "bool",
          "name": "approved",
          "type": "bool"
        }
      ],
      "name": "ApprovalForAll",
      "type": "event"
    },
    {
      "anonymous": false,
      "inputs": [
        {
          "indexed": true,
          "internalType": "address",
          "name": "from",
          "type": "address"
        },
        {
          "indexed": true,
          "internalType": "address",
          "name": "to",
          "type": "address"
        },
        {
          "indexed": true,
          "internalType": "uint256",
          "name": "tokenId",
          "type": "uint256"
        }
      ],
      "name": "Transfer",
      "type": "event"
    },
    {
      "inputs": [],
      "name": "COST_TO_MINT",
      "outputs": [
        {
          "internalType": "uint256",
          "name": "",
          "type": "uint256"
        }
      ],
      "stateMutability": "view",
      "type": "function"
    },
    {
      "inputs": [],
      "name": "MAX_OCTOPUS_FUN_TOKENS",
      "outputs": [
        {
          "internalType": "uint256",
          "name": "",
          "type": "uint256"
        }
      ],
      "stateMutability": "view",
      "type": "function"
    },
    {
      "inputs": [],
      "name": "aliveNFTCount",
      "outputs": [
        {
          "internalType": "uint256",
          "name": "_value",
          "type": "uint256"
        }
      ],
      "stateMutability": "view",
      "type": "function"
    },
    {
      "inputs": [
        {
          "internalType": "address",
          "name": "",
          "type": "address"
        }
      ],
      "name": "aliveNFTs",
      "outputs": [
        {
          "internalType": "uint256",
          "name": "",
          "type": "uint256"
        }
      ],
      "stateMutability": "view",
      "type": "function"
    },
    {
      "inputs": [
        {
          "internalType": "address",
          "name": "to",
          "type": "address"
        },
        {
          "internalType": "uint256",
          "name": "tokenId",
          "type": "uint256"
        }
      ],
      "name": "approve",
      "outputs": [],
      "stateMutability": "nonpayable",
      "type": "function"
    },
    {
      "inputs": [
        {
          "internalType": "address",
          "name": "owner",
          "type": "address"
        }
      ],
      "name": "balanceOf",
      "outputs": [
        {
          "internalType": "uint256",
          "name": "",
          "type": "uint256"
        }
      ],
      "stateMutability": "view",
      "type": "function"
    },
    {
      "inputs": [
        {
          "internalType": "address",
          "name": "player",
          "type": "address"
        },
        {
          "internalType": "uint256",
          "name": "tokenId",
          "type": "uint256"
        }
      ],
      "name": "checkIfWinnerAndPayout",
      "outputs": [
        {
          "internalType": "string",
          "name": "",
          "type": "string"
        }
      ],
      "stateMutability": "payable",
      "type": "function"
    },
    {
      "inputs": [
        {
          "internalType": "address",
          "name": "",
          "type": "address"
        }
      ],
      "name": "deadNFTs",
      "outputs": [
        {
          "internalType": "uint256",
          "name": "",
          "type": "uint256"
        }
      ],
      "stateMutability": "view",
      "type": "function"
    },
    {
      "inputs": [
        {
          "internalType": "uint256",
          "name": "tokenId",
          "type": "uint256"
        }
      ],
      "name": "getApproved",
      "outputs": [
        {
          "internalType": "address",
          "name": "",
          "type": "address"
        }
      ],
      "stateMutability": "view",
      "type": "function"
    },
    {
      "inputs": [
        {
          "internalType": "address",
          "name": "owner",
          "type": "address"
        },
        {
          "internalType": "address",
          "name": "operator",
          "type": "address"
        }
      ],
      "name": "isApprovedForAll",
      "outputs": [
        {
          "internalType": "bool",
          "name": "",
          "type": "bool"
        }
      ],
      "stateMutability": "view",
      "type": "function"
    },
    {
      "inputs": [],
      "name": "lastRoundAliveNFTCount",
      "outputs": [
        {
          "internalType": "uint256",
          "name": "_value",
          "type": "uint256"
        }
      ],
      "stateMutability": "view",
      "type": "function"
    },
    {
      "inputs": [
        {
          "internalType": "address",
          "name": "recipient",
          "type": "address"
        },
        {
          "internalType": "string",
          "name": "tokenURI",
          "type": "string"
        }
      ],
      "name": "mintNFT",
      "outputs": [
        {
          "internalType": "uint256",
          "name": "",
          "type": "uint256"
        }
      ],
      "stateMutability": "payable",
      "type": "function"
    },
    {
      "inputs": [],
      "name": "name",
      "outputs": [
        {
          "internalType": "string",
          "name": "",
          "type": "string"
        }
      ],
      "stateMutability": "view",
      "type": "function"
    },
    {
      "inputs": [
        {
          "internalType": "uint256",
          "name": "tokenId",
          "type": "uint256"
        }
      ],
      "name": "ownerOf",
      "outputs": [
        {
          "internalType": "address",
          "name": "",
          "type": "address"
        }
      ],
      "stateMutability": "view",
      "type": "function"
    },
    {
      "inputs": [
        {
          "internalType": "address",
          "name": "player",
          "type": "address"
        },
        {
          "internalType": "uint256",
          "name": "tokenId",
          "type": "uint256"
        }
      ],
      "name": "playRound1",
      "outputs": [
        {
          "internalType": "string",
          "name": "",
          "type": "string"
        }
      ],
      "stateMutability": "nonpayable",
      "type": "function"
    },
    {
      "inputs": [
        {
          "internalType": "address",
          "name": "player",
          "type": "address"
        },
        {
          "internalType": "uint256",
          "name": "tokenId",
          "type": "uint256"
        }
      ],
      "name": "playRound2",
      "outputs": [
        {
          "internalType": "string",
          "name": "",
          "type": "string"
        }
      ],
      "stateMutability": "nonpayable",
      "type": "function"
    },
    {
      "inputs": [
        {
          "internalType": "address",
          "name": "player",
          "type": "address"
        },
        {
          "internalType": "uint256",
          "name": "tokenId",
          "type": "uint256"
        }
      ],
      "name": "playRound3",
      "outputs": [
        {
          "internalType": "string",
          "name": "",
          "type": "string"
        }
      ],
      "stateMutability": "nonpayable",
      "type": "function"
    },
    {
      "inputs": [],
      "name": "rand",
      "outputs": [
        {
          "internalType": "uint256",
          "name": "",
          "type": "uint256"
        }
      ],
      "stateMutability": "view",
      "type": "function"
    },
    {
      "inputs": [
        {
          "internalType": "address",
          "name": "from",
          "type": "address"
        },
        {
          "internalType": "address",
          "name": "to",
          "type": "address"
        },
        {
          "internalType": "uint256",
          "name": "tokenId",
          "type": "uint256"
        }
      ],
      "name": "safeTransferFrom",
      "outputs": [],
      "stateMutability": "nonpayable",
      "type": "function"
    },
    {
      "inputs": [
        {
          "internalType": "address",
          "name": "from",
          "type": "address"
        },
        {
          "internalType": "address",
          "name": "to",
          "type": "address"
        },
        {
          "internalType": "uint256",
          "name": "tokenId",
          "type": "uint256"
        },
        {
          "internalType": "bytes",
          "name": "data",
          "type": "bytes"
        }
      ],
      "name": "safeTransferFrom",
      "outputs": [],
      "stateMutability": "nonpayable",
      "type": "function"
    },
    {
      "inputs": [
        {
          "internalType": "address",
          "name": "operator",
          "type": "address"
        },
        {
          "internalType": "bool",
          "name": "approved",
          "type": "bool"
        }
      ],
      "name": "setApprovalForAll",
      "outputs": [],
      "stateMutability": "nonpayable",
      "type": "function"
    },
    {
      "inputs": [
        {
          "internalType": "bytes4",
          "name": "interfaceId",
          "type": "bytes4"
        }
      ],
      "name": "supportsInterface",
      "outputs": [
        {
          "internalType": "bool",
          "name": "",
          "type": "bool"
        }
      ],
      "stateMutability": "view",
      "type": "function"
    },
    {
      "inputs": [],
      "name": "symbol",
      "outputs": [
        {
          "internalType": "string",
          "name": "",
          "type": "string"
        }
      ],
      "stateMutability": "view",
      "type": "function"
    },
    {
      "inputs": [
        {
          "internalType": "uint256",
          "name": "tokenId",
          "type": "uint256"
        }
      ],
      "name": "tokenURI",
      "outputs": [
        {
          "internalType": "string",
          "name": "",
          "type": "string"
        }
      ],
      "stateMutability": "view",
      "type": "function"
    },
    {
      "inputs": [
        {
          "internalType": "address",
          "name": "from",
          "type": "address"
        },
        {
          "internalType": "address",
          "name": "to",
          "type": "address"
        },
        {
          "internalType": "uint256",
          "name": "tokenId",
          "type": "uint256"
        }
      ],
      "name": "transferFrom",
      "outputs": [],
      "stateMutability": "nonpayable",
      "type": "function"
    }
  ],
  "bytecode": "0x60806040523480156200001157600080fd5b506040518060400160405280600a81526020017f4f63746f70757346756e000000000000000000000000000000000000000000008152506040518060400160405280600381526020017f4f43460000000000000000000000000000000000000000000000000000000000815250816000908051906020019062000096929190620000c0565b508060019080519060200190620000af929190620000c0565b5050506001600781905550620001d5565b828054620000ce9062000170565b90600052602060002090601f016020900481019282620000f257600085556200013e565b82601f106200010d57805160ff19168380011785556200013e565b828001600101855582156200013e579182015b828111156200013d57825182559160200191906001019062000120565b5b5090506200014d919062000151565b5090565b5b808211156200016c57600081600090555060010162000152565b5090565b600060028204905060018216806200018957607f821691505b60208210811415620001a0576200019f620001a6565b5b50919050565b7f4e487b7100000000000000000000000000000000000000000000000000000000600052602260045260246000fd5b6147b280620001e56000396000f3fe6080604052600436106101665760003560e01c80636352211e116100d1578063bdac42341161008a578063dceb826911610064578063dceb82691461058f578063e985e9c5146105cc578063eacabe1414610609578063fbeae8fc1461063957610166565b8063bdac4234146104ea578063c87b56dd14610515578063d43fa5401461055257610166565b80636352211e146103b657806370a08231146103f357806395d89b4114610430578063a056d0881461045b578063a22cb46514610498578063b88d4fde146104c157610166565b806333d092a61161012357806333d092a61461028d57806338ee7730146102b85780633b3dca76146102e857806341a0eded1461031357806342842e0e146103505780634afad5c21461037957610166565b806301ffc9a71461016b57806306fdde03146101a8578063081812fc146101d3578063095ea7b31461021057806323b872dd1461023957806325383d1714610262575b600080fd5b34801561017757600080fd5b50610192600480360381019061018d91906132b5565b610664565b60405161019f9190613e99565b60405180910390f35b3480156101b457600080fd5b506101bd610746565b6040516101ca9190613eb4565b60405180910390f35b3480156101df57600080fd5b506101fa60048036038101906101f59190613307565b6107d8565b6040516102079190613e32565b60405180910390f35b34801561021c57600080fd5b5061023760048036038101906102329190613279565b61085d565b005b34801561024557600080fd5b50610260600480360381019061025b919061311f565b610975565b005b34801561026e57600080fd5b50610277610a96565b6040516102849190614216565b60405180910390f35b34801561029957600080fd5b506102a2610aa2565b6040516102af9190614216565b60405180910390f35b6102d260048036038101906102cd9190613279565b610aae565b6040516102df9190613eb4565b60405180910390f35b3480156102f457600080fd5b506102fd610e1e565b60405161030a9190614216565b60405180910390f35b34801561031f57600080fd5b5061033a600480360381019061033591906130ba565b610f16565b6040516103479190614216565b60405180910390f35b34801561035c57600080fd5b506103776004803603810190610372919061311f565b610f2e565b005b34801561038557600080fd5b506103a0600480360381019061039b91906130ba565b61104f565b6040516103ad9190614216565b60405180910390f35b3480156103c257600080fd5b506103dd60048036038101906103d89190613307565b611067565b6040516103ea9190613e32565b60405180910390f35b3480156103ff57600080fd5b5061041a600480360381019061041591906130ba565b611119565b6040516104279190614216565b60405180910390f35b34801561043c57600080fd5b506104456111d1565b6040516104529190613eb4565b60405180910390f35b34801561046757600080fd5b50610482600480360381019061047d9190613279565b611263565b60405161048f9190613eb4565b60405180910390f35b3480156104a457600080fd5b506104bf60048036038101906104ba91906131e9565b61154c565b005b3480156104cd57600080fd5b506104e860048036038101906104e3919061316e565b6116cd565b005b3480156104f657600080fd5b506104ff6117f0565b60405161050c9190614216565b60405180910390f35b34801561052157600080fd5b5061053c60048036038101906105379190613307565b6117f6565b6040516105499190613eb4565b60405180910390f35b34801561055e57600080fd5b5061057960048036038101906105749190613279565b611948565b6040516105869190613eb4565b60405180910390f35b34801561059b57600080fd5b506105b660048036038101906105b19190613279565b611c31565b6040516105c39190613eb4565b60405180910390f35b3480156105d857600080fd5b506105f360048036038101906105ee91906130e3565b611f24565b6040516106009190613e99565b60405180910390f35b610623600480360381019061061e9190613225565b611fb8565b6040516106309190614216565b60405180910390f35b34801561064557600080fd5b5061064e6120d7565b60405161065b9190614216565b60405180910390f35b60007f80ac58cd000000000000000000000000000000000000000000000000000000007bffffffffffffffffffffffffffffffffffffffffffffffffffffffff1916827bffffffffffffffffffffffffffffffffffffffffffffffffffffffff1916148061072f57507f5b5e139f000000000000000000000000000000000000000000000000000000007bffffffffffffffffffffffffffffffffffffffffffffffffffffffff1916827bffffffffffffffffffffffffffffffffffffffffffffffffffffffff1916145b8061073f575061073e826120e3565b5b9050919050565b606060008054610755906144e2565b80601f0160208091040260200160405190810160405280929190818152602001828054610781906144e2565b80156107ce5780601f106107a3576101008083540402835291602001916107ce565b820191906000526020600020905b8154815290600101906020018083116107b157829003601f168201915b5050505050905090565b60006107e38261214d565b610822576040517f08c379a000000000000000000000000000000000000000000000000000000000815260040161081990614116565b60405180910390fd5b6004600083815260200190815260200160002060009054906101000a900473ffffffffffffffffffffffffffffffffffffffff169050919050565b600061086882611067565b90508073ffffffffffffffffffffffffffffffffffffffff168373ffffffffffffffffffffffffffffffffffffffff1614156108d9576040517f08c379a00000000000000000000000000000000000000000000000000000000081526004016108d090614176565b60405180910390fd5b8073ffffffffffffffffffffffffffffffffffffffff166108f86121b9565b73ffffffffffffffffffffffffffffffffffffffff1614806109275750610926816109216121b9565b611f24565b5b610966576040517f08c379a000000000000000000000000000000000000000000000000000000000815260040161095d90614016565b60405180910390fd5b61097083836121c1565b505050565b61098083838361227a565b6000600b60008573ffffffffffffffffffffffffffffffffffffffff1673ffffffffffffffffffffffffffffffffffffffff168152602001908152602001600020541115610a9157600b60008473ffffffffffffffffffffffffffffffffffffffff1673ffffffffffffffffffffffffffffffffffffffff16815260200190815260200160002054600b60008473ffffffffffffffffffffffffffffffffffffffff1673ffffffffffffffffffffffffffffffffffffffff168152602001908152602001600020819055506000600b60008573ffffffffffffffffffffffffffffffffffffffff1673ffffffffffffffffffffffffffffffffffffffff168152602001908152602001600020819055505b505050565b60098060000154905081565b67016345785d8a000081565b606060026007541415610af6576040517f08c379a0000000000000000000000000000000000000000000000000000000008152600401610aed906141f6565b60405180910390fd5b60026007819055506000610b0983611067565b90508073ffffffffffffffffffffffffffffffffffffffff168473ffffffffffffffffffffffffffffffffffffffff16148015610b7157503373ffffffffffffffffffffffffffffffffffffffff168473ffffffffffffffffffffffffffffffffffffffff16145b8015610ba857503373ffffffffffffffffffffffffffffffffffffffff168173ffffffffffffffffffffffffffffffffffffffff16145b610be7576040517f08c379a0000000000000000000000000000000000000000000000000000000008152600401610bde90614036565b60405180910390fd5b6001610bf360096122da565b1415610cd4576000600b60008673ffffffffffffffffffffffffffffffffffffffff1673ffffffffffffffffffffffffffffffffffffffff168152602001908152602001600020541415610c7c576040517f08c379a0000000000000000000000000000000000000000000000000000000008152600401610c7390613f56565b60405180910390fd5b600084905060004790508173ffffffffffffffffffffffffffffffffffffffff166108fc829081150290604051600060405180830381858888f19350505050158015610ccc573d6000803e3d6000fd5b505050610dd7565b6000600b60008673ffffffffffffffffffffffffffffffffffffffff1673ffffffffffffffffffffffffffffffffffffffff16815260200190815260200160002054905060008114158015610d295750600481145b610d68576040517f08c379a0000000000000000000000000000000000000000000000000000000008152600401610d5f90613ef6565b60405180910390fd5b60004790506000610d79600a6122da565b905060008183610d89919061435b565b90508773ffffffffffffffffffffffffffffffffffffffff166108fc829081150290604051600060405180830381858888f19350505050158015610dd1573d6000803e3d6000fd5b50505050505b6040518060400160405280602081526020017f596f7527766520776f6e212048657265277320796f75722077696e6e696e6773815250915050600160078190555092915050565b600080434233604051602001610e349190613dbd565b6040516020818303038152906040528051906020012060001c610e57919061435b565b454241604051602001610e6a9190613dd8565b6040516020818303038152906040528051906020012060001c610e8d919061435b565b4442610e999190614305565b610ea39190614305565b610ead9190614305565b610eb79190614305565b610ec19190614305565b604051602001610ed19190613e17565b6040516020818303038152906040528051906020012060001c90506103e88082610efb919061435b565b610f05919061438c565b81610f1091906143e6565b91505090565b600b6020528060005260406000206000915090505481565b610f398383836122e8565b6000600b60008573ffffffffffffffffffffffffffffffffffffffff1673ffffffffffffffffffffffffffffffffffffffff16815260200190815260200160002054111561104a57600b60008473ffffffffffffffffffffffffffffffffffffffff1673ffffffffffffffffffffffffffffffffffffffff16815260200190815260200160002054600b60008473ffffffffffffffffffffffffffffffffffffffff1673ffffffffffffffffffffffffffffffffffffffff168152602001908152602001600020819055506000600b60008573ffffffffffffffffffffffffffffffffffffffff1673ffffffffffffffffffffffffffffffffffffffff168152602001908152602001600020819055505b505050565b600c6020528060005260406000206000915090505481565b6000806002600084815260200190815260200160002060009054906101000a900473ffffffffffffffffffffffffffffffffffffffff169050600073ffffffffffffffffffffffffffffffffffffffff168173ffffffffffffffffffffffffffffffffffffffff161415611110576040517f08c379a000000000000000000000000000000000000000000000000000000000815260040161110790614076565b60405180910390fd5b80915050919050565b60008073ffffffffffffffffffffffffffffffffffffffff168273ffffffffffffffffffffffffffffffffffffffff16141561118a576040517f08c379a000000000000000000000000000000000000000000000000000000000815260040161118190614056565b60405180910390fd5b600360008373ffffffffffffffffffffffffffffffffffffffff1673ffffffffffffffffffffffffffffffffffffffff168152602001908152602001600020549050919050565b6060600180546111e0906144e2565b80601f016020809104026020016040519081016040528092919081815260200182805461120c906144e2565b80156112595780601f1061122e57610100808354040283529160200191611259565b820191906000526020600020905b81548152906001019060200180831161123c57829003601f168201915b5050505050905090565b6060600260075414156112ab576040517f08c379a00000000000000000000000000000000000000000000000000000000081526004016112a2906141f6565b60405180910390fd5b600260078190555060006112be83611067565b90508073ffffffffffffffffffffffffffffffffffffffff168473ffffffffffffffffffffffffffffffffffffffff1614801561132657503373ffffffffffffffffffffffffffffffffffffffff168473ffffffffffffffffffffffffffffffffffffffff16145b801561135d57503373ffffffffffffffffffffffffffffffffffffffff168173ffffffffffffffffffffffffffffffffffffffff16145b61139c576040517f08c379a000000000000000000000000000000000000000000000000000000000815260040161139390614036565b60405180910390fd5b6000600b60008673ffffffffffffffffffffffffffffffffffffffff1673ffffffffffffffffffffffffffffffffffffffff168152602001908152602001600020549050600081141580156113f15750600281145b611430576040517f08c379a000000000000000000000000000000000000000000000000000000000815260040161142790614196565b60405180910390fd5b600061143a610e1e565b90506101f3811015611473576114508683612308565b60405180606001604052806028815260200161472d60289139935050505061153e565b6001600b60008873ffffffffffffffffffffffffffffffffffffffff1673ffffffffffffffffffffffffffffffffffffffff168152602001908152602001600020546114bf9190614305565b600b60008873ffffffffffffffffffffffffffffffffffffffff1673ffffffffffffffffffffffffffffffffffffffff168152602001908152602001600020819055506040518060400160405280601f81526020017f436f6e67726174732c20796f7520737572766976656420726f756e6420322e0081525093505050505b600160078190555092915050565b6115546121b9565b73ffffffffffffffffffffffffffffffffffffffff168273ffffffffffffffffffffffffffffffffffffffff1614156115c2576040517f08c379a00000000000000000000000000000000000000000000000000000000081526004016115b990613fb6565b60405180910390fd5b80600560006115cf6121b9565b73ffffffffffffffffffffffffffffffffffffffff1673ffffffffffffffffffffffffffffffffffffffff16815260200190815260200160002060008473ffffffffffffffffffffffffffffffffffffffff1673ffffffffffffffffffffffffffffffffffffffff16815260200190815260200160002060006101000a81548160ff0219169083151502179055508173ffffffffffffffffffffffffffffffffffffffff1661167c6121b9565b73ffffffffffffffffffffffffffffffffffffffff167f17307eab39ab6107e8899845ad3d59bd9653f200f220920489ca2b5937696c31836040516116c19190613e99565b60405180910390a35050565b6116d98484848461239f565b6000600b60008673ffffffffffffffffffffffffffffffffffffffff1673ffffffffffffffffffffffffffffffffffffffff1681526020019081526020016000205411156117ea57600b60008573ffffffffffffffffffffffffffffffffffffffff1673ffffffffffffffffffffffffffffffffffffffff16815260200190815260200160002054600b60008573ffffffffffffffffffffffffffffffffffffffff1673ffffffffffffffffffffffffffffffffffffffff168152602001908152602001600020819055506000600b60008673ffffffffffffffffffffffffffffffffffffffff1673ffffffffffffffffffffffffffffffffffffffff168152602001908152602001600020819055505b50505050565b6101c881565b60606118018261214d565b611840576040517f08c379a0000000000000000000000000000000000000000000000000000000008152600401611837906140f6565b60405180910390fd5b6000600660008481526020019081526020016000208054611860906144e2565b80601f016020809104026020016040519081016040528092919081815260200182805461188c906144e2565b80156118d95780601f106118ae576101008083540402835291602001916118d9565b820191906000526020600020905b8154815290600101906020018083116118bc57829003601f168201915b5050505050905060006118ea612401565b9050600081511415611900578192505050611943565b60008251111561193557808260405160200161191d929190613df3565b60405160208183030381529060405292505050611943565b61193e84612418565b925050505b919050565b606060026007541415611990576040517f08c379a0000000000000000000000000000000000000000000000000000000008152600401611987906141f6565b60405180910390fd5b600260078190555060006119a383611067565b90508073ffffffffffffffffffffffffffffffffffffffff168473ffffffffffffffffffffffffffffffffffffffff16148015611a0b57503373ffffffffffffffffffffffffffffffffffffffff168473ffffffffffffffffffffffffffffffffffffffff16145b8015611a4257503373ffffffffffffffffffffffffffffffffffffffff168173ffffffffffffffffffffffffffffffffffffffff16145b611a81576040517f08c379a0000000000000000000000000000000000000000000000000000000008152600401611a7890614036565b60405180910390fd5b6000600b60008673ffffffffffffffffffffffffffffffffffffffff1673ffffffffffffffffffffffffffffffffffffffff16815260200190815260200160002054905060008114158015611ad65750600181145b611b15576040517f08c379a0000000000000000000000000000000000000000000000000000000008152600401611b0c906140d6565b60405180910390fd5b6000611b1f610e1e565b90506101f3811015611b5857611b358683612308565b604051806060016040528060288152602001614705602891399350505050611c23565b6001600b60008873ffffffffffffffffffffffffffffffffffffffff1673ffffffffffffffffffffffffffffffffffffffff16815260200190815260200160002054611ba49190614305565b600b60008873ffffffffffffffffffffffffffffffffffffffff1673ffffffffffffffffffffffffffffffffffffffff168152602001908152602001600020819055506040518060400160405280601f81526020017f436f6e67726174732c20796f7520737572766976656420726f756e6420312e0081525093505050505b600160078190555092915050565b606060026007541415611c79576040517f08c379a0000000000000000000000000000000000000000000000000000000008152600401611c70906141f6565b60405180910390fd5b60026007819055506000611c8c83611067565b90508073ffffffffffffffffffffffffffffffffffffffff168473ffffffffffffffffffffffffffffffffffffffff16148015611cf457503373ffffffffffffffffffffffffffffffffffffffff168473ffffffffffffffffffffffffffffffffffffffff16145b8015611d2b57503373ffffffffffffffffffffffffffffffffffffffff168173ffffffffffffffffffffffffffffffffffffffff16145b611d6a576040517f08c379a0000000000000000000000000000000000000000000000000000000008152600401611d6190614036565b60405180910390fd5b6000600b60008673ffffffffffffffffffffffffffffffffffffffff1673ffffffffffffffffffffffffffffffffffffffff16815260200190815260200160002054905060008114158015611dbf5750600381145b611dfe576040517f08c379a0000000000000000000000000000000000000000000000000000000008152600401611df590613ed6565b60405180910390fd5b6000611e08610e1e565b90506101f3811015611e4157611e1e8683612308565b604051806060016040528060288152602001614755602891399350505050611f16565b6001600b60008873ffffffffffffffffffffffffffffffffffffffff1673ffffffffffffffffffffffffffffffffffffffff16815260200190815260200160002054611e8d9190614305565b600b60008873ffffffffffffffffffffffffffffffffffffffff1673ffffffffffffffffffffffffffffffffffffffff16815260200190815260200160002081905550611eda600a6124bf565b6040518060400160405280601f81526020017f436f6e67726174732c20796f7520737572766976656420726f756e6420332e0081525093505050505b600160078190555092915050565b6000600560008473ffffffffffffffffffffffffffffffffffffffff1673ffffffffffffffffffffffffffffffffffffffff16815260200190815260200160002060008373ffffffffffffffffffffffffffffffffffffffff1673ffffffffffffffffffffffffffffffffffffffff16815260200190815260200160002060009054906101000a900460ff16905092915050565b60003467016345785d8a00001115612005576040517f08c379a0000000000000000000000000000000000000000000000000000000008152600401611ffc90613fd6565b60405180910390fd5b6101c861201260086122da565b10612052576040517f08c379a0000000000000000000000000000000000000000000000000000000008152600401612049906141d6565b60405180910390fd5b61205c60086124bf565b61206660096124bf565b600061207260086122da565b905061207e84826124d5565b61208881846124f3565b6001600b60008673ffffffffffffffffffffffffffffffffffffffff1673ffffffffffffffffffffffffffffffffffffffff168152602001908152602001600020819055508091505092915050565b600a8060000154905081565b60007f01ffc9a7000000000000000000000000000000000000000000000000000000007bffffffffffffffffffffffffffffffffffffffffffffffffffffffff1916827bffffffffffffffffffffffffffffffffffffffffffffffffffffffff1916149050919050565b60008073ffffffffffffffffffffffffffffffffffffffff166002600084815260200190815260200160002060009054906101000a900473ffffffffffffffffffffffffffffffffffffffff1673ffffffffffffffffffffffffffffffffffffffff1614159050919050565b600033905090565b816004600083815260200190815260200160002060006101000a81548173ffffffffffffffffffffffffffffffffffffffff021916908373ffffffffffffffffffffffffffffffffffffffff160217905550808273ffffffffffffffffffffffffffffffffffffffff1661223483611067565b73ffffffffffffffffffffffffffffffffffffffff167f8c5be1e5ebec7d5bd14f71427d1e84f3dd0314c0f7b2291e5b200ac8c7c3b92560405160405180910390a45050565b61228b6122856121b9565b82612567565b6122ca576040517f08c379a00000000000000000000000000000000000000000000000000000000081526004016122c1906141b6565b60405180910390fd5b6122d5838383612645565b505050565b600081600001549050919050565b612303838383604051806020016040528060008152506116cd565b505050565b6000600b60008473ffffffffffffffffffffffffffffffffffffffff1673ffffffffffffffffffffffffffffffffffffffff1681526020019081526020016000208190555080600c60008473ffffffffffffffffffffffffffffffffffffffff1673ffffffffffffffffffffffffffffffffffffffff1681526020019081526020016000208190555061239b60096128a1565b5050565b6123b06123aa6121b9565b83612567565b6123ef576040517f08c379a00000000000000000000000000000000000000000000000000000000081526004016123e6906141b6565b60405180910390fd5b6123fb848484846128fd565b50505050565b606060405180602001604052806000815250905090565b60606124238261214d565b612462576040517f08c379a000000000000000000000000000000000000000000000000000000000815260040161245990614156565b60405180910390fd5b600061246c612401565b9050600081511161248c57604051806020016040528060008152506124b7565b8061249684612959565b6040516020016124a7929190613df3565b6040516020818303038152906040525b915050919050565b6001816000016000828254019250508190555050565b6124ef828260405180602001604052806000815250612b06565b5050565b6124fc8261214d565b61253b576040517f08c379a000000000000000000000000000000000000000000000000000000000815260040161253290614096565b60405180910390fd5b80600660008481526020019081526020016000209080519060200190612562929190612ede565b505050565b60006125728261214d565b6125b1576040517f08c379a00000000000000000000000000000000000000000000000000000000081526004016125a890613ff6565b60405180910390fd5b60006125bc83611067565b90508073ffffffffffffffffffffffffffffffffffffffff168473ffffffffffffffffffffffffffffffffffffffff16148061262b57508373ffffffffffffffffffffffffffffffffffffffff16612613846107d8565b73ffffffffffffffffffffffffffffffffffffffff16145b8061263c575061263b8185611f24565b5b91505092915050565b8273ffffffffffffffffffffffffffffffffffffffff1661266582611067565b73ffffffffffffffffffffffffffffffffffffffff16146126bb576040517f08c379a00000000000000000000000000000000000000000000000000000000081526004016126b290614136565b60405180910390fd5b600073ffffffffffffffffffffffffffffffffffffffff168273ffffffffffffffffffffffffffffffffffffffff16141561272b576040517f08c379a000000000000000000000000000000000000000000000000000000000815260040161272290613f96565b60405180910390fd5b612736838383612b61565b6127416000826121c1565b6001600360008573ffffffffffffffffffffffffffffffffffffffff1673ffffffffffffffffffffffffffffffffffffffff168152602001908152602001600020600082825461279191906143e6565b925050819055506001600360008473ffffffffffffffffffffffffffffffffffffffff1673ffffffffffffffffffffffffffffffffffffffff16815260200190815260200160002060008282546127e89190614305565b92505081905550816002600083815260200190815260200160002060006101000a81548173ffffffffffffffffffffffffffffffffffffffff021916908373ffffffffffffffffffffffffffffffffffffffff160217905550808273ffffffffffffffffffffffffffffffffffffffff168473ffffffffffffffffffffffffffffffffffffffff167fddf252ad1be2c89b69c2b068fc378daa952ba7f163c4a11628f55a4df523b3ef60405160405180910390a4505050565b600081600001549050600081116128ed576040517f08c379a00000000000000000000000000000000000000000000000000000000081526004016128e490613f16565b60405180910390fd5b6001810382600001819055505050565b612908848484612645565b61291484848484612b66565b612953576040517f08c379a000000000000000000000000000000000000000000000000000000000815260040161294a90613f36565b60405180910390fd5b50505050565b606060008214156129a1576040518060400160405280600181526020017f30000000000000000000000000000000000000000000000000000000000000008152509050612b01565b600082905060005b600082146129d35780806129bc90614514565b915050600a826129cc919061435b565b91506129a9565b60008167ffffffffffffffff811115612a15577f4e487b7100000000000000000000000000000000000000000000000000000000600052604160045260246000fd5b6040519080825280601f01601f191660200182016040528015612a475781602001600182028036833780820191505090505b5090505b60008514612afa57600182612a6091906143e6565b9150600a85612a6f919061459d565b6030612a7b9190614305565b60f81b818381518110612ab7577f4e487b7100000000000000000000000000000000000000000000000000000000600052603260045260246000fd5b60200101907effffffffffffffffffffffffffffffffffffffffffffffffffffffffffffff1916908160001a905350600a85612af3919061435b565b9450612a4b565b8093505050505b919050565b612b108383612cfd565b612b1d6000848484612b66565b612b5c576040517f08c379a0000000000000000000000000000000000000000000000000000000008152600401612b5390613f36565b60405180910390fd5b505050565b505050565b6000612b878473ffffffffffffffffffffffffffffffffffffffff16612ecb565b15612cf0578373ffffffffffffffffffffffffffffffffffffffff1663150b7a02612bb06121b9565b8786866040518563ffffffff1660e01b8152600401612bd29493929190613e4d565b602060405180830381600087803b158015612bec57600080fd5b505af1925050508015612c1d57506040513d601f19601f82011682018060405250810190612c1a91906132de565b60015b612ca0573d8060008114612c4d576040519150601f19603f3d011682016040523d82523d6000602084013e612c52565b606091505b50600081511415612c98576040517f08c379a0000000000000000000000000000000000000000000000000000000008152600401612c8f90613f36565b60405180910390fd5b805181602001fd5b63150b7a0260e01b7bffffffffffffffffffffffffffffffffffffffffffffffffffffffff1916817bffffffffffffffffffffffffffffffffffffffffffffffffffffffff191614915050612cf5565b600190505b949350505050565b600073ffffffffffffffffffffffffffffffffffffffff168273ffffffffffffffffffffffffffffffffffffffff161415612d6d576040517f08c379a0000000000000000000000000000000000000000000000000000000008152600401612d64906140b6565b60405180910390fd5b612d768161214d565b15612db6576040517f08c379a0000000000000000000000000000000000000000000000000000000008152600401612dad90613f76565b60405180910390fd5b612dc260008383612b61565b6001600360008473ffffffffffffffffffffffffffffffffffffffff1673ffffffffffffffffffffffffffffffffffffffff1681526020019081526020016000206000828254612e129190614305565b92505081905550816002600083815260200190815260200160002060006101000a81548173ffffffffffffffffffffffffffffffffffffffff021916908373ffffffffffffffffffffffffffffffffffffffff160217905550808273ffffffffffffffffffffffffffffffffffffffff16600073ffffffffffffffffffffffffffffffffffffffff167fddf252ad1be2c89b69c2b068fc378daa952ba7f163c4a11628f55a4df523b3ef60405160405180910390a45050565b600080823b905060008111915050919050565b828054612eea906144e2565b90600052602060002090601f016020900481019282612f0c5760008555612f53565b82601f10612f2557805160ff1916838001178555612f53565b82800160010185558215612f53579182015b82811115612f52578251825591602001919060010190612f37565b5b509050612f609190612f64565b5090565b5b80821115612f7d576000816000905550600101612f65565b5090565b6000612f94612f8f84614262565b614231565b905082815260208101848484011115612fac57600080fd5b612fb78482856144a0565b509392505050565b6000612fd2612fcd84614292565b614231565b905082815260208101848484011115612fea57600080fd5b612ff58482856144a0565b509392505050565b60008135905061300c816146a8565b92915050565b600081359050613021816146bf565b92915050565b600081359050613036816146d6565b92915050565b60008151905061304b816146d6565b92915050565b600082601f83011261306257600080fd5b8135613072848260208601612f81565b91505092915050565b600082601f83011261308c57600080fd5b813561309c848260208601612fbf565b91505092915050565b6000813590506130b4816146ed565b92915050565b6000602082840312156130cc57600080fd5b60006130da84828501612ffd565b91505092915050565b600080604083850312156130f657600080fd5b600061310485828601612ffd565b925050602061311585828601612ffd565b9150509250929050565b60008060006060848603121561313457600080fd5b600061314286828701612ffd565b935050602061315386828701612ffd565b9250506040613164868287016130a5565b9150509250925092565b6000806000806080858703121561318457600080fd5b600061319287828801612ffd565b94505060206131a387828801612ffd565b93505060406131b4878288016130a5565b925050606085013567ffffffffffffffff8111156131d157600080fd5b6131dd87828801613051565b91505092959194509250565b600080604083850312156131fc57600080fd5b600061320a85828601612ffd565b925050602061321b85828601613012565b9150509250929050565b6000806040838503121561323857600080fd5b600061324685828601612ffd565b925050602083013567ffffffffffffffff81111561326357600080fd5b61326f8582860161307b565b9150509250929050565b6000806040838503121561328c57600080fd5b600061329a85828601612ffd565b92505060206132ab858286016130a5565b9150509250929050565b6000602082840312156132c757600080fd5b60006132d584828501613027565b91505092915050565b6000602082840312156132f057600080fd5b60006132fe8482850161303c565b91505092915050565b60006020828403121561331957600080fd5b6000613327848285016130a5565b91505092915050565b61334161333c8261442c565b61456f565b82525050565b6133508161441a565b82525050565b6133676133628261441a565b61455d565b82525050565b6133768161443e565b82525050565b6000613387826142c2565b61339181856142d8565b93506133a18185602086016144af565b6133aa8161468a565b840191505092915050565b60006133c0826142cd565b6133ca81856142e9565b93506133da8185602086016144af565b6133e38161468a565b840191505092915050565b60006133f9826142cd565b61340381856142fa565b93506134138185602086016144af565b80840191505092915050565b600061342c6039836142e9565b91507f4d757374206265206120706c61796572207769746820616e204e46542074686160008301527f74277320616c69766520616e6420696e20726f756e64203321000000000000006020830152604082019050919050565b60006134926042836142e9565b91507f4d757374206265206120706c61796572207769746820616e204e46542074686160008301527f74277320616c69766520616e642070617373656420616c6c203320726f756e6460208301527f73210000000000000000000000000000000000000000000000000000000000006040830152606082019050919050565b600061351e601b836142e9565b91507f436f756e7465723a2064656372656d656e74206f766572666c6f7700000000006000830152602082019050919050565b600061355e6032836142e9565b91507f4552433732313a207472616e7366657220746f206e6f6e20455243373231526560008301527f63656976657220696d706c656d656e74657200000000000000000000000000006020830152604082019050919050565b60006135c46020836142e9565b91507f596f7520617265206e6f74207468652077696e6e657220746869732074696d656000830152602082019050919050565b6000613604601c836142e9565b91507f4552433732313a20746f6b656e20616c7265616479206d696e746564000000006000830152602082019050919050565b60006136446024836142e9565b91507f4552433732313a207472616e7366657220746f20746865207a65726f2061646460008301527f72657373000000000000000000000000000000000000000000000000000000006020830152604082019050919050565b60006136aa6019836142e9565b91507f4552433732313a20617070726f766520746f2063616c6c6572000000000000006000830152602082019050919050565b60006136ea601f836142e9565b91507f45746865722076616c75652073656e74206973206e6f7420636f7272656374006000830152602082019050919050565b600061372a602c836142e9565b91507f4552433732313a206f70657261746f7220717565727920666f72206e6f6e657860008301527f697374656e7420746f6b656e00000000000000000000000000000000000000006020830152604082019050919050565b60006137906038836142e9565b91507f4552433732313a20617070726f76652063616c6c6572206973206e6f74206f7760008301527f6e6572206e6f7220617070726f76656420666f7220616c6c00000000000000006020830152604082019050919050565b60006137f66034836142e9565b91507f4974207365656d73206c696b6520796f7520617265206e6f7420746865206f7760008301527f6e6572206f66207468697320746f6b656e2e2e2e0000000000000000000000006020830152604082019050919050565b600061385c602a836142e9565b91507f4552433732313a2062616c616e636520717565727920666f7220746865207a6560008301527f726f2061646472657373000000000000000000000000000000000000000000006020830152604082019050919050565b60006138c26029836142e9565b91507f4552433732313a206f776e657220717565727920666f72206e6f6e657869737460008301527f656e7420746f6b656e00000000000000000000000000000000000000000000006020830152604082019050919050565b6000613928602e836142e9565b91507f45524337323155524953746f726167653a2055524920736574206f66206e6f6e60008301527f6578697374656e7420746f6b656e0000000000000000000000000000000000006020830152604082019050919050565b600061398e6020836142e9565b91507f4552433732313a206d696e7420746f20746865207a65726f20616464726573736000830152602082019050919050565b60006139ce6039836142e9565b91507f4d757374206265206120706c61796572207769746820616e204e46542074686160008301527f74277320616c69766520616e6420696e20726f756e64203121000000000000006020830152604082019050919050565b6000613a346031836142e9565b91507f45524337323155524953746f726167653a2055524920717565727920666f722060008301527f6e6f6e6578697374656e7420746f6b656e0000000000000000000000000000006020830152604082019050919050565b6000613a9a602c836142e9565b91507f4552433732313a20617070726f76656420717565727920666f72206e6f6e657860008301527f697374656e7420746f6b656e00000000000000000000000000000000000000006020830152604082019050919050565b6000613b006029836142e9565b91507f4552433732313a207472616e73666572206f6620746f6b656e2074686174206960008301527f73206e6f74206f776e00000000000000000000000000000000000000000000006020830152604082019050919050565b6000613b66602f836142e9565b91507f4552433732314d657461646174613a2055524920717565727920666f72206e6f60008301527f6e6578697374656e7420746f6b656e00000000000000000000000000000000006020830152604082019050919050565b6000613bcc6021836142e9565b91507f4552433732313a20617070726f76616c20746f2063757272656e74206f776e6560008301527f72000000000000000000000000000000000000000000000000000000000000006020830152604082019050919050565b6000613c326039836142e9565b91507f4d757374206265206120706c61796572207769746820616e204e46542074686160008301527f74277320616c69766520616e6420696e20726f756e64203221000000000000006020830152604082019050919050565b6000613c986031836142e9565b91507f4552433732313a207472616e736665722063616c6c6572206973206e6f74206f60008301527f776e6572206e6f7220617070726f7665640000000000000000000000000000006020830152604082019050919050565b6000613cfe603e836142e9565b91507f57652068617665207265616368656420746865206d6178206e756d626572206f60008301527f6620706c61796572732c2074727920616761696e206e6578742074696d6500006020830152604082019050919050565b6000613d64601f836142e9565b91507f5265656e7472616e637947756172643a207265656e7472616e742063616c6c006000830152602082019050919050565b613da081614496565b82525050565b613db7613db282614496565b614593565b82525050565b6000613dc98284613356565b60148201915081905092915050565b6000613de48284613330565b60148201915081905092915050565b6000613dff82856133ee565b9150613e0b82846133ee565b91508190509392505050565b6000613e238284613da6565b60208201915081905092915050565b6000602082019050613e476000830184613347565b92915050565b6000608082019050613e626000830187613347565b613e6f6020830186613347565b613e7c6040830185613d97565b8181036060830152613e8e818461337c565b905095945050505050565b6000602082019050613eae600083018461336d565b92915050565b60006020820190508181036000830152613ece81846133b5565b905092915050565b60006020820190508181036000830152613eef8161341f565b9050919050565b60006020820190508181036000830152613f0f81613485565b9050919050565b60006020820190508181036000830152613f2f81613511565b9050919050565b60006020820190508181036000830152613f4f81613551565b9050919050565b60006020820190508181036000830152613f6f816135b7565b9050919050565b60006020820190508181036000830152613f8f816135f7565b9050919050565b60006020820190508181036000830152613faf81613637565b9050919050565b60006020820190508181036000830152613fcf8161369d565b9050919050565b60006020820190508181036000830152613fef816136dd565b9050919050565b6000602082019050818103600083015261400f8161371d565b9050919050565b6000602082019050818103600083015261402f81613783565b9050919050565b6000602082019050818103600083015261404f816137e9565b9050919050565b6000602082019050818103600083015261406f8161384f565b9050919050565b6000602082019050818103600083015261408f816138b5565b9050919050565b600060208201905081810360008301526140af8161391b565b9050919050565b600060208201905081810360008301526140cf81613981565b9050919050565b600060208201905081810360008301526140ef816139c1565b9050919050565b6000602082019050818103600083015261410f81613a27565b9050919050565b6000602082019050818103600083015261412f81613a8d565b9050919050565b6000602082019050818103600083015261414f81613af3565b9050919050565b6000602082019050818103600083015261416f81613b59565b9050919050565b6000602082019050818103600083015261418f81613bbf565b9050919050565b600060208201905081810360008301526141af81613c25565b9050919050565b600060208201905081810360008301526141cf81613c8b565b9050919050565b600060208201905081810360008301526141ef81613cf1565b9050919050565b6000602082019050818103600083015261420f81613d57565b9050919050565b600060208201905061422b6000830184613d97565b92915050565b6000604051905081810181811067ffffffffffffffff821117156142585761425761465b565b5b8060405250919050565b600067ffffffffffffffff82111561427d5761427c61465b565b5b601f19601f8301169050602081019050919050565b600067ffffffffffffffff8211156142ad576142ac61465b565b5b601f19601f8301169050602081019050919050565b600081519050919050565b600081519050919050565b600082825260208201905092915050565b600082825260208201905092915050565b600081905092915050565b600061431082614496565b915061431b83614496565b9250827fffffffffffffffffffffffffffffffffffffffffffffffffffffffffffffffff038211156143505761434f6145ce565b5b828201905092915050565b600061436682614496565b915061437183614496565b925082614381576143806145fd565b5b828204905092915050565b600061439782614496565b91506143a283614496565b9250817fffffffffffffffffffffffffffffffffffffffffffffffffffffffffffffffff04831182151516156143db576143da6145ce565b5b828202905092915050565b60006143f182614496565b91506143fc83614496565b92508282101561440f5761440e6145ce565b5b828203905092915050565b600061442582614476565b9050919050565b600061443782614476565b9050919050565b60008115159050919050565b60007fffffffff0000000000000000000000000000000000000000000000000000000082169050919050565b600073ffffffffffffffffffffffffffffffffffffffff82169050919050565b6000819050919050565b82818337600083830152505050565b60005b838110156144cd5780820151818401526020810190506144b2565b838111156144dc576000848401525b50505050565b600060028204905060018216806144fa57607f821691505b6020821081141561450e5761450d61462c565b5b50919050565b600061451f82614496565b91507fffffffffffffffffffffffffffffffffffffffffffffffffffffffffffffffff821415614552576145516145ce565b5b600182019050919050565b600061456882614581565b9050919050565b600061457a82614581565b9050919050565b600061458c8261469b565b9050919050565b6000819050919050565b60006145a882614496565b91506145b383614496565b9250826145c3576145c26145fd565b5b828206905092915050565b7f4e487b7100000000000000000000000000000000000000000000000000000000600052601160045260246000fd5b7f4e487b7100000000000000000000000000000000000000000000000000000000600052601260045260246000fd5b7f4e487b7100000000000000000000000000000000000000000000000000000000600052602260045260246000fd5b7f4e487b7100000000000000000000000000000000000000000000000000000000600052604160045260246000fd5b6000601f19601f8301169050919050565b60008160601b9050919050565b6146b18161441a565b81146146bc57600080fd5b50565b6146c88161443e565b81146146d357600080fd5b50565b6146df8161444a565b81146146ea57600080fd5b50565b6146f681614496565b811461470157600080fd5b5056fe536f7272792c20796f75207765726520656c696d696e617465642066726f6d20726f756e6420312e536f7272792c20796f75207765726520656c696d696e617465642066726f6d20726f756e6420322e536f7272792c20796f75207765726520656c696d696e617465642066726f6d20726f756e6420332ea2646970667358221220023788d3b0b1ce6fce082b7001dbce9f87a6374c61a13882d89c5601581ab1be64736f6c63430008000033",
  "linkReferences": {},
  "deployedLinkReferences": {}
}