{
  "_format": "hh-sol-artifact-1",
  "contractName": "OctopusFun",
  "sourceName": "contracts/OctopusFun.sol",
  "abi": [
    {
      "inputs": [],
      "stateMutability": "nonpayable",
      "type": "constructor"
    },
    {
      "anonymous": false,
      "inputs": [
        {
          "indexed": true,
          "internalType": "address",
          "name": "owner",
          "type": "address"
        },
        {
          "indexed": true,
          "internalType": "address",
          "name": "approved",
          "type": "address"
        },
        {
          "indexed": true,
          "internalType": "uint256",
          "name": "tokenId",
          "type": "uint256"
        }
      ],
      "name": "Approval",
      "type": "event"
    },
    {
      "anonymous": false,
      "inputs": [
        {
          "indexed": true,
          "internalType": "address",
          "name": "owner",
          "type": "address"
        },
        {
          "indexed": true,
          "internalType": "address",
          "name": "operator",
          "type": "address"
        },
        {
          "indexed": false,
          "internalType": "bool",
          "name": "approved",
          "type": "bool"
        }
      ],
      "name": "ApprovalForAll",
      "type": "event"
    },
    {
      "anonymous": false,
      "inputs": [
        {
          "indexed": true,
          "internalType": "address",
          "name": "from",
          "type": "address"
        },
        {
          "indexed": true,
          "internalType": "address",
          "name": "to",
          "type": "address"
        },
        {
          "indexed": true,
          "internalType": "uint256",
          "name": "tokenId",
          "type": "uint256"
        }
      ],
      "name": "Transfer",
      "type": "event"
    },
    {
      "inputs": [],
      "name": "COST_TO_MINT",
      "outputs": [
        {
          "internalType": "uint256",
          "name": "",
          "type": "uint256"
        }
      ],
      "stateMutability": "view",
      "type": "function"
    },
    {
      "inputs": [],
      "name": "MAX_OCTOPUS_FUN_TOKENS",
      "outputs": [
        {
          "internalType": "uint256",
          "name": "",
          "type": "uint256"
        }
      ],
      "stateMutability": "view",
      "type": "function"
    },
    {
      "inputs": [
        {
          "internalType": "address",
          "name": "",
          "type": "address"
        }
      ],
      "name": "addressToTokenId",
      "outputs": [
        {
          "internalType": "uint256",
          "name": "",
          "type": "uint256"
        }
      ],
      "stateMutability": "view",
      "type": "function"
    },
    {
      "inputs": [],
      "name": "aliveNFTCount",
      "outputs": [
        {
          "internalType": "uint256",
          "name": "_value",
          "type": "uint256"
        }
      ],
      "stateMutability": "view",
      "type": "function"
    },
    {
      "inputs": [
        {
          "internalType": "address",
          "name": "",
          "type": "address"
        }
      ],
      "name": "aliveNFTs",
      "outputs": [
        {
          "internalType": "uint256",
          "name": "",
          "type": "uint256"
        }
      ],
      "stateMutability": "view",
      "type": "function"
    },
    {
      "inputs": [
        {
          "internalType": "address",
          "name": "to",
          "type": "address"
        },
        {
          "internalType": "uint256",
          "name": "tokenId",
          "type": "uint256"
        }
      ],
      "name": "approve",
      "outputs": [],
      "stateMutability": "nonpayable",
      "type": "function"
    },
    {
      "inputs": [
        {
          "internalType": "address",
          "name": "owner",
          "type": "address"
        }
      ],
      "name": "balanceOf",
      "outputs": [
        {
          "internalType": "uint256",
          "name": "",
          "type": "uint256"
        }
      ],
      "stateMutability": "view",
      "type": "function"
    },
    {
      "inputs": [
        {
          "internalType": "address",
          "name": "player",
          "type": "address"
        }
      ],
      "name": "checkIfPlayerIsAlive",
      "outputs": [
        {
          "internalType": "bool",
          "name": "",
          "type": "bool"
        }
      ],
      "stateMutability": "view",
      "type": "function"
    },
    {
      "inputs": [
        {
          "internalType": "address",
          "name": "player",
          "type": "address"
        },
        {
          "internalType": "uint256",
          "name": "tokenId",
          "type": "uint256"
        }
      ],
      "name": "checkIfWinnerAndPayout",
      "outputs": [
        {
          "internalType": "string",
          "name": "",
          "type": "string"
        }
      ],
      "stateMutability": "payable",
      "type": "function"
    },
    {
      "inputs": [
        {
          "internalType": "address",
          "name": "",
          "type": "address"
        }
      ],
      "name": "deadNFTs",
      "outputs": [
        {
          "internalType": "uint256",
          "name": "",
          "type": "uint256"
        }
      ],
      "stateMutability": "view",
      "type": "function"
    },
    {
      "inputs": [
        {
          "internalType": "uint256",
          "name": "tokenId",
          "type": "uint256"
        }
      ],
      "name": "getApproved",
      "outputs": [
        {
          "internalType": "address",
          "name": "",
          "type": "address"
        }
      ],
      "stateMutability": "view",
      "type": "function"
    },
    {
      "inputs": [
        {
          "internalType": "address",
          "name": "player",
          "type": "address"
        }
      ],
      "name": "getTokenURIFromAddress",
      "outputs": [
        {
          "internalType": "string",
          "name": "",
          "type": "string"
        }
      ],
      "stateMutability": "view",
      "type": "function"
    },
    {
      "inputs": [
        {
          "internalType": "address",
          "name": "owner",
          "type": "address"
        },
        {
          "internalType": "address",
          "name": "operator",
          "type": "address"
        }
      ],
      "name": "isApprovedForAll",
      "outputs": [
        {
          "internalType": "bool",
          "name": "",
          "type": "bool"
        }
      ],
      "stateMutability": "view",
      "type": "function"
    },
    {
      "inputs": [],
      "name": "lastRoundAliveNFTCount",
      "outputs": [
        {
          "internalType": "uint256",
          "name": "_value",
          "type": "uint256"
        }
      ],
      "stateMutability": "view",
      "type": "function"
    },
    {
      "inputs": [
        {
          "internalType": "address",
          "name": "recipient",
          "type": "address"
        },
        {
          "internalType": "string",
          "name": "tokenURI",
          "type": "string"
        }
      ],
      "name": "mintNFT",
      "outputs": [
        {
          "internalType": "uint256",
          "name": "",
          "type": "uint256"
        }
      ],
      "stateMutability": "payable",
      "type": "function"
    },
    {
      "inputs": [],
      "name": "name",
      "outputs": [
        {
          "internalType": "string",
          "name": "",
          "type": "string"
        }
      ],
      "stateMutability": "view",
      "type": "function"
    },
    {
      "inputs": [
        {
          "internalType": "uint256",
          "name": "tokenId",
          "type": "uint256"
        }
      ],
      "name": "ownerOf",
      "outputs": [
        {
          "internalType": "address",
          "name": "",
          "type": "address"
        }
      ],
      "stateMutability": "view",
      "type": "function"
    },
    {
      "inputs": [
        {
          "internalType": "address",
          "name": "player",
          "type": "address"
        }
      ],
      "name": "playRound1",
      "outputs": [
        {
          "internalType": "string",
          "name": "",
          "type": "string"
        }
      ],
      "stateMutability": "nonpayable",
      "type": "function"
    },
    {
      "inputs": [
        {
          "internalType": "address",
          "name": "player",
          "type": "address"
        }
      ],
      "name": "playRound2",
      "outputs": [
        {
          "internalType": "string",
          "name": "",
          "type": "string"
        }
      ],
      "stateMutability": "nonpayable",
      "type": "function"
    },
    {
      "inputs": [
        {
          "internalType": "address",
          "name": "player",
          "type": "address"
        }
      ],
      "name": "playRound3",
      "outputs": [
        {
          "internalType": "string",
          "name": "",
          "type": "string"
        }
      ],
      "stateMutability": "nonpayable",
      "type": "function"
    },
    {
      "inputs": [
        {
          "internalType": "address",
          "name": "player",
          "type": "address"
        }
      ],
      "name": "playRound4",
      "outputs": [
        {
          "internalType": "string",
          "name": "",
          "type": "string"
        }
      ],
      "stateMutability": "nonpayable",
      "type": "function"
    },
    {
      "inputs": [
        {
          "internalType": "address",
          "name": "player",
          "type": "address"
        }
      ],
      "name": "playRound5",
      "outputs": [
        {
          "internalType": "string",
          "name": "",
          "type": "string"
        }
      ],
      "stateMutability": "nonpayable",
      "type": "function"
    },
    {
      "inputs": [
        {
          "internalType": "address",
          "name": "player",
          "type": "address"
        }
      ],
      "name": "playRound6",
      "outputs": [
        {
          "internalType": "string",
          "name": "",
          "type": "string"
        }
      ],
      "stateMutability": "nonpayable",
      "type": "function"
    },
    {
      "inputs": [],
      "name": "rand",
      "outputs": [
        {
          "internalType": "uint256",
          "name": "",
          "type": "uint256"
        }
      ],
      "stateMutability": "view",
      "type": "function"
    },
    {
      "inputs": [
        {
          "internalType": "address",
          "name": "from",
          "type": "address"
        },
        {
          "internalType": "address",
          "name": "to",
          "type": "address"
        },
        {
          "internalType": "uint256",
          "name": "tokenId",
          "type": "uint256"
        }
      ],
      "name": "safeTransferFrom",
      "outputs": [],
      "stateMutability": "nonpayable",
      "type": "function"
    },
    {
      "inputs": [
        {
          "internalType": "address",
          "name": "from",
          "type": "address"
        },
        {
          "internalType": "address",
          "name": "to",
          "type": "address"
        },
        {
          "internalType": "uint256",
          "name": "tokenId",
          "type": "uint256"
        },
        {
          "internalType": "bytes",
          "name": "data",
          "type": "bytes"
        }
      ],
      "name": "safeTransferFrom",
      "outputs": [],
      "stateMutability": "nonpayable",
      "type": "function"
    },
    {
      "inputs": [
        {
          "internalType": "address",
          "name": "operator",
          "type": "address"
        },
        {
          "internalType": "bool",
          "name": "approved",
          "type": "bool"
        }
      ],
      "name": "setApprovalForAll",
      "outputs": [],
      "stateMutability": "nonpayable",
      "type": "function"
    },
    {
      "inputs": [
        {
          "internalType": "bytes4",
          "name": "interfaceId",
          "type": "bytes4"
        }
      ],
      "name": "supportsInterface",
      "outputs": [
        {
          "internalType": "bool",
          "name": "",
          "type": "bool"
        }
      ],
      "stateMutability": "view",
      "type": "function"
    },
    {
      "inputs": [],
      "name": "symbol",
      "outputs": [
        {
          "internalType": "string",
          "name": "",
          "type": "string"
        }
      ],
      "stateMutability": "view",
      "type": "function"
    },
    {
      "inputs": [
        {
          "internalType": "uint256",
          "name": "tokenId",
          "type": "uint256"
        }
      ],
      "name": "tokenURI",
      "outputs": [
        {
          "internalType": "string",
          "name": "",
          "type": "string"
        }
      ],
      "stateMutability": "view",
      "type": "function"
    },
    {
      "inputs": [
        {
          "internalType": "address",
          "name": "from",
          "type": "address"
        },
        {
          "internalType": "address",
          "name": "to",
          "type": "address"
        },
        {
          "internalType": "uint256",
          "name": "tokenId",
          "type": "uint256"
        }
      ],
      "name": "transferFrom",
      "outputs": [],
      "stateMutability": "nonpayable",
      "type": "function"
    }
  ],
  "bytecode": "0x60806040523480156200001157600080fd5b506040518060400160405280600a81526020017f4f63746f70757346756e000000000000000000000000000000000000000000008152506040518060400160405280600381526020017f4f43460000000000000000000000000000000000000000000000000000000000815250816000908051906020019062000096929190620000c0565b508060019080519060200190620000af929190620000c0565b5050506001600781905550620001d5565b828054620000ce9062000170565b90600052602060002090601f016020900481019282620000f257600085556200013e565b82601f106200010d57805160ff19168380011785556200013e565b828001600101855582156200013e579182015b828111156200013d57825182559160200191906001019062000120565b5b5090506200014d919062000151565b5090565b5b808211156200016c57600081600090555060010162000152565b5090565b600060028204905060018216806200018957607f821691505b60208210811415620001a0576200019f620001a6565b5b50919050565b7f4e487b7100000000000000000000000000000000000000000000000000000000600052602260045260246000fd5b61567180620001e56000396000f3fe6080604052600436106101d85760003560e01c80636511bf2e11610102578063b88d4fde11610095578063e712604711610064578063e71260471461076f578063e985e9c5146107ac578063eacabe14146107e9578063fbeae8fc14610819576101d8565b8063b88d4fde146106a1578063bdac4234146106ca578063c87b56dd146106f5578063da7973db14610732576101d8565b80639df26847116100d15780639df26847146105c1578063a0357d4b146105fe578063a22cb4651461063b578063a473072514610664576101d8565b80636511bf2e146104df57806370a082311461051c5780637709fbe91461055957806395d89b4114610596576101d8565b806325383d171161017a57806341a0eded1161014957806341a0eded146103ff57806342842e0e1461043c5780634afad5c2146104655780636352211e146104a2576101d8565b806325383d171461034e57806333d092a61461037957806338ee7730146103a45780633b3dca76146103d4576101d8565b8063095ea7b3116101b6578063095ea7b31461028257806311ae77c6146102ab57806315981cf7146102e857806323b872dd14610325576101d8565b806301ffc9a7146101dd57806306fdde031461021a578063081812fc14610245575b600080fd5b3480156101e957600080fd5b5061020460048036038101906101ff9190613f44565b610844565b6040516102119190614c80565b60405180910390f35b34801561022657600080fd5b5061022f610926565b60405161023c9190614c9b565b60405180910390f35b34801561025157600080fd5b5061026c60048036038101906102679190613f96565b6109b8565b6040516102799190614c19565b60405180910390f35b34801561028e57600080fd5b506102a960048036038101906102a49190613f08565b610a3d565b005b3480156102b757600080fd5b506102d260048036038101906102cd9190613d49565b610b55565b6040516102df9190614c9b565b60405180910390f35b3480156102f457600080fd5b5061030f600480360381019061030a9190613d49565b610dca565b60405161031c9190614c80565b60405180910390f35b34801561033157600080fd5b5061034c60048036038101906103479190613dae565b610e15565b005b34801561035a57600080fd5b5061036361104a565b604051610370919061505d565b60405180910390f35b34801561038557600080fd5b5061038e611056565b60405161039b919061505d565b60405180910390f35b6103be60048036038101906103b99190613f08565b611062565b6040516103cb9190614c9b565b60405180910390f35b3480156103e057600080fd5b506103e96113d2565b6040516103f6919061505d565b60405180910390f35b34801561040b57600080fd5b5061042660048036038101906104219190613d49565b6114ca565b604051610433919061505d565b60405180910390f35b34801561044857600080fd5b50610463600480360381019061045e9190613dae565b6114e2565b005b34801561047157600080fd5b5061048c60048036038101906104879190613d49565b611717565b604051610499919061505d565b60405180910390f35b3480156104ae57600080fd5b506104c960048036038101906104c49190613f96565b61172f565b6040516104d69190614c19565b60405180910390f35b3480156104eb57600080fd5b5061050660048036038101906105019190613d49565b6117e1565b604051610513919061505d565b60405180910390f35b34801561052857600080fd5b50610543600480360381019061053e9190613d49565b6117f9565b604051610550919061505d565b60405180910390f35b34801561056557600080fd5b50610580600480360381019061057b9190613d49565b6118b1565b60405161058d9190614c9b565b60405180910390f35b3480156105a257600080fd5b506105ab611b26565b6040516105b89190614c9b565b60405180910390f35b3480156105cd57600080fd5b506105e860048036038101906105e39190613d49565b611bb8565b6040516105f59190614c9b565b60405180910390f35b34801561060a57600080fd5b5061062560048036038101906106209190613d49565b611e2d565b6040516106329190614c9b565b60405180910390f35b34801561064757600080fd5b50610662600480360381019061065d9190613e78565b6120a2565b005b34801561067057600080fd5b5061068b60048036038101906106869190613d49565b612223565b6040516106989190614c9b565b60405180910390f35b3480156106ad57600080fd5b506106c860048036038101906106c39190613dfd565b6122be565b005b3480156106d657600080fd5b506106df6124f5565b6040516106ec919061505d565b60405180910390f35b34801561070157600080fd5b5061071c60048036038101906107179190613f96565b6124fb565b6040516107299190614c9b565b60405180910390f35b34801561073e57600080fd5b5061075960048036038101906107549190613d49565b61264d565b6040516107669190614c9b565b60405180910390f35b34801561077b57600080fd5b5061079660048036038101906107919190613d49565b6128b8565b6040516107a39190614c9b565b60405180910390f35b3480156107b857600080fd5b506107d360048036038101906107ce9190613d72565b612b23565b6040516107e09190614c80565b60405180910390f35b61080360048036038101906107fe9190613eb4565b612bb7565b604051610810919061505d565b60405180910390f35b34801561082557600080fd5b5061082e612d66565b60405161083b919061505d565b60405180910390f35b60007f80ac58cd000000000000000000000000000000000000000000000000000000007bffffffffffffffffffffffffffffffffffffffffffffffffffffffff1916827bffffffffffffffffffffffffffffffffffffffffffffffffffffffff1916148061090f57507f5b5e139f000000000000000000000000000000000000000000000000000000007bffffffffffffffffffffffffffffffffffffffffffffffffffffffff1916827bffffffffffffffffffffffffffffffffffffffffffffffffffffffff1916145b8061091f575061091e82612d72565b5b9050919050565b60606000805461093590615329565b80601f016020809104026020016040519081016040528092919081815260200182805461096190615329565b80156109ae5780601f10610983576101008083540402835291602001916109ae565b820191906000526020600020905b81548152906001019060200180831161099157829003601f168201915b5050505050905090565b60006109c382612ddc565b610a02576040517f08c379a00000000000000000000000000000000000000000000000000000000081526004016109f990614f3d565b60405180910390fd5b6004600083815260200190815260200160002060009054906101000a900473ffffffffffffffffffffffffffffffffffffffff169050919050565b6000610a488261172f565b90508073ffffffffffffffffffffffffffffffffffffffff168373ffffffffffffffffffffffffffffffffffffffff161415610ab9576040517f08c379a0000000000000000000000000000000000000000000000000000000008152600401610ab090614f9d565b60405180910390fd5b8073ffffffffffffffffffffffffffffffffffffffff16610ad8612e48565b73ffffffffffffffffffffffffffffffffffffffff161480610b075750610b0681610b01612e48565b612b23565b5b610b46576040517f08c379a0000000000000000000000000000000000000000000000000000000008152600401610b3d90614dfd565b60405180910390fd5b610b508383612e50565b505050565b606060026007541415610b9d576040517f08c379a0000000000000000000000000000000000000000000000000000000008152600401610b949061503d565b60405180910390fd5b60026007819055503373ffffffffffffffffffffffffffffffffffffffff168273ffffffffffffffffffffffffffffffffffffffff1614610c13576040517f08c379a0000000000000000000000000000000000000000000000000000000008152600401610c0a90614e1d565b60405180910390fd5b6000600b60008473ffffffffffffffffffffffffffffffffffffffff1673ffffffffffffffffffffffffffffffffffffffff16815260200190815260200160002054905060008114158015610c685750600381145b610ca7576040517f08c379a0000000000000000000000000000000000000000000000000000000008152600401610c9e90614cbd565b60405180910390fd5b6000610cb16113d2565b90506101f3811015610ce957610cc78483612f09565b6040518060600160405280602881526020016156146028913992505050610dbd565b6001600b60008673ffffffffffffffffffffffffffffffffffffffff1673ffffffffffffffffffffffffffffffffffffffff16815260200190815260200160002054610d35919061514c565b600b60008673ffffffffffffffffffffffffffffffffffffffff1673ffffffffffffffffffffffffffffffffffffffff16815260200190815260200160002081905550610d82600a612fa0565b6040518060400160405280601f81526020017f436f6e67726174732c20796f7520737572766976656420726f756e6420332e00815250925050505b6001600781905550919050565b600080600b60008473ffffffffffffffffffffffffffffffffffffffff1673ffffffffffffffffffffffffffffffffffffffff16815260200190815260200160002054119050919050565b6000600b60008473ffffffffffffffffffffffffffffffffffffffff1673ffffffffffffffffffffffffffffffffffffffff1681526020019081526020016000205414610e6157600080fd5b610e6c838383612fb6565b6000600b60008573ffffffffffffffffffffffffffffffffffffffff1673ffffffffffffffffffffffffffffffffffffffff16815260200190815260200160002054111561104557600b60008473ffffffffffffffffffffffffffffffffffffffff1673ffffffffffffffffffffffffffffffffffffffff16815260200190815260200160002054600b60008473ffffffffffffffffffffffffffffffffffffffff1673ffffffffffffffffffffffffffffffffffffffff168152602001908152602001600020819055506000600b60008573ffffffffffffffffffffffffffffffffffffffff1673ffffffffffffffffffffffffffffffffffffffff16815260200190815260200160002081905550600d60008473ffffffffffffffffffffffffffffffffffffffff1673ffffffffffffffffffffffffffffffffffffffff16815260200190815260200160002054600d60008473ffffffffffffffffffffffffffffffffffffffff1673ffffffffffffffffffffffffffffffffffffffff168152602001908152602001600020819055506000600d60008573ffffffffffffffffffffffffffffffffffffffff1673ffffffffffffffffffffffffffffffffffffffff168152602001908152602001600020819055505b505050565b60098060000154905081565b67016345785d8a000081565b6060600260075414156110aa576040517f08c379a00000000000000000000000000000000000000000000000000000000081526004016110a19061503d565b60405180910390fd5b600260078190555060006110bd8361172f565b90508073ffffffffffffffffffffffffffffffffffffffff168473ffffffffffffffffffffffffffffffffffffffff1614801561112557503373ffffffffffffffffffffffffffffffffffffffff168473ffffffffffffffffffffffffffffffffffffffff16145b801561115c57503373ffffffffffffffffffffffffffffffffffffffff168173ffffffffffffffffffffffffffffffffffffffff16145b61119b576040517f08c379a000000000000000000000000000000000000000000000000000000000815260040161119290614e1d565b60405180910390fd5b60016111a76009613016565b1415611288576000600b60008673ffffffffffffffffffffffffffffffffffffffff1673ffffffffffffffffffffffffffffffffffffffff168152602001908152602001600020541415611230576040517f08c379a000000000000000000000000000000000000000000000000000000000815260040161122790614d3d565b60405180910390fd5b600084905060004790508173ffffffffffffffffffffffffffffffffffffffff166108fc829081150290604051600060405180830381858888f19350505050158015611280573d6000803e3d6000fd5b50505061138b565b6000600b60008673ffffffffffffffffffffffffffffffffffffffff1673ffffffffffffffffffffffffffffffffffffffff168152602001908152602001600020549050600081141580156112dd5750600481145b61131c576040517f08c379a000000000000000000000000000000000000000000000000000000000815260040161131390614cdd565b60405180910390fd5b6000479050600061132d600a613016565b90506000818361133d91906151a2565b90508773ffffffffffffffffffffffffffffffffffffffff166108fc829081150290604051600060405180830381858888f19350505050158015611385573d6000803e3d6000fd5b50505050505b6040518060400160405280602081526020017f596f7527766520776f6e212048657265277320796f75722077696e6e696e6773815250915050600160078190555092915050565b6000804342336040516020016113e89190614ba4565b6040516020818303038152906040528051906020012060001c61140b91906151a2565b45424160405160200161141e9190614bbf565b6040516020818303038152906040528051906020012060001c61144191906151a2565b444261144d919061514c565b611457919061514c565b611461919061514c565b61146b919061514c565b611475919061514c565b6040516020016114859190614bfe565b6040516020818303038152906040528051906020012060001c90506103e880826114af91906151a2565b6114b991906151d3565b816114c4919061522d565b91505090565b600b6020528060005260406000206000915090505481565b6000600b60008473ffffffffffffffffffffffffffffffffffffffff1673ffffffffffffffffffffffffffffffffffffffff168152602001908152602001600020541461152e57600080fd5b611539838383613024565b6000600b60008573ffffffffffffffffffffffffffffffffffffffff1673ffffffffffffffffffffffffffffffffffffffff16815260200190815260200160002054111561171257600b60008473ffffffffffffffffffffffffffffffffffffffff1673ffffffffffffffffffffffffffffffffffffffff16815260200190815260200160002054600b60008473ffffffffffffffffffffffffffffffffffffffff1673ffffffffffffffffffffffffffffffffffffffff168152602001908152602001600020819055506000600b60008573ffffffffffffffffffffffffffffffffffffffff1673ffffffffffffffffffffffffffffffffffffffff16815260200190815260200160002081905550600d60008473ffffffffffffffffffffffffffffffffffffffff1673ffffffffffffffffffffffffffffffffffffffff16815260200190815260200160002054600d60008473ffffffffffffffffffffffffffffffffffffffff1673ffffffffffffffffffffffffffffffffffffffff168152602001908152602001600020819055506000600d60008573ffffffffffffffffffffffffffffffffffffffff1673ffffffffffffffffffffffffffffffffffffffff168152602001908152602001600020819055505b505050565b600c6020528060005260406000206000915090505481565b6000806002600084815260200190815260200160002060009054906101000a900473ffffffffffffffffffffffffffffffffffffffff169050600073ffffffffffffffffffffffffffffffffffffffff168173ffffffffffffffffffffffffffffffffffffffff1614156117d8576040517f08c379a00000000000000000000000000000000000000000000000000000000081526004016117cf90614e5d565b60405180910390fd5b80915050919050565b600d6020528060005260406000206000915090505481565b60008073ffffffffffffffffffffffffffffffffffffffff168273ffffffffffffffffffffffffffffffffffffffff16141561186a576040517f08c379a000000000000000000000000000000000000000000000000000000000815260040161186190614e3d565b60405180910390fd5b600360008373ffffffffffffffffffffffffffffffffffffffff1673ffffffffffffffffffffffffffffffffffffffff168152602001908152602001600020549050919050565b6060600260075414156118f9576040517f08c379a00000000000000000000000000000000000000000000000000000000081526004016118f09061503d565b60405180910390fd5b60026007819055503373ffffffffffffffffffffffffffffffffffffffff168273ffffffffffffffffffffffffffffffffffffffff161461196f576040517f08c379a000000000000000000000000000000000000000000000000000000000815260040161196690614e1d565b60405180910390fd5b6000600b60008473ffffffffffffffffffffffffffffffffffffffff1673ffffffffffffffffffffffffffffffffffffffff168152602001908152602001600020549050600081141580156119c45750600481145b611a03576040517f08c379a00000000000000000000000000000000000000000000000000000000081526004016119fa90614edd565b60405180910390fd5b6000611a0d6113d2565b90506101f3811015611a4557611a238483612f09565b6040518060600160405280602881526020016155c46028913992505050611b19565b6001600b60008673ffffffffffffffffffffffffffffffffffffffff1673ffffffffffffffffffffffffffffffffffffffff16815260200190815260200160002054611a91919061514c565b600b60008673ffffffffffffffffffffffffffffffffffffffff1673ffffffffffffffffffffffffffffffffffffffff16815260200190815260200160002081905550611ade600a612fa0565b6040518060400160405280601f81526020017f436f6e67726174732c20796f7520737572766976656420726f756e6420342e00815250925050505b6001600781905550919050565b606060018054611b3590615329565b80601f0160208091040260200160405190810160405280929190818152602001828054611b6190615329565b8015611bae5780601f10611b8357610100808354040283529160200191611bae565b820191906000526020600020905b815481529060010190602001808311611b9157829003601f168201915b5050505050905090565b606060026007541415611c00576040517f08c379a0000000000000000000000000000000000000000000000000000000008152600401611bf79061503d565b60405180910390fd5b60026007819055503373ffffffffffffffffffffffffffffffffffffffff168273ffffffffffffffffffffffffffffffffffffffff1614611c76576040517f08c379a0000000000000000000000000000000000000000000000000000000008152600401611c6d90614e1d565b60405180910390fd5b6000600b60008473ffffffffffffffffffffffffffffffffffffffff1673ffffffffffffffffffffffffffffffffffffffff16815260200190815260200160002054905060008114158015611ccb5750600681145b611d0a576040517f08c379a0000000000000000000000000000000000000000000000000000000008152600401611d0190614dbd565b60405180910390fd5b6000611d146113d2565b90506101f3811015611d4c57611d2a8483612f09565b6040518060600160405280602881526020016155746028913992505050611e20565b6001600b60008673ffffffffffffffffffffffffffffffffffffffff1673ffffffffffffffffffffffffffffffffffffffff16815260200190815260200160002054611d98919061514c565b600b60008673ffffffffffffffffffffffffffffffffffffffff1673ffffffffffffffffffffffffffffffffffffffff16815260200190815260200160002081905550611de5600a612fa0565b6040518060400160405280601f81526020017f436f6e67726174732c20796f7520737572766976656420726f756e6420362e00815250925050505b6001600781905550919050565b606060026007541415611e75576040517f08c379a0000000000000000000000000000000000000000000000000000000008152600401611e6c9061503d565b60405180910390fd5b60026007819055503373ffffffffffffffffffffffffffffffffffffffff168273ffffffffffffffffffffffffffffffffffffffff1614611eeb576040517f08c379a0000000000000000000000000000000000000000000000000000000008152600401611ee290614e1d565b60405180910390fd5b6000600b60008473ffffffffffffffffffffffffffffffffffffffff1673ffffffffffffffffffffffffffffffffffffffff16815260200190815260200160002054905060008114158015611f405750600581145b611f7f576040517f08c379a0000000000000000000000000000000000000000000000000000000008152600401611f7690614fdd565b60405180910390fd5b6000611f896113d2565b90506101f3811015611fc157611f9f8483612f09565b6040518060600160405280602881526020016155ec6028913992505050612095565b6001600b60008673ffffffffffffffffffffffffffffffffffffffff1673ffffffffffffffffffffffffffffffffffffffff1681526020019081526020016000205461200d919061514c565b600b60008673ffffffffffffffffffffffffffffffffffffffff1673ffffffffffffffffffffffffffffffffffffffff1681526020019081526020016000208190555061205a600a612fa0565b6040518060400160405280601f81526020017f436f6e67726174732c20796f7520737572766976656420726f756e6420352e00815250925050505b6001600781905550919050565b6120aa612e48565b73ffffffffffffffffffffffffffffffffffffffff168273ffffffffffffffffffffffffffffffffffffffff161415612118576040517f08c379a000000000000000000000000000000000000000000000000000000000815260040161210f90614d9d565b60405180910390fd5b8060056000612125612e48565b73ffffffffffffffffffffffffffffffffffffffff1673ffffffffffffffffffffffffffffffffffffffff16815260200190815260200160002060008473ffffffffffffffffffffffffffffffffffffffff1673ffffffffffffffffffffffffffffffffffffffff16815260200190815260200160002060006101000a81548160ff0219169083151502179055508173ffffffffffffffffffffffffffffffffffffffff166121d2612e48565b73ffffffffffffffffffffffffffffffffffffffff167f17307eab39ab6107e8899845ad3d59bd9653f200f220920489ca2b5937696c31836040516122179190614c80565b60405180910390a35050565b60606000600d60008473ffffffffffffffffffffffffffffffffffffffff1673ffffffffffffffffffffffffffffffffffffffff16815260200190815260200160002054905060008114156122ad576040517f08c379a00000000000000000000000000000000000000000000000000000000081526004016122a490614e9d565b60405180910390fd5b6122b6816124fb565b915050919050565b6000600b60008573ffffffffffffffffffffffffffffffffffffffff1673ffffffffffffffffffffffffffffffffffffffff168152602001908152602001600020541461230a57600080fd5b61231684848484613044565b6000600b60008673ffffffffffffffffffffffffffffffffffffffff1673ffffffffffffffffffffffffffffffffffffffff1681526020019081526020016000205411156124ef57600b60008573ffffffffffffffffffffffffffffffffffffffff1673ffffffffffffffffffffffffffffffffffffffff16815260200190815260200160002054600b60008573ffffffffffffffffffffffffffffffffffffffff1673ffffffffffffffffffffffffffffffffffffffff168152602001908152602001600020819055506000600b60008673ffffffffffffffffffffffffffffffffffffffff1673ffffffffffffffffffffffffffffffffffffffff16815260200190815260200160002081905550600d60008573ffffffffffffffffffffffffffffffffffffffff1673ffffffffffffffffffffffffffffffffffffffff16815260200190815260200160002054600d60008573ffffffffffffffffffffffffffffffffffffffff1673ffffffffffffffffffffffffffffffffffffffff168152602001908152602001600020819055506000600d60008673ffffffffffffffffffffffffffffffffffffffff1673ffffffffffffffffffffffffffffffffffffffff168152602001908152602001600020819055505b50505050565b6101c881565b606061250682612ddc565b612545576040517f08c379a000000000000000000000000000000000000000000000000000000000815260040161253c90614f1d565b60405180910390fd5b600060066000848152602001908152602001600020805461256590615329565b80601f016020809104026020016040519081016040528092919081815260200182805461259190615329565b80156125de5780601f106125b3576101008083540402835291602001916125de565b820191906000526020600020905b8154815290600101906020018083116125c157829003601f168201915b5050505050905060006125ef6130a6565b9050600081511415612605578192505050612648565b60008251111561263a578082604051602001612622929190614bda565b60405160208183030381529060405292505050612648565b612643846130bd565b925050505b919050565b606060026007541415612695576040517f08c379a000000000000000000000000000000000000000000000000000000000815260040161268c9061503d565b60405180910390fd5b60026007819055503373ffffffffffffffffffffffffffffffffffffffff168273ffffffffffffffffffffffffffffffffffffffff161461270b576040517f08c379a000000000000000000000000000000000000000000000000000000000815260040161270290614e1d565b60405180910390fd5b6000600b60008473ffffffffffffffffffffffffffffffffffffffff1673ffffffffffffffffffffffffffffffffffffffff168152602001908152602001600020549050600081141580156127605750600181145b61279f576040517f08c379a000000000000000000000000000000000000000000000000000000000815260040161279690614efd565b60405180910390fd5b60006127a96113d2565b90506101f38110156127e1576127bf8483612f09565b60405180606001604052806028815260200161554c60289139925050506128ab565b6001600b60008673ffffffffffffffffffffffffffffffffffffffff1673ffffffffffffffffffffffffffffffffffffffff1681526020019081526020016000205461282d919061514c565b600b60008673ffffffffffffffffffffffffffffffffffffffff1673ffffffffffffffffffffffffffffffffffffffff168152602001908152602001600020819055506040518060400160405280601f81526020017f436f6e67726174732c20796f7520737572766976656420726f756e6420312e00815250925050505b6001600781905550919050565b606060026007541415612900576040517f08c379a00000000000000000000000000000000000000000000000000000000081526004016128f79061503d565b60405180910390fd5b60026007819055503373ffffffffffffffffffffffffffffffffffffffff168273ffffffffffffffffffffffffffffffffffffffff1614612976576040517f08c379a000000000000000000000000000000000000000000000000000000000815260040161296d90614e1d565b60405180910390fd5b6000600b60008473ffffffffffffffffffffffffffffffffffffffff1673ffffffffffffffffffffffffffffffffffffffff168152602001908152602001600020549050600081141580156129cb5750600281145b612a0a576040517f08c379a0000000000000000000000000000000000000000000000000000000008152600401612a0190614fbd565b60405180910390fd5b6000612a146113d2565b90506101f3811015612a4c57612a2a8483612f09565b60405180606001604052806028815260200161559c6028913992505050612b16565b6001600b60008673ffffffffffffffffffffffffffffffffffffffff1673ffffffffffffffffffffffffffffffffffffffff16815260200190815260200160002054612a98919061514c565b600b60008673ffffffffffffffffffffffffffffffffffffffff1673ffffffffffffffffffffffffffffffffffffffff168152602001908152602001600020819055506040518060400160405280601f81526020017f436f6e67726174732c20796f7520737572766976656420726f756e6420322e00815250925050505b6001600781905550919050565b6000600560008473ffffffffffffffffffffffffffffffffffffffff1673ffffffffffffffffffffffffffffffffffffffff16815260200190815260200160002060008373ffffffffffffffffffffffffffffffffffffffff1673ffffffffffffffffffffffffffffffffffffffff16815260200190815260200160002060009054906101000a900460ff16905092915050565b60006101c8612bc66008613016565b10612c06576040517f08c379a0000000000000000000000000000000000000000000000000000000008152600401612bfd9061501d565b60405180910390fd5b6000600b60008573ffffffffffffffffffffffffffffffffffffffff1673ffffffffffffffffffffffffffffffffffffffff16815260200190815260200160002054148015612c9457506000600c60008573ffffffffffffffffffffffffffffffffffffffff1673ffffffffffffffffffffffffffffffffffffffff16815260200190815260200160002054145b612c9d57600080fd5b612ca76008612fa0565b612cb16009612fa0565b6000612cbd6008613016565b9050612cc98482613164565b612cd38184613182565b6001600b60008673ffffffffffffffffffffffffffffffffffffffff1673ffffffffffffffffffffffffffffffffffffffff1681526020019081526020016000208190555080600d60008673ffffffffffffffffffffffffffffffffffffffff1673ffffffffffffffffffffffffffffffffffffffff168152602001908152602001600020819055508091505092915050565b600a8060000154905081565b60007f01ffc9a7000000000000000000000000000000000000000000000000000000007bffffffffffffffffffffffffffffffffffffffffffffffffffffffff1916827bffffffffffffffffffffffffffffffffffffffffffffffffffffffff1916149050919050565b60008073ffffffffffffffffffffffffffffffffffffffff166002600084815260200190815260200160002060009054906101000a900473ffffffffffffffffffffffffffffffffffffffff1673ffffffffffffffffffffffffffffffffffffffff1614159050919050565b600033905090565b816004600083815260200190815260200160002060006101000a81548173ffffffffffffffffffffffffffffffffffffffff021916908373ffffffffffffffffffffffffffffffffffffffff160217905550808273ffffffffffffffffffffffffffffffffffffffff16612ec38361172f565b73ffffffffffffffffffffffffffffffffffffffff167f8c5be1e5ebec7d5bd14f71427d1e84f3dd0314c0f7b2291e5b200ac8c7c3b92560405160405180910390a45050565b6000600b60008473ffffffffffffffffffffffffffffffffffffffff1673ffffffffffffffffffffffffffffffffffffffff1681526020019081526020016000208190555080600c60008473ffffffffffffffffffffffffffffffffffffffff1673ffffffffffffffffffffffffffffffffffffffff16815260200190815260200160002081905550612f9c60096131f6565b5050565b6001816000016000828254019250508190555050565b612fc7612fc1612e48565b82613252565b613006576040517f08c379a0000000000000000000000000000000000000000000000000000000008152600401612ffd90614ffd565b60405180910390fd5b613011838383613330565b505050565b600081600001549050919050565b61303f838383604051806020016040528060008152506122be565b505050565b61305561304f612e48565b83613252565b613094576040517f08c379a000000000000000000000000000000000000000000000000000000000815260040161308b90614ffd565b60405180910390fd5b6130a08484848461358c565b50505050565b606060405180602001604052806000815250905090565b60606130c882612ddc565b613107576040517f08c379a00000000000000000000000000000000000000000000000000000000081526004016130fe90614f7d565b60405180910390fd5b60006131116130a6565b90506000815111613131576040518060200160405280600081525061315c565b8061313b846135e8565b60405160200161314c929190614bda565b6040516020818303038152906040525b915050919050565b61317e828260405180602001604052806000815250613795565b5050565b61318b82612ddc565b6131ca576040517f08c379a00000000000000000000000000000000000000000000000000000000081526004016131c190614e7d565b60405180910390fd5b806006600084815260200190815260200160002090805190602001906131f1929190613b6d565b505050565b60008160000154905060008111613242576040517f08c379a000000000000000000000000000000000000000000000000000000000815260040161323990614cfd565b60405180910390fd5b6001810382600001819055505050565b600061325d82612ddc565b61329c576040517f08c379a000000000000000000000000000000000000000000000000000000000815260040161329390614ddd565b60405180910390fd5b60006132a78361172f565b90508073ffffffffffffffffffffffffffffffffffffffff168473ffffffffffffffffffffffffffffffffffffffff16148061331657508373ffffffffffffffffffffffffffffffffffffffff166132fe846109b8565b73ffffffffffffffffffffffffffffffffffffffff16145b8061332757506133268185612b23565b5b91505092915050565b8273ffffffffffffffffffffffffffffffffffffffff166133508261172f565b73ffffffffffffffffffffffffffffffffffffffff16146133a6576040517f08c379a000000000000000000000000000000000000000000000000000000000815260040161339d90614f5d565b60405180910390fd5b600073ffffffffffffffffffffffffffffffffffffffff168273ffffffffffffffffffffffffffffffffffffffff161415613416576040517f08c379a000000000000000000000000000000000000000000000000000000000815260040161340d90614d7d565b60405180910390fd5b6134218383836137f0565b61342c600082612e50565b6001600360008573ffffffffffffffffffffffffffffffffffffffff1673ffffffffffffffffffffffffffffffffffffffff168152602001908152602001600020600082825461347c919061522d565b925050819055506001600360008473ffffffffffffffffffffffffffffffffffffffff1673ffffffffffffffffffffffffffffffffffffffff16815260200190815260200160002060008282546134d3919061514c565b92505081905550816002600083815260200190815260200160002060006101000a81548173ffffffffffffffffffffffffffffffffffffffff021916908373ffffffffffffffffffffffffffffffffffffffff160217905550808273ffffffffffffffffffffffffffffffffffffffff168473ffffffffffffffffffffffffffffffffffffffff167fddf252ad1be2c89b69c2b068fc378daa952ba7f163c4a11628f55a4df523b3ef60405160405180910390a4505050565b613597848484613330565b6135a3848484846137f5565b6135e2576040517f08c379a00000000000000000000000000000000000000000000000000000000081526004016135d990614d1d565b60405180910390fd5b50505050565b60606000821415613630576040518060400160405280600181526020017f30000000000000000000000000000000000000000000000000000000000000008152509050613790565b600082905060005b6000821461366257808061364b9061535b565b915050600a8261365b91906151a2565b9150613638565b60008167ffffffffffffffff8111156136a4577f4e487b7100000000000000000000000000000000000000000000000000000000600052604160045260246000fd5b6040519080825280601f01601f1916602001820160405280156136d65781602001600182028036833780820191505090505b5090505b60008514613789576001826136ef919061522d565b9150600a856136fe91906153e4565b603061370a919061514c565b60f81b818381518110613746577f4e487b7100000000000000000000000000000000000000000000000000000000600052603260045260246000fd5b60200101907effffffffffffffffffffffffffffffffffffffffffffffffffffffffffffff1916908160001a905350600a8561378291906151a2565b94506136da565b8093505050505b919050565b61379f838361398c565b6137ac60008484846137f5565b6137eb576040517f08c379a00000000000000000000000000000000000000000000000000000000081526004016137e290614d1d565b60405180910390fd5b505050565b505050565b60006138168473ffffffffffffffffffffffffffffffffffffffff16613b5a565b1561397f578373ffffffffffffffffffffffffffffffffffffffff1663150b7a0261383f612e48565b8786866040518563ffffffff1660e01b81526004016138619493929190614c34565b602060405180830381600087803b15801561387b57600080fd5b505af19250505080156138ac57506040513d601f19601f820116820180604052508101906138a99190613f6d565b60015b61392f573d80600081146138dc576040519150601f19603f3d011682016040523d82523d6000602084013e6138e1565b606091505b50600081511415613927576040517f08c379a000000000000000000000000000000000000000000000000000000000815260040161391e90614d1d565b60405180910390fd5b805181602001fd5b63150b7a0260e01b7bffffffffffffffffffffffffffffffffffffffffffffffffffffffff1916817bffffffffffffffffffffffffffffffffffffffffffffffffffffffff191614915050613984565b600190505b949350505050565b600073ffffffffffffffffffffffffffffffffffffffff168273ffffffffffffffffffffffffffffffffffffffff1614156139fc576040517f08c379a00000000000000000000000000000000000000000000000000000000081526004016139f390614ebd565b60405180910390fd5b613a0581612ddc565b15613a45576040517f08c379a0000000000000000000000000000000000000000000000000000000008152600401613a3c90614d5d565b60405180910390fd5b613a51600083836137f0565b6001600360008473ffffffffffffffffffffffffffffffffffffffff1673ffffffffffffffffffffffffffffffffffffffff1681526020019081526020016000206000828254613aa1919061514c565b92505081905550816002600083815260200190815260200160002060006101000a81548173ffffffffffffffffffffffffffffffffffffffff021916908373ffffffffffffffffffffffffffffffffffffffff160217905550808273ffffffffffffffffffffffffffffffffffffffff16600073ffffffffffffffffffffffffffffffffffffffff167fddf252ad1be2c89b69c2b068fc378daa952ba7f163c4a11628f55a4df523b3ef60405160405180910390a45050565b600080823b905060008111915050919050565b828054613b7990615329565b90600052602060002090601f016020900481019282613b9b5760008555613be2565b82601f10613bb457805160ff1916838001178555613be2565b82800160010185558215613be2579182015b82811115613be1578251825591602001919060010190613bc6565b5b509050613bef9190613bf3565b5090565b5b80821115613c0c576000816000905550600101613bf4565b5090565b6000613c23613c1e846150a9565b615078565b905082815260208101848484011115613c3b57600080fd5b613c468482856152e7565b509392505050565b6000613c61613c5c846150d9565b615078565b905082815260208101848484011115613c7957600080fd5b613c848482856152e7565b509392505050565b600081359050613c9b816154ef565b92915050565b600081359050613cb081615506565b92915050565b600081359050613cc58161551d565b92915050565b600081519050613cda8161551d565b92915050565b600082601f830112613cf157600080fd5b8135613d01848260208601613c10565b91505092915050565b600082601f830112613d1b57600080fd5b8135613d2b848260208601613c4e565b91505092915050565b600081359050613d4381615534565b92915050565b600060208284031215613d5b57600080fd5b6000613d6984828501613c8c565b91505092915050565b60008060408385031215613d8557600080fd5b6000613d9385828601613c8c565b9250506020613da485828601613c8c565b9150509250929050565b600080600060608486031215613dc357600080fd5b6000613dd186828701613c8c565b9350506020613de286828701613c8c565b9250506040613df386828701613d34565b9150509250925092565b60008060008060808587031215613e1357600080fd5b6000613e2187828801613c8c565b9450506020613e3287828801613c8c565b9350506040613e4387828801613d34565b925050606085013567ffffffffffffffff811115613e6057600080fd5b613e6c87828801613ce0565b91505092959194509250565b60008060408385031215613e8b57600080fd5b6000613e9985828601613c8c565b9250506020613eaa85828601613ca1565b9150509250929050565b60008060408385031215613ec757600080fd5b6000613ed585828601613c8c565b925050602083013567ffffffffffffffff811115613ef257600080fd5b613efe85828601613d0a565b9150509250929050565b60008060408385031215613f1b57600080fd5b6000613f2985828601613c8c565b9250506020613f3a85828601613d34565b9150509250929050565b600060208284031215613f5657600080fd5b6000613f6484828501613cb6565b91505092915050565b600060208284031215613f7f57600080fd5b6000613f8d84828501613ccb565b91505092915050565b600060208284031215613fa857600080fd5b6000613fb684828501613d34565b91505092915050565b613fd0613fcb82615273565b6153b6565b82525050565b613fdf81615261565b82525050565b613ff6613ff182615261565b6153a4565b82525050565b61400581615285565b82525050565b600061401682615109565b614020818561511f565b93506140308185602086016152f6565b614039816154d1565b840191505092915050565b600061404f82615114565b6140598185615130565b93506140698185602086016152f6565b614072816154d1565b840191505092915050565b600061408882615114565b6140928185615141565b93506140a28185602086016152f6565b80840191505092915050565b60006140bb603983615130565b91507f4d757374206265206120706c61796572207769746820616e204e46542074686160008301527f74277320616c69766520616e6420696e20726f756e64203321000000000000006020830152604082019050919050565b6000614121604283615130565b91507f4d757374206265206120706c61796572207769746820616e204e46542074686160008301527f74277320616c69766520616e642070617373656420616c6c203320726f756e6460208301527f73210000000000000000000000000000000000000000000000000000000000006040830152606082019050919050565b60006141ad601b83615130565b91507f436f756e7465723a2064656372656d656e74206f766572666c6f7700000000006000830152602082019050919050565b60006141ed603283615130565b91507f4552433732313a207472616e7366657220746f206e6f6e20455243373231526560008301527f63656976657220696d706c656d656e74657200000000000000000000000000006020830152604082019050919050565b6000614253602083615130565b91507f596f7520617265206e6f74207468652077696e6e657220746869732074696d656000830152602082019050919050565b6000614293601c83615130565b91507f4552433732313a20746f6b656e20616c7265616479206d696e746564000000006000830152602082019050919050565b60006142d3602483615130565b91507f4552433732313a207472616e7366657220746f20746865207a65726f2061646460008301527f72657373000000000000000000000000000000000000000000000000000000006020830152604082019050919050565b6000614339601983615130565b91507f4552433732313a20617070726f766520746f2063616c6c6572000000000000006000830152602082019050919050565b6000614379603983615130565b91507f4d757374206265206120706c61796572207769746820616e204e46542074686160008301527f74277320616c69766520616e6420696e20726f756e64203621000000000000006020830152604082019050919050565b60006143df602c83615130565b91507f4552433732313a206f70657261746f7220717565727920666f72206e6f6e657860008301527f697374656e7420746f6b656e00000000000000000000000000000000000000006020830152604082019050919050565b6000614445603883615130565b91507f4552433732313a20617070726f76652063616c6c6572206973206e6f74206f7760008301527f6e6572206e6f7220617070726f76656420666f7220616c6c00000000000000006020830152604082019050919050565b60006144ab603483615130565b91507f4974207365656d73206c696b6520796f7520617265206e6f7420746865206f7760008301527f6e6572206f66207468697320746f6b656e2e2e2e0000000000000000000000006020830152604082019050919050565b6000614511602a83615130565b91507f4552433732313a2062616c616e636520717565727920666f7220746865207a6560008301527f726f2061646472657373000000000000000000000000000000000000000000006020830152604082019050919050565b6000614577602983615130565b91507f4552433732313a206f776e657220717565727920666f72206e6f6e657869737460008301527f656e7420746f6b656e00000000000000000000000000000000000000000000006020830152604082019050919050565b60006145dd602e83615130565b91507f45524337323155524953746f726167653a2055524920736574206f66206e6f6e60008301527f6578697374656e7420746f6b656e0000000000000000000000000000000000006020830152604082019050919050565b6000614643602283615130565b91507f596f7572206164647265737320646f6573206e6f742068617665206120746f6b60008301527f656e0000000000000000000000000000000000000000000000000000000000006020830152604082019050919050565b60006146a9602083615130565b91507f4552433732313a206d696e7420746f20746865207a65726f20616464726573736000830152602082019050919050565b60006146e9603983615130565b91507f4d757374206265206120706c61796572207769746820616e204e46542074686160008301527f74277320616c69766520616e6420696e20726f756e64203421000000000000006020830152604082019050919050565b600061474f603983615130565b91507f4d757374206265206120706c61796572207769746820616e204e46542074686160008301527f74277320616c69766520616e6420696e20726f756e64203121000000000000006020830152604082019050919050565b60006147b5603183615130565b91507f45524337323155524953746f726167653a2055524920717565727920666f722060008301527f6e6f6e6578697374656e7420746f6b656e0000000000000000000000000000006020830152604082019050919050565b600061481b602c83615130565b91507f4552433732313a20617070726f76656420717565727920666f72206e6f6e657860008301527f697374656e7420746f6b656e00000000000000000000000000000000000000006020830152604082019050919050565b6000614881602983615130565b91507f4552433732313a207472616e73666572206f6620746f6b656e2074686174206960008301527f73206e6f74206f776e00000000000000000000000000000000000000000000006020830152604082019050919050565b60006148e7602f83615130565b91507f4552433732314d657461646174613a2055524920717565727920666f72206e6f60008301527f6e6578697374656e7420746f6b656e00000000000000000000000000000000006020830152604082019050919050565b600061494d602183615130565b91507f4552433732313a20617070726f76616c20746f2063757272656e74206f776e6560008301527f72000000000000000000000000000000000000000000000000000000000000006020830152604082019050919050565b60006149b3603983615130565b91507f4d757374206265206120706c61796572207769746820616e204e46542074686160008301527f74277320616c69766520616e6420696e20726f756e64203221000000000000006020830152604082019050919050565b6000614a19603983615130565b91507f4d757374206265206120706c61796572207769746820616e204e46542074686160008301527f74277320616c69766520616e6420696e20726f756e64203521000000000000006020830152604082019050919050565b6000614a7f603183615130565b91507f4552433732313a207472616e736665722063616c6c6572206973206e6f74206f60008301527f776e6572206e6f7220617070726f7665640000000000000000000000000000006020830152604082019050919050565b6000614ae5603e83615130565b91507f57652068617665207265616368656420746865206d6178206e756d626572206f60008301527f6620706c61796572732c2074727920616761696e206e6578742074696d6500006020830152604082019050919050565b6000614b4b601f83615130565b91507f5265656e7472616e637947756172643a207265656e7472616e742063616c6c006000830152602082019050919050565b614b87816152dd565b82525050565b614b9e614b99826152dd565b6153da565b82525050565b6000614bb08284613fe5565b60148201915081905092915050565b6000614bcb8284613fbf565b60148201915081905092915050565b6000614be6828561407d565b9150614bf2828461407d565b91508190509392505050565b6000614c0a8284614b8d565b60208201915081905092915050565b6000602082019050614c2e6000830184613fd6565b92915050565b6000608082019050614c496000830187613fd6565b614c566020830186613fd6565b614c636040830185614b7e565b8181036060830152614c75818461400b565b905095945050505050565b6000602082019050614c956000830184613ffc565b92915050565b60006020820190508181036000830152614cb58184614044565b905092915050565b60006020820190508181036000830152614cd6816140ae565b9050919050565b60006020820190508181036000830152614cf681614114565b9050919050565b60006020820190508181036000830152614d16816141a0565b9050919050565b60006020820190508181036000830152614d36816141e0565b9050919050565b60006020820190508181036000830152614d5681614246565b9050919050565b60006020820190508181036000830152614d7681614286565b9050919050565b60006020820190508181036000830152614d96816142c6565b9050919050565b60006020820190508181036000830152614db68161432c565b9050919050565b60006020820190508181036000830152614dd68161436c565b9050919050565b60006020820190508181036000830152614df6816143d2565b9050919050565b60006020820190508181036000830152614e1681614438565b9050919050565b60006020820190508181036000830152614e368161449e565b9050919050565b60006020820190508181036000830152614e5681614504565b9050919050565b60006020820190508181036000830152614e768161456a565b9050919050565b60006020820190508181036000830152614e96816145d0565b9050919050565b60006020820190508181036000830152614eb681614636565b9050919050565b60006020820190508181036000830152614ed68161469c565b9050919050565b60006020820190508181036000830152614ef6816146dc565b9050919050565b60006020820190508181036000830152614f1681614742565b9050919050565b60006020820190508181036000830152614f36816147a8565b9050919050565b60006020820190508181036000830152614f568161480e565b9050919050565b60006020820190508181036000830152614f7681614874565b9050919050565b60006020820190508181036000830152614f96816148da565b9050919050565b60006020820190508181036000830152614fb681614940565b9050919050565b60006020820190508181036000830152614fd6816149a6565b9050919050565b60006020820190508181036000830152614ff681614a0c565b9050919050565b6000602082019050818103600083015261501681614a72565b9050919050565b6000602082019050818103600083015261503681614ad8565b9050919050565b6000602082019050818103600083015261505681614b3e565b9050919050565b60006020820190506150726000830184614b7e565b92915050565b6000604051905081810181811067ffffffffffffffff8211171561509f5761509e6154a2565b5b8060405250919050565b600067ffffffffffffffff8211156150c4576150c36154a2565b5b601f19601f8301169050602081019050919050565b600067ffffffffffffffff8211156150f4576150f36154a2565b5b601f19601f8301169050602081019050919050565b600081519050919050565b600081519050919050565b600082825260208201905092915050565b600082825260208201905092915050565b600081905092915050565b6000615157826152dd565b9150615162836152dd565b9250827fffffffffffffffffffffffffffffffffffffffffffffffffffffffffffffffff0382111561519757615196615415565b5b828201905092915050565b60006151ad826152dd565b91506151b8836152dd565b9250826151c8576151c7615444565b5b828204905092915050565b60006151de826152dd565b91506151e9836152dd565b9250817fffffffffffffffffffffffffffffffffffffffffffffffffffffffffffffffff048311821515161561522257615221615415565b5b828202905092915050565b6000615238826152dd565b9150615243836152dd565b92508282101561525657615255615415565b5b828203905092915050565b600061526c826152bd565b9050919050565b600061527e826152bd565b9050919050565b60008115159050919050565b60007fffffffff0000000000000000000000000000000000000000000000000000000082169050919050565b600073ffffffffffffffffffffffffffffffffffffffff82169050919050565b6000819050919050565b82818337600083830152505050565b60005b838110156153145780820151818401526020810190506152f9565b83811115615323576000848401525b50505050565b6000600282049050600182168061534157607f821691505b6020821081141561535557615354615473565b5b50919050565b6000615366826152dd565b91507fffffffffffffffffffffffffffffffffffffffffffffffffffffffffffffffff82141561539957615398615415565b5b600182019050919050565b60006153af826153c8565b9050919050565b60006153c1826153c8565b9050919050565b60006153d3826154e2565b9050919050565b6000819050919050565b60006153ef826152dd565b91506153fa836152dd565b92508261540a57615409615444565b5b828206905092915050565b7f4e487b7100000000000000000000000000000000000000000000000000000000600052601160045260246000fd5b7f4e487b7100000000000000000000000000000000000000000000000000000000600052601260045260246000fd5b7f4e487b7100000000000000000000000000000000000000000000000000000000600052602260045260246000fd5b7f4e487b7100000000000000000000000000000000000000000000000000000000600052604160045260246000fd5b6000601f19601f8301169050919050565b60008160601b9050919050565b6154f881615261565b811461550357600080fd5b50565b61550f81615285565b811461551a57600080fd5b50565b61552681615291565b811461553157600080fd5b50565b61553d816152dd565b811461554857600080fd5b5056fe536f7272792c20796f75207765726520656c696d696e617465642066726f6d20726f756e6420312e536f7272792c20796f75207765726520656c696d696e617465642066726f6d20726f756e6420362e536f7272792c20796f75207765726520656c696d696e617465642066726f6d20726f756e6420322e536f7272792c20796f75207765726520656c696d696e617465642066726f6d20726f756e6420342e536f7272792c20796f75207765726520656c696d696e617465642066726f6d20726f756e6420352e536f7272792c20796f75207765726520656c696d696e617465642066726f6d20726f756e6420332ea2646970667358221220b7cead7030d07415da61b97dcfa228ad1dc9c685d21762105166d23be7a00f0064736f6c63430008000033",
  "linkReferences": {},
  "deployedLinkReferences": {}
}