{
  "_format": "hh-sol-artifact-1",
  "contractName": "OctopusFun",
  "sourceName": "contracts/OctopusFun.sol",
  "abi": [
    {
      "inputs": [],
      "stateMutability": "nonpayable",
      "type": "constructor"
    },
    {
      "anonymous": false,
      "inputs": [
        {
          "indexed": true,
          "internalType": "address",
          "name": "owner",
          "type": "address"
        },
        {
          "indexed": true,
          "internalType": "address",
          "name": "approved",
          "type": "address"
        },
        {
          "indexed": true,
          "internalType": "uint256",
          "name": "tokenId",
          "type": "uint256"
        }
      ],
      "name": "Approval",
      "type": "event"
    },
    {
      "anonymous": false,
      "inputs": [
        {
          "indexed": true,
          "internalType": "address",
          "name": "owner",
          "type": "address"
        },
        {
          "indexed": true,
          "internalType": "address",
          "name": "operator",
          "type": "address"
        },
        {
          "indexed": false,
          "internalType": "bool",
          "name": "approved",
          "type": "bool"
        }
      ],
      "name": "ApprovalForAll",
      "type": "event"
    },
    {
      "anonymous": false,
      "inputs": [
        {
          "indexed": true,
          "internalType": "address",
          "name": "from",
          "type": "address"
        },
        {
          "indexed": true,
          "internalType": "address",
          "name": "to",
          "type": "address"
        },
        {
          "indexed": true,
          "internalType": "uint256",
          "name": "tokenId",
          "type": "uint256"
        }
      ],
      "name": "Transfer",
      "type": "event"
    },
    {
      "inputs": [],
      "name": "COST_TO_MINT",
      "outputs": [
        {
          "internalType": "uint256",
          "name": "",
          "type": "uint256"
        }
      ],
      "stateMutability": "view",
      "type": "function"
    },
    {
      "inputs": [],
      "name": "MAX_OCTOPUS_FUN_TOKENS",
      "outputs": [
        {
          "internalType": "uint256",
          "name": "",
          "type": "uint256"
        }
      ],
      "stateMutability": "view",
      "type": "function"
    },
    {
      "inputs": [
        {
          "internalType": "address",
          "name": "",
          "type": "address"
        }
      ],
      "name": "addressToTokenId",
      "outputs": [
        {
          "internalType": "uint256",
          "name": "",
          "type": "uint256"
        }
      ],
      "stateMutability": "view",
      "type": "function"
    },
    {
      "inputs": [],
      "name": "aliveNFTCount",
      "outputs": [
        {
          "internalType": "uint256",
          "name": "_value",
          "type": "uint256"
        }
      ],
      "stateMutability": "view",
      "type": "function"
    },
    {
      "inputs": [
        {
          "internalType": "address",
          "name": "",
          "type": "address"
        }
      ],
      "name": "aliveNFTs",
      "outputs": [
        {
          "internalType": "uint256",
          "name": "",
          "type": "uint256"
        }
      ],
      "stateMutability": "view",
      "type": "function"
    },
    {
      "inputs": [
        {
          "internalType": "address",
          "name": "to",
          "type": "address"
        },
        {
          "internalType": "uint256",
          "name": "tokenId",
          "type": "uint256"
        }
      ],
      "name": "approve",
      "outputs": [],
      "stateMutability": "nonpayable",
      "type": "function"
    },
    {
      "inputs": [
        {
          "internalType": "address",
          "name": "owner",
          "type": "address"
        }
      ],
      "name": "balanceOf",
      "outputs": [
        {
          "internalType": "uint256",
          "name": "",
          "type": "uint256"
        }
      ],
      "stateMutability": "view",
      "type": "function"
    },
    {
      "inputs": [
        {
          "internalType": "address",
          "name": "player",
          "type": "address"
        }
      ],
      "name": "checkIfPlayerIsAlive",
      "outputs": [
        {
          "internalType": "bool",
          "name": "",
          "type": "bool"
        }
      ],
      "stateMutability": "view",
      "type": "function"
    },
    {
      "inputs": [
        {
          "internalType": "address",
          "name": "player",
          "type": "address"
        },
        {
          "internalType": "uint256",
          "name": "tokenId",
          "type": "uint256"
        }
      ],
      "name": "checkIfWinnerAndPayout",
      "outputs": [
        {
          "internalType": "string",
          "name": "",
          "type": "string"
        }
      ],
      "stateMutability": "payable",
      "type": "function"
    },
    {
      "inputs": [
        {
          "internalType": "address",
          "name": "",
          "type": "address"
        }
      ],
      "name": "deadNFTs",
      "outputs": [
        {
          "internalType": "uint256",
          "name": "",
          "type": "uint256"
        }
      ],
      "stateMutability": "view",
      "type": "function"
    },
    {
      "inputs": [
        {
          "internalType": "uint256",
          "name": "tokenId",
          "type": "uint256"
        }
      ],
      "name": "getApproved",
      "outputs": [
        {
          "internalType": "address",
          "name": "",
          "type": "address"
        }
      ],
      "stateMutability": "view",
      "type": "function"
    },
    {
      "inputs": [
        {
          "internalType": "address",
          "name": "player",
          "type": "address"
        }
      ],
      "name": "getTokenURIFromAddress",
      "outputs": [
        {
          "internalType": "string",
          "name": "",
          "type": "string"
        }
      ],
      "stateMutability": "view",
      "type": "function"
    },
    {
      "inputs": [
        {
          "internalType": "address",
          "name": "owner",
          "type": "address"
        },
        {
          "internalType": "address",
          "name": "operator",
          "type": "address"
        }
      ],
      "name": "isApprovedForAll",
      "outputs": [
        {
          "internalType": "bool",
          "name": "",
          "type": "bool"
        }
      ],
      "stateMutability": "view",
      "type": "function"
    },
    {
      "inputs": [],
      "name": "lastRoundAliveNFTCount",
      "outputs": [
        {
          "internalType": "uint256",
          "name": "_value",
          "type": "uint256"
        }
      ],
      "stateMutability": "view",
      "type": "function"
    },
    {
      "inputs": [
        {
          "internalType": "address",
          "name": "recipient",
          "type": "address"
        },
        {
          "internalType": "string",
          "name": "tokenURI",
          "type": "string"
        }
      ],
      "name": "mintNFT",
      "outputs": [
        {
          "internalType": "uint256",
          "name": "",
          "type": "uint256"
        }
      ],
      "stateMutability": "payable",
      "type": "function"
    },
    {
      "inputs": [],
      "name": "name",
      "outputs": [
        {
          "internalType": "string",
          "name": "",
          "type": "string"
        }
      ],
      "stateMutability": "view",
      "type": "function"
    },
    {
      "inputs": [
        {
          "internalType": "uint256",
          "name": "tokenId",
          "type": "uint256"
        }
      ],
      "name": "ownerOf",
      "outputs": [
        {
          "internalType": "address",
          "name": "",
          "type": "address"
        }
      ],
      "stateMutability": "view",
      "type": "function"
    },
    {
      "inputs": [
        {
          "internalType": "address",
          "name": "player",
          "type": "address"
        }
      ],
      "name": "playRound1",
      "outputs": [
        {
          "internalType": "string",
          "name": "",
          "type": "string"
        }
      ],
      "stateMutability": "nonpayable",
      "type": "function"
    },
    {
      "inputs": [
        {
          "internalType": "address",
          "name": "player",
          "type": "address"
        }
      ],
      "name": "playRound2",
      "outputs": [
        {
          "internalType": "string",
          "name": "",
          "type": "string"
        }
      ],
      "stateMutability": "nonpayable",
      "type": "function"
    },
    {
      "inputs": [
        {
          "internalType": "address",
          "name": "player",
          "type": "address"
        }
      ],
      "name": "playRound3",
      "outputs": [
        {
          "internalType": "string",
          "name": "",
          "type": "string"
        }
      ],
      "stateMutability": "nonpayable",
      "type": "function"
    },
    {
      "inputs": [
        {
          "internalType": "address",
          "name": "player",
          "type": "address"
        }
      ],
      "name": "playRound4",
      "outputs": [
        {
          "internalType": "string",
          "name": "",
          "type": "string"
        }
      ],
      "stateMutability": "nonpayable",
      "type": "function"
    },
    {
      "inputs": [
        {
          "internalType": "address",
          "name": "player",
          "type": "address"
        }
      ],
      "name": "playRound5",
      "outputs": [
        {
          "internalType": "string",
          "name": "",
          "type": "string"
        }
      ],
      "stateMutability": "nonpayable",
      "type": "function"
    },
    {
      "inputs": [
        {
          "internalType": "address",
          "name": "player",
          "type": "address"
        }
      ],
      "name": "playRound6",
      "outputs": [
        {
          "internalType": "string",
          "name": "",
          "type": "string"
        }
      ],
      "stateMutability": "nonpayable",
      "type": "function"
    },
    {
      "inputs": [],
      "name": "rand",
      "outputs": [
        {
          "internalType": "uint256",
          "name": "",
          "type": "uint256"
        }
      ],
      "stateMutability": "view",
      "type": "function"
    },
    {
      "inputs": [
        {
          "internalType": "address",
          "name": "from",
          "type": "address"
        },
        {
          "internalType": "address",
          "name": "to",
          "type": "address"
        },
        {
          "internalType": "uint256",
          "name": "tokenId",
          "type": "uint256"
        }
      ],
      "name": "safeTransferFrom",
      "outputs": [],
      "stateMutability": "nonpayable",
      "type": "function"
    },
    {
      "inputs": [
        {
          "internalType": "address",
          "name": "from",
          "type": "address"
        },
        {
          "internalType": "address",
          "name": "to",
          "type": "address"
        },
        {
          "internalType": "uint256",
          "name": "tokenId",
          "type": "uint256"
        },
        {
          "internalType": "bytes",
          "name": "data",
          "type": "bytes"
        }
      ],
      "name": "safeTransferFrom",
      "outputs": [],
      "stateMutability": "nonpayable",
      "type": "function"
    },
    {
      "inputs": [
        {
          "internalType": "address",
          "name": "operator",
          "type": "address"
        },
        {
          "internalType": "bool",
          "name": "approved",
          "type": "bool"
        }
      ],
      "name": "setApprovalForAll",
      "outputs": [],
      "stateMutability": "nonpayable",
      "type": "function"
    },
    {
      "inputs": [
        {
          "internalType": "bytes4",
          "name": "interfaceId",
          "type": "bytes4"
        }
      ],
      "name": "supportsInterface",
      "outputs": [
        {
          "internalType": "bool",
          "name": "",
          "type": "bool"
        }
      ],
      "stateMutability": "view",
      "type": "function"
    },
    {
      "inputs": [],
      "name": "symbol",
      "outputs": [
        {
          "internalType": "string",
          "name": "",
          "type": "string"
        }
      ],
      "stateMutability": "view",
      "type": "function"
    },
    {
      "inputs": [
        {
          "internalType": "uint256",
          "name": "tokenId",
          "type": "uint256"
        }
      ],
      "name": "tokenURI",
      "outputs": [
        {
          "internalType": "string",
          "name": "",
          "type": "string"
        }
      ],
      "stateMutability": "view",
      "type": "function"
    },
    {
      "inputs": [
        {
          "internalType": "address",
          "name": "from",
          "type": "address"
        },
        {
          "internalType": "address",
          "name": "to",
          "type": "address"
        },
        {
          "internalType": "uint256",
          "name": "tokenId",
          "type": "uint256"
        }
      ],
      "name": "transferFrom",
      "outputs": [],
      "stateMutability": "nonpayable",
      "type": "function"
    }
  ],
  "bytecode": "0x60806040523480156200001157600080fd5b506040518060400160405280600a81526020017f4f63746f70757346756e000000000000000000000000000000000000000000008152506040518060400160405280600381526020017f4f43460000000000000000000000000000000000000000000000000000000000815250816000908051906020019062000096929190620000c0565b508060019080519060200190620000af929190620000c0565b5050506001600781905550620001d5565b828054620000ce9062000170565b90600052602060002090601f016020900481019282620000f257600085556200013e565b82601f106200010d57805160ff19168380011785556200013e565b828001600101855582156200013e579182015b828111156200013d57825182559160200191906001019062000120565b5b5090506200014d919062000151565b5090565b5b808211156200016c57600081600090555060010162000152565b5090565b600060028204905060018216806200018957607f821691505b60208210811415620001a0576200019f620001a6565b5b50919050565b7f4e487b7100000000000000000000000000000000000000000000000000000000600052602260045260246000fd5b61575280620001e56000396000f3fe6080604052600436106101d85760003560e01c80636511bf2e11610102578063b88d4fde11610095578063e712604711610064578063e71260471461076f578063e985e9c5146107ac578063eacabe14146107e9578063fbeae8fc14610819576101d8565b8063b88d4fde146106a1578063bdac4234146106ca578063c87b56dd146106f5578063da7973db14610732576101d8565b80639df26847116100d15780639df26847146105c1578063a0357d4b146105fe578063a22cb4651461063b578063a473072514610664576101d8565b80636511bf2e146104df57806370a082311461051c5780637709fbe91461055957806395d89b4114610596576101d8565b806325383d171161017a57806341a0eded1161014957806341a0eded146103ff57806342842e0e1461043c5780634afad5c2146104655780636352211e146104a2576101d8565b806325383d171461034e57806333d092a61461037957806338ee7730146103a45780633b3dca76146103d4576101d8565b8063095ea7b3116101b6578063095ea7b31461028257806311ae77c6146102ab57806315981cf7146102e857806323b872dd14610325576101d8565b806301ffc9a7146101dd57806306fdde031461021a578063081812fc14610245575b600080fd5b3480156101e957600080fd5b5061020460048036038101906101ff9190614025565b610844565b6040516102119190614d61565b60405180910390f35b34801561022657600080fd5b5061022f610926565b60405161023c9190614d7c565b60405180910390f35b34801561025157600080fd5b5061026c60048036038101906102679190614077565b6109b8565b6040516102799190614cfa565b60405180910390f35b34801561028e57600080fd5b506102a960048036038101906102a49190613fe9565b610a3d565b005b3480156102b757600080fd5b506102d260048036038101906102cd9190613e2a565b610b55565b6040516102df9190614d7c565b60405180910390f35b3480156102f457600080fd5b5061030f600480360381019061030a9190613e2a565b610dca565b60405161031c9190614d61565b60405180910390f35b34801561033157600080fd5b5061034c60048036038101906103479190613e8f565b610e15565b005b34801561035a57600080fd5b50610363611095565b604051610370919061513e565b60405180910390f35b34801561038557600080fd5b5061038e6110a1565b60405161039b919061513e565b60405180910390f35b6103be60048036038101906103b99190613fe9565b6110ad565b6040516103cb9190614d7c565b60405180910390f35b3480156103e057600080fd5b506103e961141d565b6040516103f6919061513e565b60405180910390f35b34801561040b57600080fd5b5061042660048036038101906104219190613e2a565b611515565b604051610433919061513e565b60405180910390f35b34801561044857600080fd5b50610463600480360381019061045e9190613e8f565b61152d565b005b34801561047157600080fd5b5061048c60048036038101906104879190613e2a565b6117ad565b604051610499919061513e565b60405180910390f35b3480156104ae57600080fd5b506104c960048036038101906104c49190614077565b6117c5565b6040516104d69190614cfa565b60405180910390f35b3480156104eb57600080fd5b5061050660048036038101906105019190613e2a565b611877565b604051610513919061513e565b60405180910390f35b34801561052857600080fd5b50610543600480360381019061053e9190613e2a565b61188f565b604051610550919061513e565b60405180910390f35b34801561056557600080fd5b50610580600480360381019061057b9190613e2a565b611947565b60405161058d9190614d7c565b60405180910390f35b3480156105a257600080fd5b506105ab611bbc565b6040516105b89190614d7c565b60405180910390f35b3480156105cd57600080fd5b506105e860048036038101906105e39190613e2a565b611c4e565b6040516105f59190614d7c565b60405180910390f35b34801561060a57600080fd5b5061062560048036038101906106209190613e2a565b611ec3565b6040516106329190614d7c565b60405180910390f35b34801561064757600080fd5b50610662600480360381019061065d9190613f59565b612138565b005b34801561067057600080fd5b5061068b60048036038101906106869190613e2a565b6122b9565b6040516106989190614d7c565b60405180910390f35b3480156106ad57600080fd5b506106c860048036038101906106c39190613ede565b612354565b005b3480156106d657600080fd5b506106df6125d6565b6040516106ec919061513e565b60405180910390f35b34801561070157600080fd5b5061071c60048036038101906107179190614077565b6125dc565b6040516107299190614d7c565b60405180910390f35b34801561073e57600080fd5b5061075960048036038101906107549190613e2a565b61272e565b6040516107669190614d7c565b60405180910390f35b34801561077b57600080fd5b5061079660048036038101906107919190613e2a565b612999565b6040516107a39190614d7c565b60405180910390f35b3480156107b857600080fd5b506107d360048036038101906107ce9190613e53565b612c04565b6040516107e09190614d61565b60405180910390f35b61080360048036038101906107fe9190613f95565b612c98565b604051610810919061513e565b60405180910390f35b34801561082557600080fd5b5061082e612e47565b60405161083b919061513e565b60405180910390f35b60007f80ac58cd000000000000000000000000000000000000000000000000000000007bffffffffffffffffffffffffffffffffffffffffffffffffffffffff1916827bffffffffffffffffffffffffffffffffffffffffffffffffffffffff1916148061090f57507f5b5e139f000000000000000000000000000000000000000000000000000000007bffffffffffffffffffffffffffffffffffffffffffffffffffffffff1916827bffffffffffffffffffffffffffffffffffffffffffffffffffffffff1916145b8061091f575061091e82612e53565b5b9050919050565b6060600080546109359061540a565b80601f01602080910402602001604051908101604052809291908181526020018280546109619061540a565b80156109ae5780601f10610983576101008083540402835291602001916109ae565b820191906000526020600020905b81548152906001019060200180831161099157829003601f168201915b5050505050905090565b60006109c382612ebd565b610a02576040517f08c379a00000000000000000000000000000000000000000000000000000000081526004016109f99061501e565b60405180910390fd5b6004600083815260200190815260200160002060009054906101000a900473ffffffffffffffffffffffffffffffffffffffff169050919050565b6000610a48826117c5565b90508073ffffffffffffffffffffffffffffffffffffffff168373ffffffffffffffffffffffffffffffffffffffff161415610ab9576040517f08c379a0000000000000000000000000000000000000000000000000000000008152600401610ab09061507e565b60405180910390fd5b8073ffffffffffffffffffffffffffffffffffffffff16610ad8612f29565b73ffffffffffffffffffffffffffffffffffffffff161480610b075750610b0681610b01612f29565b612c04565b5b610b46576040517f08c379a0000000000000000000000000000000000000000000000000000000008152600401610b3d90614ede565b60405180910390fd5b610b508383612f31565b505050565b606060026007541415610b9d576040517f08c379a0000000000000000000000000000000000000000000000000000000008152600401610b949061511e565b60405180910390fd5b60026007819055503373ffffffffffffffffffffffffffffffffffffffff168273ffffffffffffffffffffffffffffffffffffffff1614610c13576040517f08c379a0000000000000000000000000000000000000000000000000000000008152600401610c0a90614efe565b60405180910390fd5b6000600b60008473ffffffffffffffffffffffffffffffffffffffff1673ffffffffffffffffffffffffffffffffffffffff16815260200190815260200160002054905060008114158015610c685750600381145b610ca7576040517f08c379a0000000000000000000000000000000000000000000000000000000008152600401610c9e90614d9e565b60405180910390fd5b6000610cb161141d565b90506101f3811015610ce957610cc78483612fea565b6040518060600160405280602881526020016156f56028913992505050610dbd565b6001600b60008673ffffffffffffffffffffffffffffffffffffffff1673ffffffffffffffffffffffffffffffffffffffff16815260200190815260200160002054610d35919061522d565b600b60008673ffffffffffffffffffffffffffffffffffffffff1673ffffffffffffffffffffffffffffffffffffffff16815260200190815260200160002081905550610d82600a613081565b6040518060400160405280601f81526020017f436f6e67726174732c20796f7520737572766976656420726f756e6420332e00815250925050505b6001600781905550919050565b600080600b60008473ffffffffffffffffffffffffffffffffffffffff1673ffffffffffffffffffffffffffffffffffffffff16815260200190815260200160002054119050919050565b6000600b60008473ffffffffffffffffffffffffffffffffffffffff1673ffffffffffffffffffffffffffffffffffffffff16815260200190815260200160002054148015610ea357506000600c60008473ffffffffffffffffffffffffffffffffffffffff1673ffffffffffffffffffffffffffffffffffffffff16815260200190815260200160002054145b610eac57600080fd5b610eb7838383613097565b6000600b60008573ffffffffffffffffffffffffffffffffffffffff1673ffffffffffffffffffffffffffffffffffffffff16815260200190815260200160002054111561109057600b60008473ffffffffffffffffffffffffffffffffffffffff1673ffffffffffffffffffffffffffffffffffffffff16815260200190815260200160002054600b60008473ffffffffffffffffffffffffffffffffffffffff1673ffffffffffffffffffffffffffffffffffffffff168152602001908152602001600020819055506000600b60008573ffffffffffffffffffffffffffffffffffffffff1673ffffffffffffffffffffffffffffffffffffffff16815260200190815260200160002081905550600d60008473ffffffffffffffffffffffffffffffffffffffff1673ffffffffffffffffffffffffffffffffffffffff16815260200190815260200160002054600d60008473ffffffffffffffffffffffffffffffffffffffff1673ffffffffffffffffffffffffffffffffffffffff168152602001908152602001600020819055506000600d60008573ffffffffffffffffffffffffffffffffffffffff1673ffffffffffffffffffffffffffffffffffffffff168152602001908152602001600020819055505b505050565b60098060000154905081565b67016345785d8a000081565b6060600260075414156110f5576040517f08c379a00000000000000000000000000000000000000000000000000000000081526004016110ec9061511e565b60405180910390fd5b60026007819055506000611108836117c5565b90508073ffffffffffffffffffffffffffffffffffffffff168473ffffffffffffffffffffffffffffffffffffffff1614801561117057503373ffffffffffffffffffffffffffffffffffffffff168473ffffffffffffffffffffffffffffffffffffffff16145b80156111a757503373ffffffffffffffffffffffffffffffffffffffff168173ffffffffffffffffffffffffffffffffffffffff16145b6111e6576040517f08c379a00000000000000000000000000000000000000000000000000000000081526004016111dd90614efe565b60405180910390fd5b60016111f260096130f7565b14156112d3576000600b60008673ffffffffffffffffffffffffffffffffffffffff1673ffffffffffffffffffffffffffffffffffffffff16815260200190815260200160002054141561127b576040517f08c379a000000000000000000000000000000000000000000000000000000000815260040161127290614e1e565b60405180910390fd5b600084905060004790508173ffffffffffffffffffffffffffffffffffffffff166108fc829081150290604051600060405180830381858888f193505050501580156112cb573d6000803e3d6000fd5b5050506113d6565b6000600b60008673ffffffffffffffffffffffffffffffffffffffff1673ffffffffffffffffffffffffffffffffffffffff168152602001908152602001600020549050600081141580156113285750600481145b611367576040517f08c379a000000000000000000000000000000000000000000000000000000000815260040161135e90614dbe565b60405180910390fd5b60004790506000611378600a6130f7565b9050600081836113889190615283565b90508773ffffffffffffffffffffffffffffffffffffffff166108fc829081150290604051600060405180830381858888f193505050501580156113d0573d6000803e3d6000fd5b50505050505b6040518060400160405280602081526020017f596f7527766520776f6e212048657265277320796f75722077696e6e696e6773815250915050600160078190555092915050565b6000804342336040516020016114339190614c85565b6040516020818303038152906040528051906020012060001c6114569190615283565b4542416040516020016114699190614ca0565b6040516020818303038152906040528051906020012060001c61148c9190615283565b4442611498919061522d565b6114a2919061522d565b6114ac919061522d565b6114b6919061522d565b6114c0919061522d565b6040516020016114d09190614cdf565b6040516020818303038152906040528051906020012060001c90506103e880826114fa9190615283565b61150491906152b4565b8161150f919061530e565b91505090565b600b6020528060005260406000206000915090505481565b6000600b60008473ffffffffffffffffffffffffffffffffffffffff1673ffffffffffffffffffffffffffffffffffffffff168152602001908152602001600020541480156115bb57506000600c60008473ffffffffffffffffffffffffffffffffffffffff1673ffffffffffffffffffffffffffffffffffffffff16815260200190815260200160002054145b6115c457600080fd5b6115cf838383613105565b6000600b60008573ffffffffffffffffffffffffffffffffffffffff1673ffffffffffffffffffffffffffffffffffffffff1681526020019081526020016000205411156117a857600b60008473ffffffffffffffffffffffffffffffffffffffff1673ffffffffffffffffffffffffffffffffffffffff16815260200190815260200160002054600b60008473ffffffffffffffffffffffffffffffffffffffff1673ffffffffffffffffffffffffffffffffffffffff168152602001908152602001600020819055506000600b60008573ffffffffffffffffffffffffffffffffffffffff1673ffffffffffffffffffffffffffffffffffffffff16815260200190815260200160002081905550600d60008473ffffffffffffffffffffffffffffffffffffffff1673ffffffffffffffffffffffffffffffffffffffff16815260200190815260200160002054600d60008473ffffffffffffffffffffffffffffffffffffffff1673ffffffffffffffffffffffffffffffffffffffff168152602001908152602001600020819055506000600d60008573ffffffffffffffffffffffffffffffffffffffff1673ffffffffffffffffffffffffffffffffffffffff168152602001908152602001600020819055505b505050565b600c6020528060005260406000206000915090505481565b6000806002600084815260200190815260200160002060009054906101000a900473ffffffffffffffffffffffffffffffffffffffff169050600073ffffffffffffffffffffffffffffffffffffffff168173ffffffffffffffffffffffffffffffffffffffff16141561186e576040517f08c379a000000000000000000000000000000000000000000000000000000000815260040161186590614f3e565b60405180910390fd5b80915050919050565b600d6020528060005260406000206000915090505481565b60008073ffffffffffffffffffffffffffffffffffffffff168273ffffffffffffffffffffffffffffffffffffffff161415611900576040517f08c379a00000000000000000000000000000000000000000000000000000000081526004016118f790614f1e565b60405180910390fd5b600360008373ffffffffffffffffffffffffffffffffffffffff1673ffffffffffffffffffffffffffffffffffffffff168152602001908152602001600020549050919050565b60606002600754141561198f576040517f08c379a00000000000000000000000000000000000000000000000000000000081526004016119869061511e565b60405180910390fd5b60026007819055503373ffffffffffffffffffffffffffffffffffffffff168273ffffffffffffffffffffffffffffffffffffffff1614611a05576040517f08c379a00000000000000000000000000000000000000000000000000000000081526004016119fc90614efe565b60405180910390fd5b6000600b60008473ffffffffffffffffffffffffffffffffffffffff1673ffffffffffffffffffffffffffffffffffffffff16815260200190815260200160002054905060008114158015611a5a5750600481145b611a99576040517f08c379a0000000000000000000000000000000000000000000000000000000008152600401611a9090614fbe565b60405180910390fd5b6000611aa361141d565b90506101f3811015611adb57611ab98483612fea565b6040518060600160405280602881526020016156a56028913992505050611baf565b6001600b60008673ffffffffffffffffffffffffffffffffffffffff1673ffffffffffffffffffffffffffffffffffffffff16815260200190815260200160002054611b27919061522d565b600b60008673ffffffffffffffffffffffffffffffffffffffff1673ffffffffffffffffffffffffffffffffffffffff16815260200190815260200160002081905550611b74600a613081565b6040518060400160405280601f81526020017f436f6e67726174732c20796f7520737572766976656420726f756e6420342e00815250925050505b6001600781905550919050565b606060018054611bcb9061540a565b80601f0160208091040260200160405190810160405280929190818152602001828054611bf79061540a565b8015611c445780601f10611c1957610100808354040283529160200191611c44565b820191906000526020600020905b815481529060010190602001808311611c2757829003601f168201915b5050505050905090565b606060026007541415611c96576040517f08c379a0000000000000000000000000000000000000000000000000000000008152600401611c8d9061511e565b60405180910390fd5b60026007819055503373ffffffffffffffffffffffffffffffffffffffff168273ffffffffffffffffffffffffffffffffffffffff1614611d0c576040517f08c379a0000000000000000000000000000000000000000000000000000000008152600401611d0390614efe565b60405180910390fd5b6000600b60008473ffffffffffffffffffffffffffffffffffffffff1673ffffffffffffffffffffffffffffffffffffffff16815260200190815260200160002054905060008114158015611d615750600681145b611da0576040517f08c379a0000000000000000000000000000000000000000000000000000000008152600401611d9790614e9e565b60405180910390fd5b6000611daa61141d565b90506101f3811015611de257611dc08483612fea565b6040518060600160405280602881526020016156556028913992505050611eb6565b6001600b60008673ffffffffffffffffffffffffffffffffffffffff1673ffffffffffffffffffffffffffffffffffffffff16815260200190815260200160002054611e2e919061522d565b600b60008673ffffffffffffffffffffffffffffffffffffffff1673ffffffffffffffffffffffffffffffffffffffff16815260200190815260200160002081905550611e7b600a613081565b6040518060400160405280601f81526020017f436f6e67726174732c20796f7520737572766976656420726f756e6420362e00815250925050505b6001600781905550919050565b606060026007541415611f0b576040517f08c379a0000000000000000000000000000000000000000000000000000000008152600401611f029061511e565b60405180910390fd5b60026007819055503373ffffffffffffffffffffffffffffffffffffffff168273ffffffffffffffffffffffffffffffffffffffff1614611f81576040517f08c379a0000000000000000000000000000000000000000000000000000000008152600401611f7890614efe565b60405180910390fd5b6000600b60008473ffffffffffffffffffffffffffffffffffffffff1673ffffffffffffffffffffffffffffffffffffffff16815260200190815260200160002054905060008114158015611fd65750600581145b612015576040517f08c379a000000000000000000000000000000000000000000000000000000000815260040161200c906150be565b60405180910390fd5b600061201f61141d565b90506101f3811015612057576120358483612fea565b6040518060600160405280602881526020016156cd602891399250505061212b565b6001600b60008673ffffffffffffffffffffffffffffffffffffffff1673ffffffffffffffffffffffffffffffffffffffff168152602001908152602001600020546120a3919061522d565b600b60008673ffffffffffffffffffffffffffffffffffffffff1673ffffffffffffffffffffffffffffffffffffffff168152602001908152602001600020819055506120f0600a613081565b6040518060400160405280601f81526020017f436f6e67726174732c20796f7520737572766976656420726f756e6420352e00815250925050505b6001600781905550919050565b612140612f29565b73ffffffffffffffffffffffffffffffffffffffff168273ffffffffffffffffffffffffffffffffffffffff1614156121ae576040517f08c379a00000000000000000000000000000000000000000000000000000000081526004016121a590614e7e565b60405180910390fd5b80600560006121bb612f29565b73ffffffffffffffffffffffffffffffffffffffff1673ffffffffffffffffffffffffffffffffffffffff16815260200190815260200160002060008473ffffffffffffffffffffffffffffffffffffffff1673ffffffffffffffffffffffffffffffffffffffff16815260200190815260200160002060006101000a81548160ff0219169083151502179055508173ffffffffffffffffffffffffffffffffffffffff16612268612f29565b73ffffffffffffffffffffffffffffffffffffffff167f17307eab39ab6107e8899845ad3d59bd9653f200f220920489ca2b5937696c31836040516122ad9190614d61565b60405180910390a35050565b60606000600d60008473ffffffffffffffffffffffffffffffffffffffff1673ffffffffffffffffffffffffffffffffffffffff1681526020019081526020016000205490506000811415612343576040517f08c379a000000000000000000000000000000000000000000000000000000000815260040161233a90614f7e565b60405180910390fd5b61234c816125dc565b915050919050565b6000600b60008573ffffffffffffffffffffffffffffffffffffffff1673ffffffffffffffffffffffffffffffffffffffff168152602001908152602001600020541480156123e257506000600c60008573ffffffffffffffffffffffffffffffffffffffff1673ffffffffffffffffffffffffffffffffffffffff16815260200190815260200160002054145b6123eb57600080fd5b6123f784848484613125565b6000600b60008673ffffffffffffffffffffffffffffffffffffffff1673ffffffffffffffffffffffffffffffffffffffff1681526020019081526020016000205411156125d057600b60008573ffffffffffffffffffffffffffffffffffffffff1673ffffffffffffffffffffffffffffffffffffffff16815260200190815260200160002054600b60008573ffffffffffffffffffffffffffffffffffffffff1673ffffffffffffffffffffffffffffffffffffffff168152602001908152602001600020819055506000600b60008673ffffffffffffffffffffffffffffffffffffffff1673ffffffffffffffffffffffffffffffffffffffff16815260200190815260200160002081905550600d60008573ffffffffffffffffffffffffffffffffffffffff1673ffffffffffffffffffffffffffffffffffffffff16815260200190815260200160002054600d60008573ffffffffffffffffffffffffffffffffffffffff1673ffffffffffffffffffffffffffffffffffffffff168152602001908152602001600020819055506000600d60008673ffffffffffffffffffffffffffffffffffffffff1673ffffffffffffffffffffffffffffffffffffffff168152602001908152602001600020819055505b50505050565b6101c881565b60606125e782612ebd565b612626576040517f08c379a000000000000000000000000000000000000000000000000000000000815260040161261d90614ffe565b60405180910390fd5b60006006600084815260200190815260200160002080546126469061540a565b80601f01602080910402602001604051908101604052809291908181526020018280546126729061540a565b80156126bf5780601f10612694576101008083540402835291602001916126bf565b820191906000526020600020905b8154815290600101906020018083116126a257829003601f168201915b5050505050905060006126d0613187565b90506000815114156126e6578192505050612729565b60008251111561271b578082604051602001612703929190614cbb565b60405160208183030381529060405292505050612729565b6127248461319e565b925050505b919050565b606060026007541415612776576040517f08c379a000000000000000000000000000000000000000000000000000000000815260040161276d9061511e565b60405180910390fd5b60026007819055503373ffffffffffffffffffffffffffffffffffffffff168273ffffffffffffffffffffffffffffffffffffffff16146127ec576040517f08c379a00000000000000000000000000000000000000000000000000000000081526004016127e390614efe565b60405180910390fd5b6000600b60008473ffffffffffffffffffffffffffffffffffffffff1673ffffffffffffffffffffffffffffffffffffffff168152602001908152602001600020549050600081141580156128415750600181145b612880576040517f08c379a000000000000000000000000000000000000000000000000000000000815260040161287790614fde565b60405180910390fd5b600061288a61141d565b90506101f38110156128c2576128a08483612fea565b60405180606001604052806028815260200161562d602891399250505061298c565b6001600b60008673ffffffffffffffffffffffffffffffffffffffff1673ffffffffffffffffffffffffffffffffffffffff1681526020019081526020016000205461290e919061522d565b600b60008673ffffffffffffffffffffffffffffffffffffffff1673ffffffffffffffffffffffffffffffffffffffff168152602001908152602001600020819055506040518060400160405280601f81526020017f436f6e67726174732c20796f7520737572766976656420726f756e6420312e00815250925050505b6001600781905550919050565b6060600260075414156129e1576040517f08c379a00000000000000000000000000000000000000000000000000000000081526004016129d89061511e565b60405180910390fd5b60026007819055503373ffffffffffffffffffffffffffffffffffffffff168273ffffffffffffffffffffffffffffffffffffffff1614612a57576040517f08c379a0000000000000000000000000000000000000000000000000000000008152600401612a4e90614efe565b60405180910390fd5b6000600b60008473ffffffffffffffffffffffffffffffffffffffff1673ffffffffffffffffffffffffffffffffffffffff16815260200190815260200160002054905060008114158015612aac5750600281145b612aeb576040517f08c379a0000000000000000000000000000000000000000000000000000000008152600401612ae29061509e565b60405180910390fd5b6000612af561141d565b90506101f3811015612b2d57612b0b8483612fea565b60405180606001604052806028815260200161567d6028913992505050612bf7565b6001600b60008673ffffffffffffffffffffffffffffffffffffffff1673ffffffffffffffffffffffffffffffffffffffff16815260200190815260200160002054612b79919061522d565b600b60008673ffffffffffffffffffffffffffffffffffffffff1673ffffffffffffffffffffffffffffffffffffffff168152602001908152602001600020819055506040518060400160405280601f81526020017f436f6e67726174732c20796f7520737572766976656420726f756e6420322e00815250925050505b6001600781905550919050565b6000600560008473ffffffffffffffffffffffffffffffffffffffff1673ffffffffffffffffffffffffffffffffffffffff16815260200190815260200160002060008373ffffffffffffffffffffffffffffffffffffffff1673ffffffffffffffffffffffffffffffffffffffff16815260200190815260200160002060009054906101000a900460ff16905092915050565b60006101c8612ca760086130f7565b10612ce7576040517f08c379a0000000000000000000000000000000000000000000000000000000008152600401612cde906150fe565b60405180910390fd5b6000600b60008573ffffffffffffffffffffffffffffffffffffffff1673ffffffffffffffffffffffffffffffffffffffff16815260200190815260200160002054148015612d7557506000600c60008573ffffffffffffffffffffffffffffffffffffffff1673ffffffffffffffffffffffffffffffffffffffff16815260200190815260200160002054145b612d7e57600080fd5b612d886008613081565b612d926009613081565b6000612d9e60086130f7565b9050612daa8482613245565b612db48184613263565b6001600b60008673ffffffffffffffffffffffffffffffffffffffff1673ffffffffffffffffffffffffffffffffffffffff1681526020019081526020016000208190555080600d60008673ffffffffffffffffffffffffffffffffffffffff1673ffffffffffffffffffffffffffffffffffffffff168152602001908152602001600020819055508091505092915050565b600a8060000154905081565b60007f01ffc9a7000000000000000000000000000000000000000000000000000000007bffffffffffffffffffffffffffffffffffffffffffffffffffffffff1916827bffffffffffffffffffffffffffffffffffffffffffffffffffffffff1916149050919050565b60008073ffffffffffffffffffffffffffffffffffffffff166002600084815260200190815260200160002060009054906101000a900473ffffffffffffffffffffffffffffffffffffffff1673ffffffffffffffffffffffffffffffffffffffff1614159050919050565b600033905090565b816004600083815260200190815260200160002060006101000a81548173ffffffffffffffffffffffffffffffffffffffff021916908373ffffffffffffffffffffffffffffffffffffffff160217905550808273ffffffffffffffffffffffffffffffffffffffff16612fa4836117c5565b73ffffffffffffffffffffffffffffffffffffffff167f8c5be1e5ebec7d5bd14f71427d1e84f3dd0314c0f7b2291e5b200ac8c7c3b92560405160405180910390a45050565b6000600b60008473ffffffffffffffffffffffffffffffffffffffff1673ffffffffffffffffffffffffffffffffffffffff1681526020019081526020016000208190555080600c60008473ffffffffffffffffffffffffffffffffffffffff1673ffffffffffffffffffffffffffffffffffffffff1681526020019081526020016000208190555061307d60096132d7565b5050565b6001816000016000828254019250508190555050565b6130a86130a2612f29565b82613333565b6130e7576040517f08c379a00000000000000000000000000000000000000000000000000000000081526004016130de906150de565b60405180910390fd5b6130f2838383613411565b505050565b600081600001549050919050565b61312083838360405180602001604052806000815250612354565b505050565b613136613130612f29565b83613333565b613175576040517f08c379a000000000000000000000000000000000000000000000000000000000815260040161316c906150de565b60405180910390fd5b6131818484848461366d565b50505050565b606060405180602001604052806000815250905090565b60606131a982612ebd565b6131e8576040517f08c379a00000000000000000000000000000000000000000000000000000000081526004016131df9061505e565b60405180910390fd5b60006131f2613187565b90506000815111613212576040518060200160405280600081525061323d565b8061321c846136c9565b60405160200161322d929190614cbb565b6040516020818303038152906040525b915050919050565b61325f828260405180602001604052806000815250613876565b5050565b61326c82612ebd565b6132ab576040517f08c379a00000000000000000000000000000000000000000000000000000000081526004016132a290614f5e565b60405180910390fd5b806006600084815260200190815260200160002090805190602001906132d2929190613c4e565b505050565b60008160000154905060008111613323576040517f08c379a000000000000000000000000000000000000000000000000000000000815260040161331a90614dde565b60405180910390fd5b6001810382600001819055505050565b600061333e82612ebd565b61337d576040517f08c379a000000000000000000000000000000000000000000000000000000000815260040161337490614ebe565b60405180910390fd5b6000613388836117c5565b90508073ffffffffffffffffffffffffffffffffffffffff168473ffffffffffffffffffffffffffffffffffffffff1614806133f757508373ffffffffffffffffffffffffffffffffffffffff166133df846109b8565b73ffffffffffffffffffffffffffffffffffffffff16145b8061340857506134078185612c04565b5b91505092915050565b8273ffffffffffffffffffffffffffffffffffffffff16613431826117c5565b73ffffffffffffffffffffffffffffffffffffffff1614613487576040517f08c379a000000000000000000000000000000000000000000000000000000000815260040161347e9061503e565b60405180910390fd5b600073ffffffffffffffffffffffffffffffffffffffff168273ffffffffffffffffffffffffffffffffffffffff1614156134f7576040517f08c379a00000000000000000000000000000000000000000000000000000000081526004016134ee90614e5e565b60405180910390fd5b6135028383836138d1565b61350d600082612f31565b6001600360008573ffffffffffffffffffffffffffffffffffffffff1673ffffffffffffffffffffffffffffffffffffffff168152602001908152602001600020600082825461355d919061530e565b925050819055506001600360008473ffffffffffffffffffffffffffffffffffffffff1673ffffffffffffffffffffffffffffffffffffffff16815260200190815260200160002060008282546135b4919061522d565b92505081905550816002600083815260200190815260200160002060006101000a81548173ffffffffffffffffffffffffffffffffffffffff021916908373ffffffffffffffffffffffffffffffffffffffff160217905550808273ffffffffffffffffffffffffffffffffffffffff168473ffffffffffffffffffffffffffffffffffffffff167fddf252ad1be2c89b69c2b068fc378daa952ba7f163c4a11628f55a4df523b3ef60405160405180910390a4505050565b613678848484613411565b613684848484846138d6565b6136c3576040517f08c379a00000000000000000000000000000000000000000000000000000000081526004016136ba90614dfe565b60405180910390fd5b50505050565b60606000821415613711576040518060400160405280600181526020017f30000000000000000000000000000000000000000000000000000000000000008152509050613871565b600082905060005b6000821461374357808061372c9061543c565b915050600a8261373c9190615283565b9150613719565b60008167ffffffffffffffff811115613785577f4e487b7100000000000000000000000000000000000000000000000000000000600052604160045260246000fd5b6040519080825280601f01601f1916602001820160405280156137b75781602001600182028036833780820191505090505b5090505b6000851461386a576001826137d0919061530e565b9150600a856137df91906154c5565b60306137eb919061522d565b60f81b818381518110613827577f4e487b7100000000000000000000000000000000000000000000000000000000600052603260045260246000fd5b60200101907effffffffffffffffffffffffffffffffffffffffffffffffffffffffffffff1916908160001a905350600a856138639190615283565b94506137bb565b8093505050505b919050565b6138808383613a6d565b61388d60008484846138d6565b6138cc576040517f08c379a00000000000000000000000000000000000000000000000000000000081526004016138c390614dfe565b60405180910390fd5b505050565b505050565b60006138f78473ffffffffffffffffffffffffffffffffffffffff16613c3b565b15613a60578373ffffffffffffffffffffffffffffffffffffffff1663150b7a02613920612f29565b8786866040518563ffffffff1660e01b81526004016139429493929190614d15565b602060405180830381600087803b15801561395c57600080fd5b505af192505050801561398d57506040513d601f19601f8201168201806040525081019061398a919061404e565b60015b613a10573d80600081146139bd576040519150601f19603f3d011682016040523d82523d6000602084013e6139c2565b606091505b50600081511415613a08576040517f08c379a00000000000000000000000000000000000000000000000000000000081526004016139ff90614dfe565b60405180910390fd5b805181602001fd5b63150b7a0260e01b7bffffffffffffffffffffffffffffffffffffffffffffffffffffffff1916817bffffffffffffffffffffffffffffffffffffffffffffffffffffffff191614915050613a65565b600190505b949350505050565b600073ffffffffffffffffffffffffffffffffffffffff168273ffffffffffffffffffffffffffffffffffffffff161415613add576040517f08c379a0000000000000000000000000000000000000000000000000000000008152600401613ad490614f9e565b60405180910390fd5b613ae681612ebd565b15613b26576040517f08c379a0000000000000000000000000000000000000000000000000000000008152600401613b1d90614e3e565b60405180910390fd5b613b32600083836138d1565b6001600360008473ffffffffffffffffffffffffffffffffffffffff1673ffffffffffffffffffffffffffffffffffffffff1681526020019081526020016000206000828254613b82919061522d565b92505081905550816002600083815260200190815260200160002060006101000a81548173ffffffffffffffffffffffffffffffffffffffff021916908373ffffffffffffffffffffffffffffffffffffffff160217905550808273ffffffffffffffffffffffffffffffffffffffff16600073ffffffffffffffffffffffffffffffffffffffff167fddf252ad1be2c89b69c2b068fc378daa952ba7f163c4a11628f55a4df523b3ef60405160405180910390a45050565b600080823b905060008111915050919050565b828054613c5a9061540a565b90600052602060002090601f016020900481019282613c7c5760008555613cc3565b82601f10613c9557805160ff1916838001178555613cc3565b82800160010185558215613cc3579182015b82811115613cc2578251825591602001919060010190613ca7565b5b509050613cd09190613cd4565b5090565b5b80821115613ced576000816000905550600101613cd5565b5090565b6000613d04613cff8461518a565b615159565b905082815260208101848484011115613d1c57600080fd5b613d278482856153c8565b509392505050565b6000613d42613d3d846151ba565b615159565b905082815260208101848484011115613d5a57600080fd5b613d658482856153c8565b509392505050565b600081359050613d7c816155d0565b92915050565b600081359050613d91816155e7565b92915050565b600081359050613da6816155fe565b92915050565b600081519050613dbb816155fe565b92915050565b600082601f830112613dd257600080fd5b8135613de2848260208601613cf1565b91505092915050565b600082601f830112613dfc57600080fd5b8135613e0c848260208601613d2f565b91505092915050565b600081359050613e2481615615565b92915050565b600060208284031215613e3c57600080fd5b6000613e4a84828501613d6d565b91505092915050565b60008060408385031215613e6657600080fd5b6000613e7485828601613d6d565b9250506020613e8585828601613d6d565b9150509250929050565b600080600060608486031215613ea457600080fd5b6000613eb286828701613d6d565b9350506020613ec386828701613d6d565b9250506040613ed486828701613e15565b9150509250925092565b60008060008060808587031215613ef457600080fd5b6000613f0287828801613d6d565b9450506020613f1387828801613d6d565b9350506040613f2487828801613e15565b925050606085013567ffffffffffffffff811115613f4157600080fd5b613f4d87828801613dc1565b91505092959194509250565b60008060408385031215613f6c57600080fd5b6000613f7a85828601613d6d565b9250506020613f8b85828601613d82565b9150509250929050565b60008060408385031215613fa857600080fd5b6000613fb685828601613d6d565b925050602083013567ffffffffffffffff811115613fd357600080fd5b613fdf85828601613deb565b9150509250929050565b60008060408385031215613ffc57600080fd5b600061400a85828601613d6d565b925050602061401b85828601613e15565b9150509250929050565b60006020828403121561403757600080fd5b600061404584828501613d97565b91505092915050565b60006020828403121561406057600080fd5b600061406e84828501613dac565b91505092915050565b60006020828403121561408957600080fd5b600061409784828501613e15565b91505092915050565b6140b16140ac82615354565b615497565b82525050565b6140c081615342565b82525050565b6140d76140d282615342565b615485565b82525050565b6140e681615366565b82525050565b60006140f7826151ea565b6141018185615200565b93506141118185602086016153d7565b61411a816155b2565b840191505092915050565b6000614130826151f5565b61413a8185615211565b935061414a8185602086016153d7565b614153816155b2565b840191505092915050565b6000614169826151f5565b6141738185615222565b93506141838185602086016153d7565b80840191505092915050565b600061419c603983615211565b91507f4d757374206265206120706c61796572207769746820616e204e46542074686160008301527f74277320616c69766520616e6420696e20726f756e64203321000000000000006020830152604082019050919050565b6000614202604283615211565b91507f4d757374206265206120706c61796572207769746820616e204e46542074686160008301527f74277320616c69766520616e642070617373656420616c6c203320726f756e6460208301527f73210000000000000000000000000000000000000000000000000000000000006040830152606082019050919050565b600061428e601b83615211565b91507f436f756e7465723a2064656372656d656e74206f766572666c6f7700000000006000830152602082019050919050565b60006142ce603283615211565b91507f4552433732313a207472616e7366657220746f206e6f6e20455243373231526560008301527f63656976657220696d706c656d656e74657200000000000000000000000000006020830152604082019050919050565b6000614334602083615211565b91507f596f7520617265206e6f74207468652077696e6e657220746869732074696d656000830152602082019050919050565b6000614374601c83615211565b91507f4552433732313a20746f6b656e20616c7265616479206d696e746564000000006000830152602082019050919050565b60006143b4602483615211565b91507f4552433732313a207472616e7366657220746f20746865207a65726f2061646460008301527f72657373000000000000000000000000000000000000000000000000000000006020830152604082019050919050565b600061441a601983615211565b91507f4552433732313a20617070726f766520746f2063616c6c6572000000000000006000830152602082019050919050565b600061445a603983615211565b91507f4d757374206265206120706c61796572207769746820616e204e46542074686160008301527f74277320616c69766520616e6420696e20726f756e64203621000000000000006020830152604082019050919050565b60006144c0602c83615211565b91507f4552433732313a206f70657261746f7220717565727920666f72206e6f6e657860008301527f697374656e7420746f6b656e00000000000000000000000000000000000000006020830152604082019050919050565b6000614526603883615211565b91507f4552433732313a20617070726f76652063616c6c6572206973206e6f74206f7760008301527f6e6572206e6f7220617070726f76656420666f7220616c6c00000000000000006020830152604082019050919050565b600061458c603483615211565b91507f4974207365656d73206c696b6520796f7520617265206e6f7420746865206f7760008301527f6e6572206f66207468697320746f6b656e2e2e2e0000000000000000000000006020830152604082019050919050565b60006145f2602a83615211565b91507f4552433732313a2062616c616e636520717565727920666f7220746865207a6560008301527f726f2061646472657373000000000000000000000000000000000000000000006020830152604082019050919050565b6000614658602983615211565b91507f4552433732313a206f776e657220717565727920666f72206e6f6e657869737460008301527f656e7420746f6b656e00000000000000000000000000000000000000000000006020830152604082019050919050565b60006146be602e83615211565b91507f45524337323155524953746f726167653a2055524920736574206f66206e6f6e60008301527f6578697374656e7420746f6b656e0000000000000000000000000000000000006020830152604082019050919050565b6000614724602283615211565b91507f596f7572206164647265737320646f6573206e6f742068617665206120746f6b60008301527f656e0000000000000000000000000000000000000000000000000000000000006020830152604082019050919050565b600061478a602083615211565b91507f4552433732313a206d696e7420746f20746865207a65726f20616464726573736000830152602082019050919050565b60006147ca603983615211565b91507f4d757374206265206120706c61796572207769746820616e204e46542074686160008301527f74277320616c69766520616e6420696e20726f756e64203421000000000000006020830152604082019050919050565b6000614830603983615211565b91507f4d757374206265206120706c61796572207769746820616e204e46542074686160008301527f74277320616c69766520616e6420696e20726f756e64203121000000000000006020830152604082019050919050565b6000614896603183615211565b91507f45524337323155524953746f726167653a2055524920717565727920666f722060008301527f6e6f6e6578697374656e7420746f6b656e0000000000000000000000000000006020830152604082019050919050565b60006148fc602c83615211565b91507f4552433732313a20617070726f76656420717565727920666f72206e6f6e657860008301527f697374656e7420746f6b656e00000000000000000000000000000000000000006020830152604082019050919050565b6000614962602983615211565b91507f4552433732313a207472616e73666572206f6620746f6b656e2074686174206960008301527f73206e6f74206f776e00000000000000000000000000000000000000000000006020830152604082019050919050565b60006149c8602f83615211565b91507f4552433732314d657461646174613a2055524920717565727920666f72206e6f60008301527f6e6578697374656e7420746f6b656e00000000000000000000000000000000006020830152604082019050919050565b6000614a2e602183615211565b91507f4552433732313a20617070726f76616c20746f2063757272656e74206f776e6560008301527f72000000000000000000000000000000000000000000000000000000000000006020830152604082019050919050565b6000614a94603983615211565b91507f4d757374206265206120706c61796572207769746820616e204e46542074686160008301527f74277320616c69766520616e6420696e20726f756e64203221000000000000006020830152604082019050919050565b6000614afa603983615211565b91507f4d757374206265206120706c61796572207769746820616e204e46542074686160008301527f74277320616c69766520616e6420696e20726f756e64203521000000000000006020830152604082019050919050565b6000614b60603183615211565b91507f4552433732313a207472616e736665722063616c6c6572206973206e6f74206f60008301527f776e6572206e6f7220617070726f7665640000000000000000000000000000006020830152604082019050919050565b6000614bc6603e83615211565b91507f57652068617665207265616368656420746865206d6178206e756d626572206f60008301527f6620706c61796572732c2074727920616761696e206e6578742074696d6500006020830152604082019050919050565b6000614c2c601f83615211565b91507f5265656e7472616e637947756172643a207265656e7472616e742063616c6c006000830152602082019050919050565b614c68816153be565b82525050565b614c7f614c7a826153be565b6154bb565b82525050565b6000614c9182846140c6565b60148201915081905092915050565b6000614cac82846140a0565b60148201915081905092915050565b6000614cc7828561415e565b9150614cd3828461415e565b91508190509392505050565b6000614ceb8284614c6e565b60208201915081905092915050565b6000602082019050614d0f60008301846140b7565b92915050565b6000608082019050614d2a60008301876140b7565b614d3760208301866140b7565b614d446040830185614c5f565b8181036060830152614d5681846140ec565b905095945050505050565b6000602082019050614d7660008301846140dd565b92915050565b60006020820190508181036000830152614d968184614125565b905092915050565b60006020820190508181036000830152614db78161418f565b9050919050565b60006020820190508181036000830152614dd7816141f5565b9050919050565b60006020820190508181036000830152614df781614281565b9050919050565b60006020820190508181036000830152614e17816142c1565b9050919050565b60006020820190508181036000830152614e3781614327565b9050919050565b60006020820190508181036000830152614e5781614367565b9050919050565b60006020820190508181036000830152614e77816143a7565b9050919050565b60006020820190508181036000830152614e978161440d565b9050919050565b60006020820190508181036000830152614eb78161444d565b9050919050565b60006020820190508181036000830152614ed7816144b3565b9050919050565b60006020820190508181036000830152614ef781614519565b9050919050565b60006020820190508181036000830152614f178161457f565b9050919050565b60006020820190508181036000830152614f37816145e5565b9050919050565b60006020820190508181036000830152614f578161464b565b9050919050565b60006020820190508181036000830152614f77816146b1565b9050919050565b60006020820190508181036000830152614f9781614717565b9050919050565b60006020820190508181036000830152614fb78161477d565b9050919050565b60006020820190508181036000830152614fd7816147bd565b9050919050565b60006020820190508181036000830152614ff781614823565b9050919050565b6000602082019050818103600083015261501781614889565b9050919050565b60006020820190508181036000830152615037816148ef565b9050919050565b6000602082019050818103600083015261505781614955565b9050919050565b60006020820190508181036000830152615077816149bb565b9050919050565b6000602082019050818103600083015261509781614a21565b9050919050565b600060208201905081810360008301526150b781614a87565b9050919050565b600060208201905081810360008301526150d781614aed565b9050919050565b600060208201905081810360008301526150f781614b53565b9050919050565b6000602082019050818103600083015261511781614bb9565b9050919050565b6000602082019050818103600083015261513781614c1f565b9050919050565b60006020820190506151536000830184614c5f565b92915050565b6000604051905081810181811067ffffffffffffffff821117156151805761517f615583565b5b8060405250919050565b600067ffffffffffffffff8211156151a5576151a4615583565b5b601f19601f8301169050602081019050919050565b600067ffffffffffffffff8211156151d5576151d4615583565b5b601f19601f8301169050602081019050919050565b600081519050919050565b600081519050919050565b600082825260208201905092915050565b600082825260208201905092915050565b600081905092915050565b6000615238826153be565b9150615243836153be565b9250827fffffffffffffffffffffffffffffffffffffffffffffffffffffffffffffffff03821115615278576152776154f6565b5b828201905092915050565b600061528e826153be565b9150615299836153be565b9250826152a9576152a8615525565b5b828204905092915050565b60006152bf826153be565b91506152ca836153be565b9250817fffffffffffffffffffffffffffffffffffffffffffffffffffffffffffffffff0483118215151615615303576153026154f6565b5b828202905092915050565b6000615319826153be565b9150615324836153be565b925082821015615337576153366154f6565b5b828203905092915050565b600061534d8261539e565b9050919050565b600061535f8261539e565b9050919050565b60008115159050919050565b60007fffffffff0000000000000000000000000000000000000000000000000000000082169050919050565b600073ffffffffffffffffffffffffffffffffffffffff82169050919050565b6000819050919050565b82818337600083830152505050565b60005b838110156153f55780820151818401526020810190506153da565b83811115615404576000848401525b50505050565b6000600282049050600182168061542257607f821691505b6020821081141561543657615435615554565b5b50919050565b6000615447826153be565b91507fffffffffffffffffffffffffffffffffffffffffffffffffffffffffffffffff82141561547a576154796154f6565b5b600182019050919050565b6000615490826154a9565b9050919050565b60006154a2826154a9565b9050919050565b60006154b4826155c3565b9050919050565b6000819050919050565b60006154d0826153be565b91506154db836153be565b9250826154eb576154ea615525565b5b828206905092915050565b7f4e487b7100000000000000000000000000000000000000000000000000000000600052601160045260246000fd5b7f4e487b7100000000000000000000000000000000000000000000000000000000600052601260045260246000fd5b7f4e487b7100000000000000000000000000000000000000000000000000000000600052602260045260246000fd5b7f4e487b7100000000000000000000000000000000000000000000000000000000600052604160045260246000fd5b6000601f19601f8301169050919050565b60008160601b9050919050565b6155d981615342565b81146155e457600080fd5b50565b6155f081615366565b81146155fb57600080fd5b50565b61560781615372565b811461561257600080fd5b50565b61561e816153be565b811461562957600080fd5b5056fe536f7272792c20796f75207765726520656c696d696e617465642066726f6d20726f756e6420312e536f7272792c20796f75207765726520656c696d696e617465642066726f6d20726f756e6420362e536f7272792c20796f75207765726520656c696d696e617465642066726f6d20726f756e6420322e536f7272792c20796f75207765726520656c696d696e617465642066726f6d20726f756e6420342e536f7272792c20796f75207765726520656c696d696e617465642066726f6d20726f756e6420352e536f7272792c20796f75207765726520656c696d696e617465642066726f6d20726f756e6420332ea26469706673582212208b89c0ec5223a75c2980b198fb1d8d4cce3f26d374504ed4582bbd898d29922664736f6c63430008000033",
  "linkReferences": {},
  "deployedLinkReferences": {}
}