{
  "_format": "hh-sol-artifact-1",
  "contractName": "OctopusFun",
  "sourceName": "contracts/OctopusFun.sol",
  "abi": [
    {
      "inputs": [],
      "stateMutability": "nonpayable",
      "type": "constructor"
    },
    {
      "anonymous": false,
      "inputs": [
        {
          "indexed": true,
          "internalType": "address",
          "name": "owner",
          "type": "address"
        },
        {
          "indexed": true,
          "internalType": "address",
          "name": "approved",
          "type": "address"
        },
        {
          "indexed": true,
          "internalType": "uint256",
          "name": "tokenId",
          "type": "uint256"
        }
      ],
      "name": "Approval",
      "type": "event"
    },
    {
      "anonymous": false,
      "inputs": [
        {
          "indexed": true,
          "internalType": "address",
          "name": "owner",
          "type": "address"
        },
        {
          "indexed": true,
          "internalType": "address",
          "name": "operator",
          "type": "address"
        },
        {
          "indexed": false,
          "internalType": "bool",
          "name": "approved",
          "type": "bool"
        }
      ],
      "name": "ApprovalForAll",
      "type": "event"
    },
    {
      "anonymous": false,
      "inputs": [
        {
          "indexed": true,
          "internalType": "address",
          "name": "from",
          "type": "address"
        },
        {
          "indexed": true,
          "internalType": "address",
          "name": "to",
          "type": "address"
        },
        {
          "indexed": true,
          "internalType": "uint256",
          "name": "tokenId",
          "type": "uint256"
        }
      ],
      "name": "Transfer",
      "type": "event"
    },
    {
      "inputs": [],
      "name": "COST_TO_MINT",
      "outputs": [
        {
          "internalType": "uint256",
          "name": "",
          "type": "uint256"
        }
      ],
      "stateMutability": "view",
      "type": "function"
    },
    {
      "inputs": [],
      "name": "MAX_OCTOPUS_FUN_TOKENS",
      "outputs": [
        {
          "internalType": "uint256",
          "name": "",
          "type": "uint256"
        }
      ],
      "stateMutability": "view",
      "type": "function"
    },
    {
      "inputs": [],
      "name": "aliveNFTCount",
      "outputs": [
        {
          "internalType": "uint256",
          "name": "_value",
          "type": "uint256"
        }
      ],
      "stateMutability": "view",
      "type": "function"
    },
    {
      "inputs": [
        {
          "internalType": "address",
          "name": "",
          "type": "address"
        }
      ],
      "name": "aliveNFTs",
      "outputs": [
        {
          "internalType": "uint256",
          "name": "",
          "type": "uint256"
        }
      ],
      "stateMutability": "view",
      "type": "function"
    },
    {
      "inputs": [
        {
          "internalType": "address",
          "name": "to",
          "type": "address"
        },
        {
          "internalType": "uint256",
          "name": "tokenId",
          "type": "uint256"
        }
      ],
      "name": "approve",
      "outputs": [],
      "stateMutability": "nonpayable",
      "type": "function"
    },
    {
      "inputs": [
        {
          "internalType": "address",
          "name": "owner",
          "type": "address"
        }
      ],
      "name": "balanceOf",
      "outputs": [
        {
          "internalType": "uint256",
          "name": "",
          "type": "uint256"
        }
      ],
      "stateMutability": "view",
      "type": "function"
    },
    {
      "inputs": [
        {
          "internalType": "address",
          "name": "player",
          "type": "address"
        },
        {
          "internalType": "uint256",
          "name": "tokenId",
          "type": "uint256"
        }
      ],
      "name": "checkIfWinnerAndPayout",
      "outputs": [
        {
          "internalType": "string",
          "name": "",
          "type": "string"
        }
      ],
      "stateMutability": "payable",
      "type": "function"
    },
    {
      "inputs": [
        {
          "internalType": "address",
          "name": "",
          "type": "address"
        }
      ],
      "name": "deadNFTs",
      "outputs": [
        {
          "internalType": "uint256",
          "name": "",
          "type": "uint256"
        }
      ],
      "stateMutability": "view",
      "type": "function"
    },
    {
      "inputs": [
        {
          "internalType": "uint256",
          "name": "tokenId",
          "type": "uint256"
        }
      ],
      "name": "getApproved",
      "outputs": [
        {
          "internalType": "address",
          "name": "",
          "type": "address"
        }
      ],
      "stateMutability": "view",
      "type": "function"
    },
    {
      "inputs": [
        {
          "internalType": "address",
          "name": "owner",
          "type": "address"
        },
        {
          "internalType": "address",
          "name": "operator",
          "type": "address"
        }
      ],
      "name": "isApprovedForAll",
      "outputs": [
        {
          "internalType": "bool",
          "name": "",
          "type": "bool"
        }
      ],
      "stateMutability": "view",
      "type": "function"
    },
    {
      "inputs": [],
      "name": "lastRoundAliveNFTCount",
      "outputs": [
        {
          "internalType": "uint256",
          "name": "_value",
          "type": "uint256"
        }
      ],
      "stateMutability": "view",
      "type": "function"
    },
    {
      "inputs": [
        {
          "internalType": "address",
          "name": "recipient",
          "type": "address"
        },
        {
          "internalType": "string",
          "name": "tokenURI",
          "type": "string"
        }
      ],
      "name": "mintNFT",
      "outputs": [
        {
          "internalType": "uint256",
          "name": "",
          "type": "uint256"
        }
      ],
      "stateMutability": "payable",
      "type": "function"
    },
    {
      "inputs": [],
      "name": "name",
      "outputs": [
        {
          "internalType": "string",
          "name": "",
          "type": "string"
        }
      ],
      "stateMutability": "view",
      "type": "function"
    },
    {
      "inputs": [
        {
          "internalType": "uint256",
          "name": "tokenId",
          "type": "uint256"
        }
      ],
      "name": "ownerOf",
      "outputs": [
        {
          "internalType": "address",
          "name": "",
          "type": "address"
        }
      ],
      "stateMutability": "view",
      "type": "function"
    },
    {
      "inputs": [
        {
          "internalType": "address",
          "name": "player",
          "type": "address"
        },
        {
          "internalType": "uint256",
          "name": "tokenId",
          "type": "uint256"
        }
      ],
      "name": "playRound1",
      "outputs": [
        {
          "internalType": "string",
          "name": "",
          "type": "string"
        }
      ],
      "stateMutability": "nonpayable",
      "type": "function"
    },
    {
      "inputs": [
        {
          "internalType": "address",
          "name": "player",
          "type": "address"
        },
        {
          "internalType": "uint256",
          "name": "tokenId",
          "type": "uint256"
        }
      ],
      "name": "playRound2",
      "outputs": [
        {
          "internalType": "string",
          "name": "",
          "type": "string"
        }
      ],
      "stateMutability": "nonpayable",
      "type": "function"
    },
    {
      "inputs": [
        {
          "internalType": "address",
          "name": "player",
          "type": "address"
        },
        {
          "internalType": "uint256",
          "name": "tokenId",
          "type": "uint256"
        }
      ],
      "name": "playRound3",
      "outputs": [
        {
          "internalType": "string",
          "name": "",
          "type": "string"
        }
      ],
      "stateMutability": "nonpayable",
      "type": "function"
    },
    {
      "inputs": [],
      "name": "rand",
      "outputs": [
        {
          "internalType": "uint256",
          "name": "",
          "type": "uint256"
        }
      ],
      "stateMutability": "view",
      "type": "function"
    },
    {
      "inputs": [
        {
          "internalType": "address",
          "name": "from",
          "type": "address"
        },
        {
          "internalType": "address",
          "name": "to",
          "type": "address"
        },
        {
          "internalType": "uint256",
          "name": "tokenId",
          "type": "uint256"
        }
      ],
      "name": "safeTransferFrom",
      "outputs": [],
      "stateMutability": "nonpayable",
      "type": "function"
    },
    {
      "inputs": [
        {
          "internalType": "address",
          "name": "from",
          "type": "address"
        },
        {
          "internalType": "address",
          "name": "to",
          "type": "address"
        },
        {
          "internalType": "uint256",
          "name": "tokenId",
          "type": "uint256"
        },
        {
          "internalType": "bytes",
          "name": "data",
          "type": "bytes"
        }
      ],
      "name": "safeTransferFrom",
      "outputs": [],
      "stateMutability": "nonpayable",
      "type": "function"
    },
    {
      "inputs": [
        {
          "internalType": "address",
          "name": "operator",
          "type": "address"
        },
        {
          "internalType": "bool",
          "name": "approved",
          "type": "bool"
        }
      ],
      "name": "setApprovalForAll",
      "outputs": [],
      "stateMutability": "nonpayable",
      "type": "function"
    },
    {
      "inputs": [
        {
          "internalType": "bytes4",
          "name": "interfaceId",
          "type": "bytes4"
        }
      ],
      "name": "supportsInterface",
      "outputs": [
        {
          "internalType": "bool",
          "name": "",
          "type": "bool"
        }
      ],
      "stateMutability": "view",
      "type": "function"
    },
    {
      "inputs": [],
      "name": "symbol",
      "outputs": [
        {
          "internalType": "string",
          "name": "",
          "type": "string"
        }
      ],
      "stateMutability": "view",
      "type": "function"
    },
    {
      "inputs": [
        {
          "internalType": "uint256",
          "name": "tokenId",
          "type": "uint256"
        }
      ],
      "name": "tokenURI",
      "outputs": [
        {
          "internalType": "string",
          "name": "",
          "type": "string"
        }
      ],
      "stateMutability": "view",
      "type": "function"
    },
    {
      "inputs": [
        {
          "internalType": "address",
          "name": "from",
          "type": "address"
        },
        {
          "internalType": "address",
          "name": "to",
          "type": "address"
        },
        {
          "internalType": "uint256",
          "name": "tokenId",
          "type": "uint256"
        }
      ],
      "name": "transferFrom",
      "outputs": [],
      "stateMutability": "nonpayable",
      "type": "function"
    }
  ],
  "bytecode": "0x60806040523480156200001157600080fd5b506040518060400160405280600a81526020017f4f63746f70757346756e000000000000000000000000000000000000000000008152506040518060400160405280600381526020017f4f43460000000000000000000000000000000000000000000000000000000000815250816000908051906020019062000096929190620000c0565b508060019080519060200190620000af929190620000c0565b5050506001600781905550620001d5565b828054620000ce9062000170565b90600052602060002090601f016020900481019282620000f257600085556200013e565b82601f106200010d57805160ff19168380011785556200013e565b828001600101855582156200013e579182015b828111156200013d57825182559160200191906001019062000120565b5b5090506200014d919062000151565b5090565b5b808211156200016c57600081600090555060010162000152565b5090565b600060028204905060018216806200018957607f821691505b60208210811415620001a0576200019f620001a6565b5b50919050565b7f4e487b7100000000000000000000000000000000000000000000000000000000600052602260045260246000fd5b614a0e80620001e56000396000f3fe6080604052600436106101665760003560e01c80636352211e116100d1578063bdac42341161008a578063dceb826911610064578063dceb82691461058f578063e985e9c5146105cc578063eacabe1414610609578063fbeae8fc1461063957610166565b8063bdac4234146104ea578063c87b56dd14610515578063d43fa5401461055257610166565b80636352211e146103b657806370a08231146103f357806395d89b4114610430578063a056d0881461045b578063a22cb46514610498578063b88d4fde146104c157610166565b806333d092a61161012357806333d092a61461028d57806338ee7730146102b85780633b3dca76146102e857806341a0eded1461031357806342842e0e146103505780634afad5c21461037957610166565b806301ffc9a71461016b57806306fdde03146101a8578063081812fc146101d3578063095ea7b31461021057806323b872dd1461023957806325383d1714610262575b600080fd5b34801561017757600080fd5b50610192600480360381019061018d9190613511565b610664565b60405161019f91906140f5565b60405180910390f35b3480156101b457600080fd5b506101bd610746565b6040516101ca9190614110565b60405180910390f35b3480156101df57600080fd5b506101fa60048036038101906101f59190613563565b6107d8565b604051610207919061408e565b60405180910390f35b34801561021c57600080fd5b50610237600480360381019061023291906134d5565b61085d565b005b34801561024557600080fd5b50610260600480360381019061025b919061337b565b610975565b005b34801561026e57600080fd5b50610277610b2d565b6040516102849190614472565b60405180910390f35b34801561029957600080fd5b506102a2610b39565b6040516102af9190614472565b60405180910390f35b6102d260048036038101906102cd91906134d5565b610b45565b6040516102df9190614110565b60405180910390f35b3480156102f457600080fd5b506102fd610eb5565b60405161030a9190614472565b60405180910390f35b34801561031f57600080fd5b5061033a60048036038101906103359190613316565b610fad565b6040516103479190614472565b60405180910390f35b34801561035c57600080fd5b506103776004803603810190610372919061337b565b610fc5565b005b34801561038557600080fd5b506103a0600480360381019061039b9190613316565b61117d565b6040516103ad9190614472565b60405180910390f35b3480156103c257600080fd5b506103dd60048036038101906103d89190613563565b611195565b6040516103ea919061408e565b60405180910390f35b3480156103ff57600080fd5b5061041a60048036038101906104159190613316565b611247565b6040516104279190614472565b60405180910390f35b34801561043c57600080fd5b506104456112ff565b6040516104529190614110565b60405180910390f35b34801561046757600080fd5b50610482600480360381019061047d91906134d5565b611391565b60405161048f9190614110565b60405180910390f35b3480156104a457600080fd5b506104bf60048036038101906104ba9190613445565b61167a565b005b3480156104cd57600080fd5b506104e860048036038101906104e391906133ca565b6117fb565b005b3480156104f657600080fd5b506104ff6119b5565b60405161050c9190614472565b60405180910390f35b34801561052157600080fd5b5061053c60048036038101906105379190613563565b6119bb565b6040516105499190614110565b60405180910390f35b34801561055e57600080fd5b50610579600480360381019061057491906134d5565b611b0d565b6040516105869190614110565b60405180910390f35b34801561059b57600080fd5b506105b660048036038101906105b191906134d5565b611df6565b6040516105c39190614110565b60405180910390f35b3480156105d857600080fd5b506105f360048036038101906105ee919061333f565b6120e9565b60405161060091906140f5565b60405180910390f35b610623600480360381019061061e9190613481565b61217d565b6040516106309190614472565b60405180910390f35b34801561064557600080fd5b5061064e612333565b60405161065b9190614472565b60405180910390f35b60007f80ac58cd000000000000000000000000000000000000000000000000000000007bffffffffffffffffffffffffffffffffffffffffffffffffffffffff1916827bffffffffffffffffffffffffffffffffffffffffffffffffffffffff1916148061072f57507f5b5e139f000000000000000000000000000000000000000000000000000000007bffffffffffffffffffffffffffffffffffffffffffffffffffffffff1916827bffffffffffffffffffffffffffffffffffffffffffffffffffffffff1916145b8061073f575061073e8261233f565b5b9050919050565b6060600080546107559061473e565b80601f01602080910402602001604051908101604052809291908181526020018280546107819061473e565b80156107ce5780601f106107a3576101008083540402835291602001916107ce565b820191906000526020600020905b8154815290600101906020018083116107b157829003601f168201915b5050505050905090565b60006107e3826123a9565b610822576040517f08c379a000000000000000000000000000000000000000000000000000000000815260040161081990614372565b60405180910390fd5b6004600083815260200190815260200160002060009054906101000a900473ffffffffffffffffffffffffffffffffffffffff169050919050565b600061086882611195565b90508073ffffffffffffffffffffffffffffffffffffffff168373ffffffffffffffffffffffffffffffffffffffff1614156108d9576040517f08c379a00000000000000000000000000000000000000000000000000000000081526004016108d0906143d2565b60405180910390fd5b8073ffffffffffffffffffffffffffffffffffffffff166108f8612415565b73ffffffffffffffffffffffffffffffffffffffff161480610927575061092681610921612415565b6120e9565b5b610966576040517f08c379a000000000000000000000000000000000000000000000000000000000815260040161095d90614272565b60405180910390fd5b610970838361241d565b505050565b6000600b60008473ffffffffffffffffffffffffffffffffffffffff1673ffffffffffffffffffffffffffffffffffffffff16815260200190815260200160002054148015610a0357506000600c60008473ffffffffffffffffffffffffffffffffffffffff1673ffffffffffffffffffffffffffffffffffffffff16815260200190815260200160002054145b610a0c57600080fd5b610a178383836124d6565b6000600b60008573ffffffffffffffffffffffffffffffffffffffff1673ffffffffffffffffffffffffffffffffffffffff168152602001908152602001600020541115610b2857600b60008473ffffffffffffffffffffffffffffffffffffffff1673ffffffffffffffffffffffffffffffffffffffff16815260200190815260200160002054600b60008473ffffffffffffffffffffffffffffffffffffffff1673ffffffffffffffffffffffffffffffffffffffff168152602001908152602001600020819055506000600b60008573ffffffffffffffffffffffffffffffffffffffff1673ffffffffffffffffffffffffffffffffffffffff168152602001908152602001600020819055505b505050565b60098060000154905081565b67016345785d8a000081565b606060026007541415610b8d576040517f08c379a0000000000000000000000000000000000000000000000000000000008152600401610b8490614452565b60405180910390fd5b60026007819055506000610ba083611195565b90508073ffffffffffffffffffffffffffffffffffffffff168473ffffffffffffffffffffffffffffffffffffffff16148015610c0857503373ffffffffffffffffffffffffffffffffffffffff168473ffffffffffffffffffffffffffffffffffffffff16145b8015610c3f57503373ffffffffffffffffffffffffffffffffffffffff168173ffffffffffffffffffffffffffffffffffffffff16145b610c7e576040517f08c379a0000000000000000000000000000000000000000000000000000000008152600401610c7590614292565b60405180910390fd5b6001610c8a6009612536565b1415610d6b576000600b60008673ffffffffffffffffffffffffffffffffffffffff1673ffffffffffffffffffffffffffffffffffffffff168152602001908152602001600020541415610d13576040517f08c379a0000000000000000000000000000000000000000000000000000000008152600401610d0a906141b2565b60405180910390fd5b600084905060004790508173ffffffffffffffffffffffffffffffffffffffff166108fc829081150290604051600060405180830381858888f19350505050158015610d63573d6000803e3d6000fd5b505050610e6e565b6000600b60008673ffffffffffffffffffffffffffffffffffffffff1673ffffffffffffffffffffffffffffffffffffffff16815260200190815260200160002054905060008114158015610dc05750600481145b610dff576040517f08c379a0000000000000000000000000000000000000000000000000000000008152600401610df690614152565b60405180910390fd5b60004790506000610e10600a612536565b905060008183610e2091906145b7565b90508773ffffffffffffffffffffffffffffffffffffffff166108fc829081150290604051600060405180830381858888f19350505050158015610e68573d6000803e3d6000fd5b50505050505b6040518060400160405280602081526020017f596f7527766520776f6e212048657265277320796f75722077696e6e696e6773815250915050600160078190555092915050565b600080434233604051602001610ecb9190614019565b6040516020818303038152906040528051906020012060001c610eee91906145b7565b454241604051602001610f019190614034565b6040516020818303038152906040528051906020012060001c610f2491906145b7565b4442610f309190614561565b610f3a9190614561565b610f449190614561565b610f4e9190614561565b610f589190614561565b604051602001610f689190614073565b6040516020818303038152906040528051906020012060001c90506103e88082610f9291906145b7565b610f9c91906145e8565b81610fa79190614642565b91505090565b600b6020528060005260406000206000915090505481565b6000600b60008473ffffffffffffffffffffffffffffffffffffffff1673ffffffffffffffffffffffffffffffffffffffff1681526020019081526020016000205414801561105357506000600c60008473ffffffffffffffffffffffffffffffffffffffff1673ffffffffffffffffffffffffffffffffffffffff16815260200190815260200160002054145b61105c57600080fd5b611067838383612544565b6000600b60008573ffffffffffffffffffffffffffffffffffffffff1673ffffffffffffffffffffffffffffffffffffffff16815260200190815260200160002054111561117857600b60008473ffffffffffffffffffffffffffffffffffffffff1673ffffffffffffffffffffffffffffffffffffffff16815260200190815260200160002054600b60008473ffffffffffffffffffffffffffffffffffffffff1673ffffffffffffffffffffffffffffffffffffffff168152602001908152602001600020819055506000600b60008573ffffffffffffffffffffffffffffffffffffffff1673ffffffffffffffffffffffffffffffffffffffff168152602001908152602001600020819055505b505050565b600c6020528060005260406000206000915090505481565b6000806002600084815260200190815260200160002060009054906101000a900473ffffffffffffffffffffffffffffffffffffffff169050600073ffffffffffffffffffffffffffffffffffffffff168173ffffffffffffffffffffffffffffffffffffffff16141561123e576040517f08c379a0000000000000000000000000000000000000000000000000000000008152600401611235906142d2565b60405180910390fd5b80915050919050565b60008073ffffffffffffffffffffffffffffffffffffffff168273ffffffffffffffffffffffffffffffffffffffff1614156112b8576040517f08c379a00000000000000000000000000000000000000000000000000000000081526004016112af906142b2565b60405180910390fd5b600360008373ffffffffffffffffffffffffffffffffffffffff1673ffffffffffffffffffffffffffffffffffffffff168152602001908152602001600020549050919050565b60606001805461130e9061473e565b80601f016020809104026020016040519081016040528092919081815260200182805461133a9061473e565b80156113875780601f1061135c57610100808354040283529160200191611387565b820191906000526020600020905b81548152906001019060200180831161136a57829003601f168201915b5050505050905090565b6060600260075414156113d9576040517f08c379a00000000000000000000000000000000000000000000000000000000081526004016113d090614452565b60405180910390fd5b600260078190555060006113ec83611195565b90508073ffffffffffffffffffffffffffffffffffffffff168473ffffffffffffffffffffffffffffffffffffffff1614801561145457503373ffffffffffffffffffffffffffffffffffffffff168473ffffffffffffffffffffffffffffffffffffffff16145b801561148b57503373ffffffffffffffffffffffffffffffffffffffff168173ffffffffffffffffffffffffffffffffffffffff16145b6114ca576040517f08c379a00000000000000000000000000000000000000000000000000000000081526004016114c190614292565b60405180910390fd5b6000600b60008673ffffffffffffffffffffffffffffffffffffffff1673ffffffffffffffffffffffffffffffffffffffff1681526020019081526020016000205490506000811415801561151f5750600281145b61155e576040517f08c379a0000000000000000000000000000000000000000000000000000000008152600401611555906143f2565b60405180910390fd5b6000611568610eb5565b90506101f38110156115a15761157e8683612564565b60405180606001604052806028815260200161498960289139935050505061166c565b6001600b60008873ffffffffffffffffffffffffffffffffffffffff1673ffffffffffffffffffffffffffffffffffffffff168152602001908152602001600020546115ed9190614561565b600b60008873ffffffffffffffffffffffffffffffffffffffff1673ffffffffffffffffffffffffffffffffffffffff168152602001908152602001600020819055506040518060400160405280601f81526020017f436f6e67726174732c20796f7520737572766976656420726f756e6420322e0081525093505050505b600160078190555092915050565b611682612415565b73ffffffffffffffffffffffffffffffffffffffff168273ffffffffffffffffffffffffffffffffffffffff1614156116f0576040517f08c379a00000000000000000000000000000000000000000000000000000000081526004016116e790614212565b60405180910390fd5b80600560006116fd612415565b73ffffffffffffffffffffffffffffffffffffffff1673ffffffffffffffffffffffffffffffffffffffff16815260200190815260200160002060008473ffffffffffffffffffffffffffffffffffffffff1673ffffffffffffffffffffffffffffffffffffffff16815260200190815260200160002060006101000a81548160ff0219169083151502179055508173ffffffffffffffffffffffffffffffffffffffff166117aa612415565b73ffffffffffffffffffffffffffffffffffffffff167f17307eab39ab6107e8899845ad3d59bd9653f200f220920489ca2b5937696c31836040516117ef91906140f5565b60405180910390a35050565b6000600b60008573ffffffffffffffffffffffffffffffffffffffff1673ffffffffffffffffffffffffffffffffffffffff1681526020019081526020016000205414801561188957506000600c60008573ffffffffffffffffffffffffffffffffffffffff1673ffffffffffffffffffffffffffffffffffffffff16815260200190815260200160002054145b61189257600080fd5b61189e848484846125fb565b6000600b60008673ffffffffffffffffffffffffffffffffffffffff1673ffffffffffffffffffffffffffffffffffffffff1681526020019081526020016000205411156119af57600b60008573ffffffffffffffffffffffffffffffffffffffff1673ffffffffffffffffffffffffffffffffffffffff16815260200190815260200160002054600b60008573ffffffffffffffffffffffffffffffffffffffff1673ffffffffffffffffffffffffffffffffffffffff168152602001908152602001600020819055506000600b60008673ffffffffffffffffffffffffffffffffffffffff1673ffffffffffffffffffffffffffffffffffffffff168152602001908152602001600020819055505b50505050565b6101c881565b60606119c6826123a9565b611a05576040517f08c379a00000000000000000000000000000000000000000000000000000000081526004016119fc90614352565b60405180910390fd5b6000600660008481526020019081526020016000208054611a259061473e565b80601f0160208091040260200160405190810160405280929190818152602001828054611a519061473e565b8015611a9e5780601f10611a7357610100808354040283529160200191611a9e565b820191906000526020600020905b815481529060010190602001808311611a8157829003601f168201915b505050505090506000611aaf61265d565b9050600081511415611ac5578192505050611b08565b600082511115611afa578082604051602001611ae292919061404f565b60405160208183030381529060405292505050611b08565b611b0384612674565b925050505b919050565b606060026007541415611b55576040517f08c379a0000000000000000000000000000000000000000000000000000000008152600401611b4c90614452565b60405180910390fd5b60026007819055506000611b6883611195565b90508073ffffffffffffffffffffffffffffffffffffffff168473ffffffffffffffffffffffffffffffffffffffff16148015611bd057503373ffffffffffffffffffffffffffffffffffffffff168473ffffffffffffffffffffffffffffffffffffffff16145b8015611c0757503373ffffffffffffffffffffffffffffffffffffffff168173ffffffffffffffffffffffffffffffffffffffff16145b611c46576040517f08c379a0000000000000000000000000000000000000000000000000000000008152600401611c3d90614292565b60405180910390fd5b6000600b60008673ffffffffffffffffffffffffffffffffffffffff1673ffffffffffffffffffffffffffffffffffffffff16815260200190815260200160002054905060008114158015611c9b5750600181145b611cda576040517f08c379a0000000000000000000000000000000000000000000000000000000008152600401611cd190614332565b60405180910390fd5b6000611ce4610eb5565b90506101f3811015611d1d57611cfa8683612564565b604051806060016040528060288152602001614961602891399350505050611de8565b6001600b60008873ffffffffffffffffffffffffffffffffffffffff1673ffffffffffffffffffffffffffffffffffffffff16815260200190815260200160002054611d699190614561565b600b60008873ffffffffffffffffffffffffffffffffffffffff1673ffffffffffffffffffffffffffffffffffffffff168152602001908152602001600020819055506040518060400160405280601f81526020017f436f6e67726174732c20796f7520737572766976656420726f756e6420312e0081525093505050505b600160078190555092915050565b606060026007541415611e3e576040517f08c379a0000000000000000000000000000000000000000000000000000000008152600401611e3590614452565b60405180910390fd5b60026007819055506000611e5183611195565b90508073ffffffffffffffffffffffffffffffffffffffff168473ffffffffffffffffffffffffffffffffffffffff16148015611eb957503373ffffffffffffffffffffffffffffffffffffffff168473ffffffffffffffffffffffffffffffffffffffff16145b8015611ef057503373ffffffffffffffffffffffffffffffffffffffff168173ffffffffffffffffffffffffffffffffffffffff16145b611f2f576040517f08c379a0000000000000000000000000000000000000000000000000000000008152600401611f2690614292565b60405180910390fd5b6000600b60008673ffffffffffffffffffffffffffffffffffffffff1673ffffffffffffffffffffffffffffffffffffffff16815260200190815260200160002054905060008114158015611f845750600381145b611fc3576040517f08c379a0000000000000000000000000000000000000000000000000000000008152600401611fba90614132565b60405180910390fd5b6000611fcd610eb5565b90506101f381101561200657611fe38683612564565b6040518060600160405280602881526020016149b16028913993505050506120db565b6001600b60008873ffffffffffffffffffffffffffffffffffffffff1673ffffffffffffffffffffffffffffffffffffffff168152602001908152602001600020546120529190614561565b600b60008873ffffffffffffffffffffffffffffffffffffffff1673ffffffffffffffffffffffffffffffffffffffff1681526020019081526020016000208190555061209f600a61271b565b6040518060400160405280601f81526020017f436f6e67726174732c20796f7520737572766976656420726f756e6420332e0081525093505050505b600160078190555092915050565b6000600560008473ffffffffffffffffffffffffffffffffffffffff1673ffffffffffffffffffffffffffffffffffffffff16815260200190815260200160002060008373ffffffffffffffffffffffffffffffffffffffff1673ffffffffffffffffffffffffffffffffffffffff16815260200190815260200160002060009054906101000a900460ff16905092915050565b60003467016345785d8a000011156121ca576040517f08c379a00000000000000000000000000000000000000000000000000000000081526004016121c190614232565b60405180910390fd5b6101c86121d76008612536565b10612217576040517f08c379a000000000000000000000000000000000000000000000000000000000815260040161220e90614432565b60405180910390fd5b6000600b60008573ffffffffffffffffffffffffffffffffffffffff1673ffffffffffffffffffffffffffffffffffffffff168152602001908152602001600020541480156122a557506000600c60008573ffffffffffffffffffffffffffffffffffffffff1673ffffffffffffffffffffffffffffffffffffffff16815260200190815260200160002054145b6122ae57600080fd5b6122b8600861271b565b6122c2600961271b565b60006122ce6008612536565b90506122da8482612731565b6122e4818461274f565b6001600b60008673ffffffffffffffffffffffffffffffffffffffff1673ffffffffffffffffffffffffffffffffffffffff168152602001908152602001600020819055508091505092915050565b600a8060000154905081565b60007f01ffc9a7000000000000000000000000000000000000000000000000000000007bffffffffffffffffffffffffffffffffffffffffffffffffffffffff1916827bffffffffffffffffffffffffffffffffffffffffffffffffffffffff1916149050919050565b60008073ffffffffffffffffffffffffffffffffffffffff166002600084815260200190815260200160002060009054906101000a900473ffffffffffffffffffffffffffffffffffffffff1673ffffffffffffffffffffffffffffffffffffffff1614159050919050565b600033905090565b816004600083815260200190815260200160002060006101000a81548173ffffffffffffffffffffffffffffffffffffffff021916908373ffffffffffffffffffffffffffffffffffffffff160217905550808273ffffffffffffffffffffffffffffffffffffffff1661249083611195565b73ffffffffffffffffffffffffffffffffffffffff167f8c5be1e5ebec7d5bd14f71427d1e84f3dd0314c0f7b2291e5b200ac8c7c3b92560405160405180910390a45050565b6124e76124e1612415565b826127c3565b612526576040517f08c379a000000000000000000000000000000000000000000000000000000000815260040161251d90614412565b60405180910390fd5b6125318383836128a1565b505050565b600081600001549050919050565b61255f838383604051806020016040528060008152506117fb565b505050565b6000600b60008473ffffffffffffffffffffffffffffffffffffffff1673ffffffffffffffffffffffffffffffffffffffff1681526020019081526020016000208190555080600c60008473ffffffffffffffffffffffffffffffffffffffff1673ffffffffffffffffffffffffffffffffffffffff168152602001908152602001600020819055506125f76009612afd565b5050565b61260c612606612415565b836127c3565b61264b576040517f08c379a000000000000000000000000000000000000000000000000000000000815260040161264290614412565b60405180910390fd5b61265784848484612b59565b50505050565b606060405180602001604052806000815250905090565b606061267f826123a9565b6126be576040517f08c379a00000000000000000000000000000000000000000000000000000000081526004016126b5906143b2565b60405180910390fd5b60006126c861265d565b905060008151116126e85760405180602001604052806000815250612713565b806126f284612bb5565b60405160200161270392919061404f565b6040516020818303038152906040525b915050919050565b6001816000016000828254019250508190555050565b61274b828260405180602001604052806000815250612d62565b5050565b612758826123a9565b612797576040517f08c379a000000000000000000000000000000000000000000000000000000000815260040161278e906142f2565b60405180910390fd5b806006600084815260200190815260200160002090805190602001906127be92919061313a565b505050565b60006127ce826123a9565b61280d576040517f08c379a000000000000000000000000000000000000000000000000000000000815260040161280490614252565b60405180910390fd5b600061281883611195565b90508073ffffffffffffffffffffffffffffffffffffffff168473ffffffffffffffffffffffffffffffffffffffff16148061288757508373ffffffffffffffffffffffffffffffffffffffff1661286f846107d8565b73ffffffffffffffffffffffffffffffffffffffff16145b80612898575061289781856120e9565b5b91505092915050565b8273ffffffffffffffffffffffffffffffffffffffff166128c182611195565b73ffffffffffffffffffffffffffffffffffffffff1614612917576040517f08c379a000000000000000000000000000000000000000000000000000000000815260040161290e90614392565b60405180910390fd5b600073ffffffffffffffffffffffffffffffffffffffff168273ffffffffffffffffffffffffffffffffffffffff161415612987576040517f08c379a000000000000000000000000000000000000000000000000000000000815260040161297e906141f2565b60405180910390fd5b612992838383612dbd565b61299d60008261241d565b6001600360008573ffffffffffffffffffffffffffffffffffffffff1673ffffffffffffffffffffffffffffffffffffffff16815260200190815260200160002060008282546129ed9190614642565b925050819055506001600360008473ffffffffffffffffffffffffffffffffffffffff1673ffffffffffffffffffffffffffffffffffffffff1681526020019081526020016000206000828254612a449190614561565b92505081905550816002600083815260200190815260200160002060006101000a81548173ffffffffffffffffffffffffffffffffffffffff021916908373ffffffffffffffffffffffffffffffffffffffff160217905550808273ffffffffffffffffffffffffffffffffffffffff168473ffffffffffffffffffffffffffffffffffffffff167fddf252ad1be2c89b69c2b068fc378daa952ba7f163c4a11628f55a4df523b3ef60405160405180910390a4505050565b60008160000154905060008111612b49576040517f08c379a0000000000000000000000000000000000000000000000000000000008152600401612b4090614172565b60405180910390fd5b6001810382600001819055505050565b612b648484846128a1565b612b7084848484612dc2565b612baf576040517f08c379a0000000000000000000000000000000000000000000000000000000008152600401612ba690614192565b60405180910390fd5b50505050565b60606000821415612bfd576040518060400160405280600181526020017f30000000000000000000000000000000000000000000000000000000000000008152509050612d5d565b600082905060005b60008214612c2f578080612c1890614770565b915050600a82612c2891906145b7565b9150612c05565b60008167ffffffffffffffff811115612c71577f4e487b7100000000000000000000000000000000000000000000000000000000600052604160045260246000fd5b6040519080825280601f01601f191660200182016040528015612ca35781602001600182028036833780820191505090505b5090505b60008514612d5657600182612cbc9190614642565b9150600a85612ccb91906147f9565b6030612cd79190614561565b60f81b818381518110612d13577f4e487b7100000000000000000000000000000000000000000000000000000000600052603260045260246000fd5b60200101907effffffffffffffffffffffffffffffffffffffffffffffffffffffffffffff1916908160001a905350600a85612d4f91906145b7565b9450612ca7565b8093505050505b919050565b612d6c8383612f59565b612d796000848484612dc2565b612db8576040517f08c379a0000000000000000000000000000000000000000000000000000000008152600401612daf90614192565b60405180910390fd5b505050565b505050565b6000612de38473ffffffffffffffffffffffffffffffffffffffff16613127565b15612f4c578373ffffffffffffffffffffffffffffffffffffffff1663150b7a02612e0c612415565b8786866040518563ffffffff1660e01b8152600401612e2e94939291906140a9565b602060405180830381600087803b158015612e4857600080fd5b505af1925050508015612e7957506040513d601f19601f82011682018060405250810190612e76919061353a565b60015b612efc573d8060008114612ea9576040519150601f19603f3d011682016040523d82523d6000602084013e612eae565b606091505b50600081511415612ef4576040517f08c379a0000000000000000000000000000000000000000000000000000000008152600401612eeb90614192565b60405180910390fd5b805181602001fd5b63150b7a0260e01b7bffffffffffffffffffffffffffffffffffffffffffffffffffffffff1916817bffffffffffffffffffffffffffffffffffffffffffffffffffffffff191614915050612f51565b600190505b949350505050565b600073ffffffffffffffffffffffffffffffffffffffff168273ffffffffffffffffffffffffffffffffffffffff161415612fc9576040517f08c379a0000000000000000000000000000000000000000000000000000000008152600401612fc090614312565b60405180910390fd5b612fd2816123a9565b15613012576040517f08c379a0000000000000000000000000000000000000000000000000000000008152600401613009906141d2565b60405180910390fd5b61301e60008383612dbd565b6001600360008473ffffffffffffffffffffffffffffffffffffffff1673ffffffffffffffffffffffffffffffffffffffff168152602001908152602001600020600082825461306e9190614561565b92505081905550816002600083815260200190815260200160002060006101000a81548173ffffffffffffffffffffffffffffffffffffffff021916908373ffffffffffffffffffffffffffffffffffffffff160217905550808273ffffffffffffffffffffffffffffffffffffffff16600073ffffffffffffffffffffffffffffffffffffffff167fddf252ad1be2c89b69c2b068fc378daa952ba7f163c4a11628f55a4df523b3ef60405160405180910390a45050565b600080823b905060008111915050919050565b8280546131469061473e565b90600052602060002090601f01602090048101928261316857600085556131af565b82601f1061318157805160ff19168380011785556131af565b828001600101855582156131af579182015b828111156131ae578251825591602001919060010190613193565b5b5090506131bc91906131c0565b5090565b5b808211156131d95760008160009055506001016131c1565b5090565b60006131f06131eb846144be565b61448d565b90508281526020810184848401111561320857600080fd5b6132138482856146fc565b509392505050565b600061322e613229846144ee565b61448d565b90508281526020810184848401111561324657600080fd5b6132518482856146fc565b509392505050565b60008135905061326881614904565b92915050565b60008135905061327d8161491b565b92915050565b60008135905061329281614932565b92915050565b6000815190506132a781614932565b92915050565b600082601f8301126132be57600080fd5b81356132ce8482602086016131dd565b91505092915050565b600082601f8301126132e857600080fd5b81356132f884826020860161321b565b91505092915050565b60008135905061331081614949565b92915050565b60006020828403121561332857600080fd5b600061333684828501613259565b91505092915050565b6000806040838503121561335257600080fd5b600061336085828601613259565b925050602061337185828601613259565b9150509250929050565b60008060006060848603121561339057600080fd5b600061339e86828701613259565b93505060206133af86828701613259565b92505060406133c086828701613301565b9150509250925092565b600080600080608085870312156133e057600080fd5b60006133ee87828801613259565b94505060206133ff87828801613259565b935050604061341087828801613301565b925050606085013567ffffffffffffffff81111561342d57600080fd5b613439878288016132ad565b91505092959194509250565b6000806040838503121561345857600080fd5b600061346685828601613259565b92505060206134778582860161326e565b9150509250929050565b6000806040838503121561349457600080fd5b60006134a285828601613259565b925050602083013567ffffffffffffffff8111156134bf57600080fd5b6134cb858286016132d7565b9150509250929050565b600080604083850312156134e857600080fd5b60006134f685828601613259565b925050602061350785828601613301565b9150509250929050565b60006020828403121561352357600080fd5b600061353184828501613283565b91505092915050565b60006020828403121561354c57600080fd5b600061355a84828501613298565b91505092915050565b60006020828403121561357557600080fd5b600061358384828501613301565b91505092915050565b61359d61359882614688565b6147cb565b82525050565b6135ac81614676565b82525050565b6135c36135be82614676565b6147b9565b82525050565b6135d28161469a565b82525050565b60006135e38261451e565b6135ed8185614534565b93506135fd81856020860161470b565b613606816148e6565b840191505092915050565b600061361c82614529565b6136268185614545565b935061363681856020860161470b565b61363f816148e6565b840191505092915050565b600061365582614529565b61365f8185614556565b935061366f81856020860161470b565b80840191505092915050565b6000613688603983614545565b91507f4d757374206265206120706c61796572207769746820616e204e46542074686160008301527f74277320616c69766520616e6420696e20726f756e64203321000000000000006020830152604082019050919050565b60006136ee604283614545565b91507f4d757374206265206120706c61796572207769746820616e204e46542074686160008301527f74277320616c69766520616e642070617373656420616c6c203320726f756e6460208301527f73210000000000000000000000000000000000000000000000000000000000006040830152606082019050919050565b600061377a601b83614545565b91507f436f756e7465723a2064656372656d656e74206f766572666c6f7700000000006000830152602082019050919050565b60006137ba603283614545565b91507f4552433732313a207472616e7366657220746f206e6f6e20455243373231526560008301527f63656976657220696d706c656d656e74657200000000000000000000000000006020830152604082019050919050565b6000613820602083614545565b91507f596f7520617265206e6f74207468652077696e6e657220746869732074696d656000830152602082019050919050565b6000613860601c83614545565b91507f4552433732313a20746f6b656e20616c7265616479206d696e746564000000006000830152602082019050919050565b60006138a0602483614545565b91507f4552433732313a207472616e7366657220746f20746865207a65726f2061646460008301527f72657373000000000000000000000000000000000000000000000000000000006020830152604082019050919050565b6000613906601983614545565b91507f4552433732313a20617070726f766520746f2063616c6c6572000000000000006000830152602082019050919050565b6000613946601f83614545565b91507f45746865722076616c75652073656e74206973206e6f7420636f7272656374006000830152602082019050919050565b6000613986602c83614545565b91507f4552433732313a206f70657261746f7220717565727920666f72206e6f6e657860008301527f697374656e7420746f6b656e00000000000000000000000000000000000000006020830152604082019050919050565b60006139ec603883614545565b91507f4552433732313a20617070726f76652063616c6c6572206973206e6f74206f7760008301527f6e6572206e6f7220617070726f76656420666f7220616c6c00000000000000006020830152604082019050919050565b6000613a52603483614545565b91507f4974207365656d73206c696b6520796f7520617265206e6f7420746865206f7760008301527f6e6572206f66207468697320746f6b656e2e2e2e0000000000000000000000006020830152604082019050919050565b6000613ab8602a83614545565b91507f4552433732313a2062616c616e636520717565727920666f7220746865207a6560008301527f726f2061646472657373000000000000000000000000000000000000000000006020830152604082019050919050565b6000613b1e602983614545565b91507f4552433732313a206f776e657220717565727920666f72206e6f6e657869737460008301527f656e7420746f6b656e00000000000000000000000000000000000000000000006020830152604082019050919050565b6000613b84602e83614545565b91507f45524337323155524953746f726167653a2055524920736574206f66206e6f6e60008301527f6578697374656e7420746f6b656e0000000000000000000000000000000000006020830152604082019050919050565b6000613bea602083614545565b91507f4552433732313a206d696e7420746f20746865207a65726f20616464726573736000830152602082019050919050565b6000613c2a603983614545565b91507f4d757374206265206120706c61796572207769746820616e204e46542074686160008301527f74277320616c69766520616e6420696e20726f756e64203121000000000000006020830152604082019050919050565b6000613c90603183614545565b91507f45524337323155524953746f726167653a2055524920717565727920666f722060008301527f6e6f6e6578697374656e7420746f6b656e0000000000000000000000000000006020830152604082019050919050565b6000613cf6602c83614545565b91507f4552433732313a20617070726f76656420717565727920666f72206e6f6e657860008301527f697374656e7420746f6b656e00000000000000000000000000000000000000006020830152604082019050919050565b6000613d5c602983614545565b91507f4552433732313a207472616e73666572206f6620746f6b656e2074686174206960008301527f73206e6f74206f776e00000000000000000000000000000000000000000000006020830152604082019050919050565b6000613dc2602f83614545565b91507f4552433732314d657461646174613a2055524920717565727920666f72206e6f60008301527f6e6578697374656e7420746f6b656e00000000000000000000000000000000006020830152604082019050919050565b6000613e28602183614545565b91507f4552433732313a20617070726f76616c20746f2063757272656e74206f776e6560008301527f72000000000000000000000000000000000000000000000000000000000000006020830152604082019050919050565b6000613e8e603983614545565b91507f4d757374206265206120706c61796572207769746820616e204e46542074686160008301527f74277320616c69766520616e6420696e20726f756e64203221000000000000006020830152604082019050919050565b6000613ef4603183614545565b91507f4552433732313a207472616e736665722063616c6c6572206973206e6f74206f60008301527f776e6572206e6f7220617070726f7665640000000000000000000000000000006020830152604082019050919050565b6000613f5a603e83614545565b91507f57652068617665207265616368656420746865206d6178206e756d626572206f60008301527f6620706c61796572732c2074727920616761696e206e6578742074696d6500006020830152604082019050919050565b6000613fc0601f83614545565b91507f5265656e7472616e637947756172643a207265656e7472616e742063616c6c006000830152602082019050919050565b613ffc816146f2565b82525050565b61401361400e826146f2565b6147ef565b82525050565b600061402582846135b2565b60148201915081905092915050565b6000614040828461358c565b60148201915081905092915050565b600061405b828561364a565b9150614067828461364a565b91508190509392505050565b600061407f8284614002565b60208201915081905092915050565b60006020820190506140a360008301846135a3565b92915050565b60006080820190506140be60008301876135a3565b6140cb60208301866135a3565b6140d86040830185613ff3565b81810360608301526140ea81846135d8565b905095945050505050565b600060208201905061410a60008301846135c9565b92915050565b6000602082019050818103600083015261412a8184613611565b905092915050565b6000602082019050818103600083015261414b8161367b565b9050919050565b6000602082019050818103600083015261416b816136e1565b9050919050565b6000602082019050818103600083015261418b8161376d565b9050919050565b600060208201905081810360008301526141ab816137ad565b9050919050565b600060208201905081810360008301526141cb81613813565b9050919050565b600060208201905081810360008301526141eb81613853565b9050919050565b6000602082019050818103600083015261420b81613893565b9050919050565b6000602082019050818103600083015261422b816138f9565b9050919050565b6000602082019050818103600083015261424b81613939565b9050919050565b6000602082019050818103600083015261426b81613979565b9050919050565b6000602082019050818103600083015261428b816139df565b9050919050565b600060208201905081810360008301526142ab81613a45565b9050919050565b600060208201905081810360008301526142cb81613aab565b9050919050565b600060208201905081810360008301526142eb81613b11565b9050919050565b6000602082019050818103600083015261430b81613b77565b9050919050565b6000602082019050818103600083015261432b81613bdd565b9050919050565b6000602082019050818103600083015261434b81613c1d565b9050919050565b6000602082019050818103600083015261436b81613c83565b9050919050565b6000602082019050818103600083015261438b81613ce9565b9050919050565b600060208201905081810360008301526143ab81613d4f565b9050919050565b600060208201905081810360008301526143cb81613db5565b9050919050565b600060208201905081810360008301526143eb81613e1b565b9050919050565b6000602082019050818103600083015261440b81613e81565b9050919050565b6000602082019050818103600083015261442b81613ee7565b9050919050565b6000602082019050818103600083015261444b81613f4d565b9050919050565b6000602082019050818103600083015261446b81613fb3565b9050919050565b60006020820190506144876000830184613ff3565b92915050565b6000604051905081810181811067ffffffffffffffff821117156144b4576144b36148b7565b5b8060405250919050565b600067ffffffffffffffff8211156144d9576144d86148b7565b5b601f19601f8301169050602081019050919050565b600067ffffffffffffffff821115614509576145086148b7565b5b601f19601f8301169050602081019050919050565b600081519050919050565b600081519050919050565b600082825260208201905092915050565b600082825260208201905092915050565b600081905092915050565b600061456c826146f2565b9150614577836146f2565b9250827fffffffffffffffffffffffffffffffffffffffffffffffffffffffffffffffff038211156145ac576145ab61482a565b5b828201905092915050565b60006145c2826146f2565b91506145cd836146f2565b9250826145dd576145dc614859565b5b828204905092915050565b60006145f3826146f2565b91506145fe836146f2565b9250817fffffffffffffffffffffffffffffffffffffffffffffffffffffffffffffffff04831182151516156146375761463661482a565b5b828202905092915050565b600061464d826146f2565b9150614658836146f2565b92508282101561466b5761466a61482a565b5b828203905092915050565b6000614681826146d2565b9050919050565b6000614693826146d2565b9050919050565b60008115159050919050565b60007fffffffff0000000000000000000000000000000000000000000000000000000082169050919050565b600073ffffffffffffffffffffffffffffffffffffffff82169050919050565b6000819050919050565b82818337600083830152505050565b60005b8381101561472957808201518184015260208101905061470e565b83811115614738576000848401525b50505050565b6000600282049050600182168061475657607f821691505b6020821081141561476a57614769614888565b5b50919050565b600061477b826146f2565b91507fffffffffffffffffffffffffffffffffffffffffffffffffffffffffffffffff8214156147ae576147ad61482a565b5b600182019050919050565b60006147c4826147dd565b9050919050565b60006147d6826147dd565b9050919050565b60006147e8826148f7565b9050919050565b6000819050919050565b6000614804826146f2565b915061480f836146f2565b92508261481f5761481e614859565b5b828206905092915050565b7f4e487b7100000000000000000000000000000000000000000000000000000000600052601160045260246000fd5b7f4e487b7100000000000000000000000000000000000000000000000000000000600052601260045260246000fd5b7f4e487b7100000000000000000000000000000000000000000000000000000000600052602260045260246000fd5b7f4e487b7100000000000000000000000000000000000000000000000000000000600052604160045260246000fd5b6000601f19601f8301169050919050565b60008160601b9050919050565b61490d81614676565b811461491857600080fd5b50565b6149248161469a565b811461492f57600080fd5b50565b61493b816146a6565b811461494657600080fd5b50565b614952816146f2565b811461495d57600080fd5b5056fe536f7272792c20796f75207765726520656c696d696e617465642066726f6d20726f756e6420312e536f7272792c20796f75207765726520656c696d696e617465642066726f6d20726f756e6420322e536f7272792c20796f75207765726520656c696d696e617465642066726f6d20726f756e6420332ea264697066735822122023af1fcf6365c57980b2d08b46362d94098a463f3fb76737dca8b4cea8635d8664736f6c63430008000033",
  "linkReferences": {},
  "deployedLinkReferences": {}
}