{
  "_format": "hh-sol-artifact-1",
  "contractName": "OctopusFun",
  "sourceName": "contracts/OctopusFun.sol",
  "abi": [
    {
      "inputs": [],
      "stateMutability": "nonpayable",
      "type": "constructor"
    },
    {
      "anonymous": false,
      "inputs": [
        {
          "indexed": true,
          "internalType": "address",
          "name": "owner",
          "type": "address"
        },
        {
          "indexed": true,
          "internalType": "address",
          "name": "approved",
          "type": "address"
        },
        {
          "indexed": true,
          "internalType": "uint256",
          "name": "tokenId",
          "type": "uint256"
        }
      ],
      "name": "Approval",
      "type": "event"
    },
    {
      "anonymous": false,
      "inputs": [
        {
          "indexed": true,
          "internalType": "address",
          "name": "owner",
          "type": "address"
        },
        {
          "indexed": true,
          "internalType": "address",
          "name": "operator",
          "type": "address"
        },
        {
          "indexed": false,
          "internalType": "bool",
          "name": "approved",
          "type": "bool"
        }
      ],
      "name": "ApprovalForAll",
      "type": "event"
    },
    {
      "anonymous": false,
      "inputs": [
        {
          "indexed": true,
          "internalType": "address",
          "name": "from",
          "type": "address"
        },
        {
          "indexed": true,
          "internalType": "address",
          "name": "to",
          "type": "address"
        },
        {
          "indexed": true,
          "internalType": "uint256",
          "name": "tokenId",
          "type": "uint256"
        }
      ],
      "name": "Transfer",
      "type": "event"
    },
    {
      "inputs": [],
      "name": "COST_TO_MINT",
      "outputs": [
        {
          "internalType": "uint256",
          "name": "",
          "type": "uint256"
        }
      ],
      "stateMutability": "view",
      "type": "function"
    },
    {
      "inputs": [],
      "name": "MAX_OCTOPUS_FUN_TOKENS",
      "outputs": [
        {
          "internalType": "uint256",
          "name": "",
          "type": "uint256"
        }
      ],
      "stateMutability": "view",
      "type": "function"
    },
    {
      "inputs": [
        {
          "internalType": "address",
          "name": "",
          "type": "address"
        }
      ],
      "name": "addressToTokenId",
      "outputs": [
        {
          "internalType": "uint256",
          "name": "",
          "type": "uint256"
        }
      ],
      "stateMutability": "view",
      "type": "function"
    },
    {
      "inputs": [],
      "name": "aliveNFTCount",
      "outputs": [
        {
          "internalType": "uint256",
          "name": "_value",
          "type": "uint256"
        }
      ],
      "stateMutability": "view",
      "type": "function"
    },
    {
      "inputs": [
        {
          "internalType": "address",
          "name": "",
          "type": "address"
        }
      ],
      "name": "aliveNFTs",
      "outputs": [
        {
          "internalType": "uint256",
          "name": "",
          "type": "uint256"
        }
      ],
      "stateMutability": "view",
      "type": "function"
    },
    {
      "inputs": [
        {
          "internalType": "address",
          "name": "to",
          "type": "address"
        },
        {
          "internalType": "uint256",
          "name": "tokenId",
          "type": "uint256"
        }
      ],
      "name": "approve",
      "outputs": [],
      "stateMutability": "nonpayable",
      "type": "function"
    },
    {
      "inputs": [
        {
          "internalType": "address",
          "name": "owner",
          "type": "address"
        }
      ],
      "name": "balanceOf",
      "outputs": [
        {
          "internalType": "uint256",
          "name": "",
          "type": "uint256"
        }
      ],
      "stateMutability": "view",
      "type": "function"
    },
    {
      "inputs": [
        {
          "internalType": "address",
          "name": "player",
          "type": "address"
        }
      ],
      "name": "checkIfPlayerIsAlive",
      "outputs": [
        {
          "internalType": "bool",
          "name": "",
          "type": "bool"
        }
      ],
      "stateMutability": "view",
      "type": "function"
    },
    {
      "inputs": [
        {
          "internalType": "address",
          "name": "player",
          "type": "address"
        },
        {
          "internalType": "uint256",
          "name": "tokenId",
          "type": "uint256"
        }
      ],
      "name": "checkIfWinnerAndPayout",
      "outputs": [
        {
          "internalType": "string",
          "name": "",
          "type": "string"
        }
      ],
      "stateMutability": "payable",
      "type": "function"
    },
    {
      "inputs": [
        {
          "internalType": "address",
          "name": "",
          "type": "address"
        }
      ],
      "name": "deadNFTs",
      "outputs": [
        {
          "internalType": "uint256",
          "name": "",
          "type": "uint256"
        }
      ],
      "stateMutability": "view",
      "type": "function"
    },
    {
      "inputs": [
        {
          "internalType": "uint256",
          "name": "tokenId",
          "type": "uint256"
        }
      ],
      "name": "getApproved",
      "outputs": [
        {
          "internalType": "address",
          "name": "",
          "type": "address"
        }
      ],
      "stateMutability": "view",
      "type": "function"
    },
    {
      "inputs": [
        {
          "internalType": "address",
          "name": "player",
          "type": "address"
        }
      ],
      "name": "getTokenURIFromAddress",
      "outputs": [
        {
          "internalType": "string",
          "name": "",
          "type": "string"
        }
      ],
      "stateMutability": "view",
      "type": "function"
    },
    {
      "inputs": [
        {
          "internalType": "address",
          "name": "owner",
          "type": "address"
        },
        {
          "internalType": "address",
          "name": "operator",
          "type": "address"
        }
      ],
      "name": "isApprovedForAll",
      "outputs": [
        {
          "internalType": "bool",
          "name": "",
          "type": "bool"
        }
      ],
      "stateMutability": "view",
      "type": "function"
    },
    {
      "inputs": [],
      "name": "lastRoundAliveNFTCount",
      "outputs": [
        {
          "internalType": "uint256",
          "name": "_value",
          "type": "uint256"
        }
      ],
      "stateMutability": "view",
      "type": "function"
    },
    {
      "inputs": [
        {
          "internalType": "address",
          "name": "recipient",
          "type": "address"
        },
        {
          "internalType": "string",
          "name": "tokenURI",
          "type": "string"
        }
      ],
      "name": "mintNFT",
      "outputs": [
        {
          "internalType": "uint256",
          "name": "",
          "type": "uint256"
        }
      ],
      "stateMutability": "payable",
      "type": "function"
    },
    {
      "inputs": [],
      "name": "name",
      "outputs": [
        {
          "internalType": "string",
          "name": "",
          "type": "string"
        }
      ],
      "stateMutability": "view",
      "type": "function"
    },
    {
      "inputs": [
        {
          "internalType": "uint256",
          "name": "tokenId",
          "type": "uint256"
        }
      ],
      "name": "ownerOf",
      "outputs": [
        {
          "internalType": "address",
          "name": "",
          "type": "address"
        }
      ],
      "stateMutability": "view",
      "type": "function"
    },
    {
      "inputs": [
        {
          "internalType": "address",
          "name": "player",
          "type": "address"
        }
      ],
      "name": "playRound1",
      "outputs": [
        {
          "internalType": "string",
          "name": "",
          "type": "string"
        }
      ],
      "stateMutability": "nonpayable",
      "type": "function"
    },
    {
      "inputs": [
        {
          "internalType": "address",
          "name": "player",
          "type": "address"
        }
      ],
      "name": "playRound2",
      "outputs": [
        {
          "internalType": "string",
          "name": "",
          "type": "string"
        }
      ],
      "stateMutability": "nonpayable",
      "type": "function"
    },
    {
      "inputs": [
        {
          "internalType": "address",
          "name": "player",
          "type": "address"
        }
      ],
      "name": "playRound3",
      "outputs": [
        {
          "internalType": "string",
          "name": "",
          "type": "string"
        }
      ],
      "stateMutability": "nonpayable",
      "type": "function"
    },
    {
      "inputs": [],
      "name": "rand",
      "outputs": [
        {
          "internalType": "uint256",
          "name": "",
          "type": "uint256"
        }
      ],
      "stateMutability": "view",
      "type": "function"
    },
    {
      "inputs": [
        {
          "internalType": "address",
          "name": "from",
          "type": "address"
        },
        {
          "internalType": "address",
          "name": "to",
          "type": "address"
        },
        {
          "internalType": "uint256",
          "name": "tokenId",
          "type": "uint256"
        }
      ],
      "name": "safeTransferFrom",
      "outputs": [],
      "stateMutability": "nonpayable",
      "type": "function"
    },
    {
      "inputs": [
        {
          "internalType": "address",
          "name": "from",
          "type": "address"
        },
        {
          "internalType": "address",
          "name": "to",
          "type": "address"
        },
        {
          "internalType": "uint256",
          "name": "tokenId",
          "type": "uint256"
        },
        {
          "internalType": "bytes",
          "name": "data",
          "type": "bytes"
        }
      ],
      "name": "safeTransferFrom",
      "outputs": [],
      "stateMutability": "nonpayable",
      "type": "function"
    },
    {
      "inputs": [
        {
          "internalType": "address",
          "name": "operator",
          "type": "address"
        },
        {
          "internalType": "bool",
          "name": "approved",
          "type": "bool"
        }
      ],
      "name": "setApprovalForAll",
      "outputs": [],
      "stateMutability": "nonpayable",
      "type": "function"
    },
    {
      "inputs": [
        {
          "internalType": "bytes4",
          "name": "interfaceId",
          "type": "bytes4"
        }
      ],
      "name": "supportsInterface",
      "outputs": [
        {
          "internalType": "bool",
          "name": "",
          "type": "bool"
        }
      ],
      "stateMutability": "view",
      "type": "function"
    },
    {
      "inputs": [],
      "name": "symbol",
      "outputs": [
        {
          "internalType": "string",
          "name": "",
          "type": "string"
        }
      ],
      "stateMutability": "view",
      "type": "function"
    },
    {
      "inputs": [
        {
          "internalType": "uint256",
          "name": "tokenId",
          "type": "uint256"
        }
      ],
      "name": "tokenURI",
      "outputs": [
        {
          "internalType": "string",
          "name": "",
          "type": "string"
        }
      ],
      "stateMutability": "view",
      "type": "function"
    },
    {
      "inputs": [
        {
          "internalType": "address",
          "name": "from",
          "type": "address"
        },
        {
          "internalType": "address",
          "name": "to",
          "type": "address"
        },
        {
          "internalType": "uint256",
          "name": "tokenId",
          "type": "uint256"
        }
      ],
      "name": "transferFrom",
      "outputs": [],
      "stateMutability": "nonpayable",
      "type": "function"
    }
  ],
  "bytecode": "0x60806040523480156200001157600080fd5b506040518060400160405280600a81526020017f4f63746f70757346756e000000000000000000000000000000000000000000008152506040518060400160405280600381526020017f4f43460000000000000000000000000000000000000000000000000000000000815250816000908051906020019062000096929190620000c0565b508060019080519060200190620000af929190620000c0565b5050506001600781905550620001d5565b828054620000ce9062000170565b90600052602060002090601f016020900481019282620000f257600085556200013e565b82601f106200010d57805160ff19168380011785556200013e565b828001600101855582156200013e579182015b828111156200013d57825182559160200191906001019062000120565b5b5090506200014d919062000151565b5090565b5b808211156200016c57600081600090555060010162000152565b5090565b600060028204905060018216806200018957607f821691505b60208210811415620001a0576200019f620001a6565b5b50919050565b7f4e487b7100000000000000000000000000000000000000000000000000000000600052602260045260246000fd5b614d1180620001e56000396000f3fe6080604052600436106101b75760003560e01c80636352211e116100ec578063bdac42341161008a578063e712604711610064578063e712604714610697578063e985e9c5146106d4578063eacabe1414610711578063fbeae8fc14610741576101b7565b8063bdac4234146105f2578063c87b56dd1461061d578063da7973db1461065a576101b7565b806395d89b41116100c657806395d89b4114610538578063a22cb46514610563578063a47307251461058c578063b88d4fde146105c9576101b7565b80636352211e146104815780636511bf2e146104be57806370a08231146104fb576101b7565b806325383d17116101595780633b3dca76116101335780633b3dca76146103b357806341a0eded146103de57806342842e0e1461041b5780634afad5c214610444576101b7565b806325383d171461032d57806333d092a61461035857806338ee773014610383576101b7565b8063095ea7b311610195578063095ea7b31461026157806311ae77c61461028a57806315981cf7146102c757806323b872dd14610304576101b7565b806301ffc9a7146101bc57806306fdde03146101f9578063081812fc14610224575b600080fd5b3480156101c857600080fd5b506101e360048036038101906101de91906137ee565b61076c565b6040516101f091906143f8565b60405180910390f35b34801561020557600080fd5b5061020e61084e565b60405161021b9190614413565b60405180910390f35b34801561023057600080fd5b5061024b60048036038101906102469190613840565b6108e0565b6040516102589190614391565b60405180910390f35b34801561026d57600080fd5b50610288600480360381019061028391906137b2565b610965565b005b34801561029657600080fd5b506102b160048036038101906102ac91906135f3565b610a7d565b6040516102be9190614413565b60405180910390f35b3480156102d357600080fd5b506102ee60048036038101906102e991906135f3565b610cf2565b6040516102fb91906143f8565b60405180910390f35b34801561031057600080fd5b5061032b60048036038101906103269190613658565b610d3d565b005b34801561033957600080fd5b50610342610fbd565b60405161034f9190614775565b60405180910390f35b34801561036457600080fd5b5061036d610fc9565b60405161037a9190614775565b60405180910390f35b61039d600480360381019061039891906137b2565b610fd5565b6040516103aa9190614413565b60405180910390f35b3480156103bf57600080fd5b506103c8611345565b6040516103d59190614775565b60405180910390f35b3480156103ea57600080fd5b50610405600480360381019061040091906135f3565b61143d565b6040516104129190614775565b60405180910390f35b34801561042757600080fd5b50610442600480360381019061043d9190613658565b611455565b005b34801561045057600080fd5b5061046b600480360381019061046691906135f3565b6116d5565b6040516104789190614775565b60405180910390f35b34801561048d57600080fd5b506104a860048036038101906104a39190613840565b6116ed565b6040516104b59190614391565b60405180910390f35b3480156104ca57600080fd5b506104e560048036038101906104e091906135f3565b61179f565b6040516104f29190614775565b60405180910390f35b34801561050757600080fd5b50610522600480360381019061051d91906135f3565b6117b7565b60405161052f9190614775565b60405180910390f35b34801561054457600080fd5b5061054d61186f565b60405161055a9190614413565b60405180910390f35b34801561056f57600080fd5b5061058a60048036038101906105859190613722565b611901565b005b34801561059857600080fd5b506105b360048036038101906105ae91906135f3565b611a82565b6040516105c09190614413565b60405180910390f35b3480156105d557600080fd5b506105f060048036038101906105eb91906136a7565b611b1d565b005b3480156105fe57600080fd5b50610607611d9f565b6040516106149190614775565b60405180910390f35b34801561062957600080fd5b50610644600480360381019061063f9190613840565b611da5565b6040516106519190614413565b60405180910390f35b34801561066657600080fd5b50610681600480360381019061067c91906135f3565b611ef7565b60405161068e9190614413565b60405180910390f35b3480156106a357600080fd5b506106be60048036038101906106b991906135f3565b612162565b6040516106cb9190614413565b60405180910390f35b3480156106e057600080fd5b506106fb60048036038101906106f6919061361c565b6123cd565b60405161070891906143f8565b60405180910390f35b61072b6004803603810190610726919061375e565b612461565b6040516107389190614775565b60405180910390f35b34801561074d57600080fd5b50610756612610565b6040516107639190614775565b60405180910390f35b60007f80ac58cd000000000000000000000000000000000000000000000000000000007bffffffffffffffffffffffffffffffffffffffffffffffffffffffff1916827bffffffffffffffffffffffffffffffffffffffffffffffffffffffff1916148061083757507f5b5e139f000000000000000000000000000000000000000000000000000000007bffffffffffffffffffffffffffffffffffffffffffffffffffffffff1916827bffffffffffffffffffffffffffffffffffffffffffffffffffffffff1916145b8061084757506108468261261c565b5b9050919050565b60606000805461085d90614a41565b80601f016020809104026020016040519081016040528092919081815260200182805461088990614a41565b80156108d65780601f106108ab576101008083540402835291602001916108d6565b820191906000526020600020905b8154815290600101906020018083116108b957829003601f168201915b5050505050905090565b60006108eb82612686565b61092a576040517f08c379a000000000000000000000000000000000000000000000000000000000815260040161092190614675565b60405180910390fd5b6004600083815260200190815260200160002060009054906101000a900473ffffffffffffffffffffffffffffffffffffffff169050919050565b6000610970826116ed565b90508073ffffffffffffffffffffffffffffffffffffffff168373ffffffffffffffffffffffffffffffffffffffff1614156109e1576040517f08c379a00000000000000000000000000000000000000000000000000000000081526004016109d8906146d5565b60405180910390fd5b8073ffffffffffffffffffffffffffffffffffffffff16610a006126f2565b73ffffffffffffffffffffffffffffffffffffffff161480610a2f5750610a2e81610a296126f2565b6123cd565b5b610a6e576040517f08c379a0000000000000000000000000000000000000000000000000000000008152600401610a6590614555565b60405180910390fd5b610a7883836126fa565b505050565b606060026007541415610ac5576040517f08c379a0000000000000000000000000000000000000000000000000000000008152600401610abc90614755565b60405180910390fd5b60026007819055503373ffffffffffffffffffffffffffffffffffffffff168273ffffffffffffffffffffffffffffffffffffffff1614610b3b576040517f08c379a0000000000000000000000000000000000000000000000000000000008152600401610b3290614575565b60405180910390fd5b6000600b60008473ffffffffffffffffffffffffffffffffffffffff1673ffffffffffffffffffffffffffffffffffffffff16815260200190815260200160002054905060008114158015610b905750600381145b610bcf576040517f08c379a0000000000000000000000000000000000000000000000000000000008152600401610bc690614435565b60405180910390fd5b6000610bd9611345565b90506101f3811015610c1157610bef84836127b3565b604051806060016040528060288152602001614cb46028913992505050610ce5565b6001600b60008673ffffffffffffffffffffffffffffffffffffffff1673ffffffffffffffffffffffffffffffffffffffff16815260200190815260200160002054610c5d9190614864565b600b60008673ffffffffffffffffffffffffffffffffffffffff1673ffffffffffffffffffffffffffffffffffffffff16815260200190815260200160002081905550610caa600a61284a565b6040518060400160405280601f81526020017f436f6e67726174732c20796f7520737572766976656420726f756e6420332e00815250925050505b6001600781905550919050565b600080600b60008473ffffffffffffffffffffffffffffffffffffffff1673ffffffffffffffffffffffffffffffffffffffff16815260200190815260200160002054119050919050565b6000600b60008473ffffffffffffffffffffffffffffffffffffffff1673ffffffffffffffffffffffffffffffffffffffff16815260200190815260200160002054148015610dcb57506000600c60008473ffffffffffffffffffffffffffffffffffffffff1673ffffffffffffffffffffffffffffffffffffffff16815260200190815260200160002054145b610dd457600080fd5b610ddf838383612860565b6000600b60008573ffffffffffffffffffffffffffffffffffffffff1673ffffffffffffffffffffffffffffffffffffffff168152602001908152602001600020541115610fb857600b60008473ffffffffffffffffffffffffffffffffffffffff1673ffffffffffffffffffffffffffffffffffffffff16815260200190815260200160002054600b60008473ffffffffffffffffffffffffffffffffffffffff1673ffffffffffffffffffffffffffffffffffffffff168152602001908152602001600020819055506000600b60008573ffffffffffffffffffffffffffffffffffffffff1673ffffffffffffffffffffffffffffffffffffffff16815260200190815260200160002081905550600d60008473ffffffffffffffffffffffffffffffffffffffff1673ffffffffffffffffffffffffffffffffffffffff16815260200190815260200160002054600d60008473ffffffffffffffffffffffffffffffffffffffff1673ffffffffffffffffffffffffffffffffffffffff168152602001908152602001600020819055506000600d60008573ffffffffffffffffffffffffffffffffffffffff1673ffffffffffffffffffffffffffffffffffffffff168152602001908152602001600020819055505b505050565b60098060000154905081565b67016345785d8a000081565b60606002600754141561101d576040517f08c379a000000000000000000000000000000000000000000000000000000000815260040161101490614755565b60405180910390fd5b60026007819055506000611030836116ed565b90508073ffffffffffffffffffffffffffffffffffffffff168473ffffffffffffffffffffffffffffffffffffffff1614801561109857503373ffffffffffffffffffffffffffffffffffffffff168473ffffffffffffffffffffffffffffffffffffffff16145b80156110cf57503373ffffffffffffffffffffffffffffffffffffffff168173ffffffffffffffffffffffffffffffffffffffff16145b61110e576040517f08c379a000000000000000000000000000000000000000000000000000000000815260040161110590614575565b60405180910390fd5b600161111a60096128c0565b14156111fb576000600b60008673ffffffffffffffffffffffffffffffffffffffff1673ffffffffffffffffffffffffffffffffffffffff1681526020019081526020016000205414156111a3576040517f08c379a000000000000000000000000000000000000000000000000000000000815260040161119a906144b5565b60405180910390fd5b600084905060004790508173ffffffffffffffffffffffffffffffffffffffff166108fc829081150290604051600060405180830381858888f193505050501580156111f3573d6000803e3d6000fd5b5050506112fe565b6000600b60008673ffffffffffffffffffffffffffffffffffffffff1673ffffffffffffffffffffffffffffffffffffffff168152602001908152602001600020549050600081141580156112505750600481145b61128f576040517f08c379a000000000000000000000000000000000000000000000000000000000815260040161128690614455565b60405180910390fd5b600047905060006112a0600a6128c0565b9050600081836112b091906148ba565b90508773ffffffffffffffffffffffffffffffffffffffff166108fc829081150290604051600060405180830381858888f193505050501580156112f8573d6000803e3d6000fd5b50505050505b6040518060400160405280602081526020017f596f7527766520776f6e212048657265277320796f75722077696e6e696e6773815250915050600160078190555092915050565b60008043423360405160200161135b919061431c565b6040516020818303038152906040528051906020012060001c61137e91906148ba565b4542416040516020016113919190614337565b6040516020818303038152906040528051906020012060001c6113b491906148ba565b44426113c09190614864565b6113ca9190614864565b6113d49190614864565b6113de9190614864565b6113e89190614864565b6040516020016113f89190614376565b6040516020818303038152906040528051906020012060001c90506103e8808261142291906148ba565b61142c91906148eb565b816114379190614945565b91505090565b600b6020528060005260406000206000915090505481565b6000600b60008473ffffffffffffffffffffffffffffffffffffffff1673ffffffffffffffffffffffffffffffffffffffff168152602001908152602001600020541480156114e357506000600c60008473ffffffffffffffffffffffffffffffffffffffff1673ffffffffffffffffffffffffffffffffffffffff16815260200190815260200160002054145b6114ec57600080fd5b6114f78383836128ce565b6000600b60008573ffffffffffffffffffffffffffffffffffffffff1673ffffffffffffffffffffffffffffffffffffffff1681526020019081526020016000205411156116d057600b60008473ffffffffffffffffffffffffffffffffffffffff1673ffffffffffffffffffffffffffffffffffffffff16815260200190815260200160002054600b60008473ffffffffffffffffffffffffffffffffffffffff1673ffffffffffffffffffffffffffffffffffffffff168152602001908152602001600020819055506000600b60008573ffffffffffffffffffffffffffffffffffffffff1673ffffffffffffffffffffffffffffffffffffffff16815260200190815260200160002081905550600d60008473ffffffffffffffffffffffffffffffffffffffff1673ffffffffffffffffffffffffffffffffffffffff16815260200190815260200160002054600d60008473ffffffffffffffffffffffffffffffffffffffff1673ffffffffffffffffffffffffffffffffffffffff168152602001908152602001600020819055506000600d60008573ffffffffffffffffffffffffffffffffffffffff1673ffffffffffffffffffffffffffffffffffffffff168152602001908152602001600020819055505b505050565b600c6020528060005260406000206000915090505481565b6000806002600084815260200190815260200160002060009054906101000a900473ffffffffffffffffffffffffffffffffffffffff169050600073ffffffffffffffffffffffffffffffffffffffff168173ffffffffffffffffffffffffffffffffffffffff161415611796576040517f08c379a000000000000000000000000000000000000000000000000000000000815260040161178d906145b5565b60405180910390fd5b80915050919050565b600d6020528060005260406000206000915090505481565b60008073ffffffffffffffffffffffffffffffffffffffff168273ffffffffffffffffffffffffffffffffffffffff161415611828576040517f08c379a000000000000000000000000000000000000000000000000000000000815260040161181f90614595565b60405180910390fd5b600360008373ffffffffffffffffffffffffffffffffffffffff1673ffffffffffffffffffffffffffffffffffffffff168152602001908152602001600020549050919050565b60606001805461187e90614a41565b80601f01602080910402602001604051908101604052809291908181526020018280546118aa90614a41565b80156118f75780601f106118cc576101008083540402835291602001916118f7565b820191906000526020600020905b8154815290600101906020018083116118da57829003601f168201915b5050505050905090565b6119096126f2565b73ffffffffffffffffffffffffffffffffffffffff168273ffffffffffffffffffffffffffffffffffffffff161415611977576040517f08c379a000000000000000000000000000000000000000000000000000000000815260040161196e90614515565b60405180910390fd5b80600560006119846126f2565b73ffffffffffffffffffffffffffffffffffffffff1673ffffffffffffffffffffffffffffffffffffffff16815260200190815260200160002060008473ffffffffffffffffffffffffffffffffffffffff1673ffffffffffffffffffffffffffffffffffffffff16815260200190815260200160002060006101000a81548160ff0219169083151502179055508173ffffffffffffffffffffffffffffffffffffffff16611a316126f2565b73ffffffffffffffffffffffffffffffffffffffff167f17307eab39ab6107e8899845ad3d59bd9653f200f220920489ca2b5937696c3183604051611a7691906143f8565b60405180910390a35050565b60606000600d60008473ffffffffffffffffffffffffffffffffffffffff1673ffffffffffffffffffffffffffffffffffffffff1681526020019081526020016000205490506000811415611b0c576040517f08c379a0000000000000000000000000000000000000000000000000000000008152600401611b03906145f5565b60405180910390fd5b611b1581611da5565b915050919050565b6000600b60008573ffffffffffffffffffffffffffffffffffffffff1673ffffffffffffffffffffffffffffffffffffffff16815260200190815260200160002054148015611bab57506000600c60008573ffffffffffffffffffffffffffffffffffffffff1673ffffffffffffffffffffffffffffffffffffffff16815260200190815260200160002054145b611bb457600080fd5b611bc0848484846128ee565b6000600b60008673ffffffffffffffffffffffffffffffffffffffff1673ffffffffffffffffffffffffffffffffffffffff168152602001908152602001600020541115611d9957600b60008573ffffffffffffffffffffffffffffffffffffffff1673ffffffffffffffffffffffffffffffffffffffff16815260200190815260200160002054600b60008573ffffffffffffffffffffffffffffffffffffffff1673ffffffffffffffffffffffffffffffffffffffff168152602001908152602001600020819055506000600b60008673ffffffffffffffffffffffffffffffffffffffff1673ffffffffffffffffffffffffffffffffffffffff16815260200190815260200160002081905550600d60008573ffffffffffffffffffffffffffffffffffffffff1673ffffffffffffffffffffffffffffffffffffffff16815260200190815260200160002054600d60008573ffffffffffffffffffffffffffffffffffffffff1673ffffffffffffffffffffffffffffffffffffffff168152602001908152602001600020819055506000600d60008673ffffffffffffffffffffffffffffffffffffffff1673ffffffffffffffffffffffffffffffffffffffff168152602001908152602001600020819055505b50505050565b6101c881565b6060611db082612686565b611def576040517f08c379a0000000000000000000000000000000000000000000000000000000008152600401611de690614655565b60405180910390fd5b6000600660008481526020019081526020016000208054611e0f90614a41565b80601f0160208091040260200160405190810160405280929190818152602001828054611e3b90614a41565b8015611e885780601f10611e5d57610100808354040283529160200191611e88565b820191906000526020600020905b815481529060010190602001808311611e6b57829003601f168201915b505050505090506000611e99612950565b9050600081511415611eaf578192505050611ef2565b600082511115611ee4578082604051602001611ecc929190614352565b60405160208183030381529060405292505050611ef2565b611eed84612967565b925050505b919050565b606060026007541415611f3f576040517f08c379a0000000000000000000000000000000000000000000000000000000008152600401611f3690614755565b60405180910390fd5b60026007819055503373ffffffffffffffffffffffffffffffffffffffff168273ffffffffffffffffffffffffffffffffffffffff1614611fb5576040517f08c379a0000000000000000000000000000000000000000000000000000000008152600401611fac90614575565b60405180910390fd5b6000600b60008473ffffffffffffffffffffffffffffffffffffffff1673ffffffffffffffffffffffffffffffffffffffff1681526020019081526020016000205490506000811415801561200a5750600181145b612049576040517f08c379a000000000000000000000000000000000000000000000000000000000815260040161204090614635565b60405180910390fd5b6000612053611345565b90506101f381101561208b5761206984836127b3565b604051806060016040528060288152602001614c646028913992505050612155565b6001600b60008673ffffffffffffffffffffffffffffffffffffffff1673ffffffffffffffffffffffffffffffffffffffff168152602001908152602001600020546120d79190614864565b600b60008673ffffffffffffffffffffffffffffffffffffffff1673ffffffffffffffffffffffffffffffffffffffff168152602001908152602001600020819055506040518060400160405280601f81526020017f436f6e67726174732c20796f7520737572766976656420726f756e6420312e00815250925050505b6001600781905550919050565b6060600260075414156121aa576040517f08c379a00000000000000000000000000000000000000000000000000000000081526004016121a190614755565b60405180910390fd5b60026007819055503373ffffffffffffffffffffffffffffffffffffffff168273ffffffffffffffffffffffffffffffffffffffff1614612220576040517f08c379a000000000000000000000000000000000000000000000000000000000815260040161221790614575565b60405180910390fd5b6000600b60008473ffffffffffffffffffffffffffffffffffffffff1673ffffffffffffffffffffffffffffffffffffffff168152602001908152602001600020549050600081141580156122755750600281145b6122b4576040517f08c379a00000000000000000000000000000000000000000000000000000000081526004016122ab906146f5565b60405180910390fd5b60006122be611345565b90506101f38110156122f6576122d484836127b3565b604051806060016040528060288152602001614c8c60289139925050506123c0565b6001600b60008673ffffffffffffffffffffffffffffffffffffffff1673ffffffffffffffffffffffffffffffffffffffff168152602001908152602001600020546123429190614864565b600b60008673ffffffffffffffffffffffffffffffffffffffff1673ffffffffffffffffffffffffffffffffffffffff168152602001908152602001600020819055506040518060400160405280601f81526020017f436f6e67726174732c20796f7520737572766976656420726f756e6420322e00815250925050505b6001600781905550919050565b6000600560008473ffffffffffffffffffffffffffffffffffffffff1673ffffffffffffffffffffffffffffffffffffffff16815260200190815260200160002060008373ffffffffffffffffffffffffffffffffffffffff1673ffffffffffffffffffffffffffffffffffffffff16815260200190815260200160002060009054906101000a900460ff16905092915050565b60006101c861247060086128c0565b106124b0576040517f08c379a00000000000000000000000000000000000000000000000000000000081526004016124a790614735565b60405180910390fd5b6000600b60008573ffffffffffffffffffffffffffffffffffffffff1673ffffffffffffffffffffffffffffffffffffffff1681526020019081526020016000205414801561253e57506000600c60008573ffffffffffffffffffffffffffffffffffffffff1673ffffffffffffffffffffffffffffffffffffffff16815260200190815260200160002054145b61254757600080fd5b612551600861284a565b61255b600961284a565b600061256760086128c0565b90506125738482612a0e565b61257d8184612a2c565b6001600b60008673ffffffffffffffffffffffffffffffffffffffff1673ffffffffffffffffffffffffffffffffffffffff1681526020019081526020016000208190555080600d60008673ffffffffffffffffffffffffffffffffffffffff1673ffffffffffffffffffffffffffffffffffffffff168152602001908152602001600020819055508091505092915050565b600a8060000154905081565b60007f01ffc9a7000000000000000000000000000000000000000000000000000000007bffffffffffffffffffffffffffffffffffffffffffffffffffffffff1916827bffffffffffffffffffffffffffffffffffffffffffffffffffffffff1916149050919050565b60008073ffffffffffffffffffffffffffffffffffffffff166002600084815260200190815260200160002060009054906101000a900473ffffffffffffffffffffffffffffffffffffffff1673ffffffffffffffffffffffffffffffffffffffff1614159050919050565b600033905090565b816004600083815260200190815260200160002060006101000a81548173ffffffffffffffffffffffffffffffffffffffff021916908373ffffffffffffffffffffffffffffffffffffffff160217905550808273ffffffffffffffffffffffffffffffffffffffff1661276d836116ed565b73ffffffffffffffffffffffffffffffffffffffff167f8c5be1e5ebec7d5bd14f71427d1e84f3dd0314c0f7b2291e5b200ac8c7c3b92560405160405180910390a45050565b6000600b60008473ffffffffffffffffffffffffffffffffffffffff1673ffffffffffffffffffffffffffffffffffffffff1681526020019081526020016000208190555080600c60008473ffffffffffffffffffffffffffffffffffffffff1673ffffffffffffffffffffffffffffffffffffffff168152602001908152602001600020819055506128466009612aa0565b5050565b6001816000016000828254019250508190555050565b61287161286b6126f2565b82612afc565b6128b0576040517f08c379a00000000000000000000000000000000000000000000000000000000081526004016128a790614715565b60405180910390fd5b6128bb838383612bda565b505050565b600081600001549050919050565b6128e983838360405180602001604052806000815250611b1d565b505050565b6128ff6128f96126f2565b83612afc565b61293e576040517f08c379a000000000000000000000000000000000000000000000000000000000815260040161293590614715565b60405180910390fd5b61294a84848484612e36565b50505050565b606060405180602001604052806000815250905090565b606061297282612686565b6129b1576040517f08c379a00000000000000000000000000000000000000000000000000000000081526004016129a8906146b5565b60405180910390fd5b60006129bb612950565b905060008151116129db5760405180602001604052806000815250612a06565b806129e584612e92565b6040516020016129f6929190614352565b6040516020818303038152906040525b915050919050565b612a2882826040518060200160405280600081525061303f565b5050565b612a3582612686565b612a74576040517f08c379a0000000000000000000000000000000000000000000000000000000008152600401612a6b906145d5565b60405180910390fd5b80600660008481526020019081526020016000209080519060200190612a9b929190613417565b505050565b60008160000154905060008111612aec576040517f08c379a0000000000000000000000000000000000000000000000000000000008152600401612ae390614475565b60405180910390fd5b6001810382600001819055505050565b6000612b0782612686565b612b46576040517f08c379a0000000000000000000000000000000000000000000000000000000008152600401612b3d90614535565b60405180910390fd5b6000612b51836116ed565b90508073ffffffffffffffffffffffffffffffffffffffff168473ffffffffffffffffffffffffffffffffffffffff161480612bc057508373ffffffffffffffffffffffffffffffffffffffff16612ba8846108e0565b73ffffffffffffffffffffffffffffffffffffffff16145b80612bd15750612bd081856123cd565b5b91505092915050565b8273ffffffffffffffffffffffffffffffffffffffff16612bfa826116ed565b73ffffffffffffffffffffffffffffffffffffffff1614612c50576040517f08c379a0000000000000000000000000000000000000000000000000000000008152600401612c4790614695565b60405180910390fd5b600073ffffffffffffffffffffffffffffffffffffffff168273ffffffffffffffffffffffffffffffffffffffff161415612cc0576040517f08c379a0000000000000000000000000000000000000000000000000000000008152600401612cb7906144f5565b60405180910390fd5b612ccb83838361309a565b612cd66000826126fa565b6001600360008573ffffffffffffffffffffffffffffffffffffffff1673ffffffffffffffffffffffffffffffffffffffff1681526020019081526020016000206000828254612d269190614945565b925050819055506001600360008473ffffffffffffffffffffffffffffffffffffffff1673ffffffffffffffffffffffffffffffffffffffff1681526020019081526020016000206000828254612d7d9190614864565b92505081905550816002600083815260200190815260200160002060006101000a81548173ffffffffffffffffffffffffffffffffffffffff021916908373ffffffffffffffffffffffffffffffffffffffff160217905550808273ffffffffffffffffffffffffffffffffffffffff168473ffffffffffffffffffffffffffffffffffffffff167fddf252ad1be2c89b69c2b068fc378daa952ba7f163c4a11628f55a4df523b3ef60405160405180910390a4505050565b612e41848484612bda565b612e4d8484848461309f565b612e8c576040517f08c379a0000000000000000000000000000000000000000000000000000000008152600401612e8390614495565b60405180910390fd5b50505050565b60606000821415612eda576040518060400160405280600181526020017f3000000000000000000000000000000000000000000000000000000000000000815250905061303a565b600082905060005b60008214612f0c578080612ef590614a73565b915050600a82612f0591906148ba565b9150612ee2565b60008167ffffffffffffffff811115612f4e577f4e487b7100000000000000000000000000000000000000000000000000000000600052604160045260246000fd5b6040519080825280601f01601f191660200182016040528015612f805781602001600182028036833780820191505090505b5090505b6000851461303357600182612f999190614945565b9150600a85612fa89190614afc565b6030612fb49190614864565b60f81b818381518110612ff0577f4e487b7100000000000000000000000000000000000000000000000000000000600052603260045260246000fd5b60200101907effffffffffffffffffffffffffffffffffffffffffffffffffffffffffffff1916908160001a905350600a8561302c91906148ba565b9450612f84565b8093505050505b919050565b6130498383613236565b613056600084848461309f565b613095576040517f08c379a000000000000000000000000000000000000000000000000000000000815260040161308c90614495565b60405180910390fd5b505050565b505050565b60006130c08473ffffffffffffffffffffffffffffffffffffffff16613404565b15613229578373ffffffffffffffffffffffffffffffffffffffff1663150b7a026130e96126f2565b8786866040518563ffffffff1660e01b815260040161310b94939291906143ac565b602060405180830381600087803b15801561312557600080fd5b505af192505050801561315657506040513d601f19601f820116820180604052508101906131539190613817565b60015b6131d9573d8060008114613186576040519150601f19603f3d011682016040523d82523d6000602084013e61318b565b606091505b506000815114156131d1576040517f08c379a00000000000000000000000000000000000000000000000000000000081526004016131c890614495565b60405180910390fd5b805181602001fd5b63150b7a0260e01b7bffffffffffffffffffffffffffffffffffffffffffffffffffffffff1916817bffffffffffffffffffffffffffffffffffffffffffffffffffffffff19161491505061322e565b600190505b949350505050565b600073ffffffffffffffffffffffffffffffffffffffff168273ffffffffffffffffffffffffffffffffffffffff1614156132a6576040517f08c379a000000000000000000000000000000000000000000000000000000000815260040161329d90614615565b60405180910390fd5b6132af81612686565b156132ef576040517f08c379a00000000000000000000000000000000000000000000000000000000081526004016132e6906144d5565b60405180910390fd5b6132fb6000838361309a565b6001600360008473ffffffffffffffffffffffffffffffffffffffff1673ffffffffffffffffffffffffffffffffffffffff168152602001908152602001600020600082825461334b9190614864565b92505081905550816002600083815260200190815260200160002060006101000a81548173ffffffffffffffffffffffffffffffffffffffff021916908373ffffffffffffffffffffffffffffffffffffffff160217905550808273ffffffffffffffffffffffffffffffffffffffff16600073ffffffffffffffffffffffffffffffffffffffff167fddf252ad1be2c89b69c2b068fc378daa952ba7f163c4a11628f55a4df523b3ef60405160405180910390a45050565b600080823b905060008111915050919050565b82805461342390614a41565b90600052602060002090601f016020900481019282613445576000855561348c565b82601f1061345e57805160ff191683800117855561348c565b8280016001018555821561348c579182015b8281111561348b578251825591602001919060010190613470565b5b509050613499919061349d565b5090565b5b808211156134b657600081600090555060010161349e565b5090565b60006134cd6134c8846147c1565b614790565b9050828152602081018484840111156134e557600080fd5b6134f08482856149ff565b509392505050565b600061350b613506846147f1565b614790565b90508281526020810184848401111561352357600080fd5b61352e8482856149ff565b509392505050565b60008135905061354581614c07565b92915050565b60008135905061355a81614c1e565b92915050565b60008135905061356f81614c35565b92915050565b60008151905061358481614c35565b92915050565b600082601f83011261359b57600080fd5b81356135ab8482602086016134ba565b91505092915050565b600082601f8301126135c557600080fd5b81356135d58482602086016134f8565b91505092915050565b6000813590506135ed81614c4c565b92915050565b60006020828403121561360557600080fd5b600061361384828501613536565b91505092915050565b6000806040838503121561362f57600080fd5b600061363d85828601613536565b925050602061364e85828601613536565b9150509250929050565b60008060006060848603121561366d57600080fd5b600061367b86828701613536565b935050602061368c86828701613536565b925050604061369d868287016135de565b9150509250925092565b600080600080608085870312156136bd57600080fd5b60006136cb87828801613536565b94505060206136dc87828801613536565b93505060406136ed878288016135de565b925050606085013567ffffffffffffffff81111561370a57600080fd5b6137168782880161358a565b91505092959194509250565b6000806040838503121561373557600080fd5b600061374385828601613536565b92505060206137548582860161354b565b9150509250929050565b6000806040838503121561377157600080fd5b600061377f85828601613536565b925050602083013567ffffffffffffffff81111561379c57600080fd5b6137a8858286016135b4565b9150509250929050565b600080604083850312156137c557600080fd5b60006137d385828601613536565b92505060206137e4858286016135de565b9150509250929050565b60006020828403121561380057600080fd5b600061380e84828501613560565b91505092915050565b60006020828403121561382957600080fd5b600061383784828501613575565b91505092915050565b60006020828403121561385257600080fd5b6000613860848285016135de565b91505092915050565b61387a6138758261498b565b614ace565b82525050565b61388981614979565b82525050565b6138a061389b82614979565b614abc565b82525050565b6138af8161499d565b82525050565b60006138c082614821565b6138ca8185614837565b93506138da818560208601614a0e565b6138e381614be9565b840191505092915050565b60006138f98261482c565b6139038185614848565b9350613913818560208601614a0e565b61391c81614be9565b840191505092915050565b60006139328261482c565b61393c8185614859565b935061394c818560208601614a0e565b80840191505092915050565b6000613965603983614848565b91507f4d757374206265206120706c61796572207769746820616e204e46542074686160008301527f74277320616c69766520616e6420696e20726f756e64203321000000000000006020830152604082019050919050565b60006139cb604283614848565b91507f4d757374206265206120706c61796572207769746820616e204e46542074686160008301527f74277320616c69766520616e642070617373656420616c6c203320726f756e6460208301527f73210000000000000000000000000000000000000000000000000000000000006040830152606082019050919050565b6000613a57601b83614848565b91507f436f756e7465723a2064656372656d656e74206f766572666c6f7700000000006000830152602082019050919050565b6000613a97603283614848565b91507f4552433732313a207472616e7366657220746f206e6f6e20455243373231526560008301527f63656976657220696d706c656d656e74657200000000000000000000000000006020830152604082019050919050565b6000613afd602083614848565b91507f596f7520617265206e6f74207468652077696e6e657220746869732074696d656000830152602082019050919050565b6000613b3d601c83614848565b91507f4552433732313a20746f6b656e20616c7265616479206d696e746564000000006000830152602082019050919050565b6000613b7d602483614848565b91507f4552433732313a207472616e7366657220746f20746865207a65726f2061646460008301527f72657373000000000000000000000000000000000000000000000000000000006020830152604082019050919050565b6000613be3601983614848565b91507f4552433732313a20617070726f766520746f2063616c6c6572000000000000006000830152602082019050919050565b6000613c23602c83614848565b91507f4552433732313a206f70657261746f7220717565727920666f72206e6f6e657860008301527f697374656e7420746f6b656e00000000000000000000000000000000000000006020830152604082019050919050565b6000613c89603883614848565b91507f4552433732313a20617070726f76652063616c6c6572206973206e6f74206f7760008301527f6e6572206e6f7220617070726f76656420666f7220616c6c00000000000000006020830152604082019050919050565b6000613cef603483614848565b91507f4974207365656d73206c696b6520796f7520617265206e6f7420746865206f7760008301527f6e6572206f66207468697320746f6b656e2e2e2e0000000000000000000000006020830152604082019050919050565b6000613d55602a83614848565b91507f4552433732313a2062616c616e636520717565727920666f7220746865207a6560008301527f726f2061646472657373000000000000000000000000000000000000000000006020830152604082019050919050565b6000613dbb602983614848565b91507f4552433732313a206f776e657220717565727920666f72206e6f6e657869737460008301527f656e7420746f6b656e00000000000000000000000000000000000000000000006020830152604082019050919050565b6000613e21602e83614848565b91507f45524337323155524953746f726167653a2055524920736574206f66206e6f6e60008301527f6578697374656e7420746f6b656e0000000000000000000000000000000000006020830152604082019050919050565b6000613e87602283614848565b91507f596f7572206164647265737320646f6573206e6f742068617665206120746f6b60008301527f656e0000000000000000000000000000000000000000000000000000000000006020830152604082019050919050565b6000613eed602083614848565b91507f4552433732313a206d696e7420746f20746865207a65726f20616464726573736000830152602082019050919050565b6000613f2d603983614848565b91507f4d757374206265206120706c61796572207769746820616e204e46542074686160008301527f74277320616c69766520616e6420696e20726f756e64203121000000000000006020830152604082019050919050565b6000613f93603183614848565b91507f45524337323155524953746f726167653a2055524920717565727920666f722060008301527f6e6f6e6578697374656e7420746f6b656e0000000000000000000000000000006020830152604082019050919050565b6000613ff9602c83614848565b91507f4552433732313a20617070726f76656420717565727920666f72206e6f6e657860008301527f697374656e7420746f6b656e00000000000000000000000000000000000000006020830152604082019050919050565b600061405f602983614848565b91507f4552433732313a207472616e73666572206f6620746f6b656e2074686174206960008301527f73206e6f74206f776e00000000000000000000000000000000000000000000006020830152604082019050919050565b60006140c5602f83614848565b91507f4552433732314d657461646174613a2055524920717565727920666f72206e6f60008301527f6e6578697374656e7420746f6b656e00000000000000000000000000000000006020830152604082019050919050565b600061412b602183614848565b91507f4552433732313a20617070726f76616c20746f2063757272656e74206f776e6560008301527f72000000000000000000000000000000000000000000000000000000000000006020830152604082019050919050565b6000614191603983614848565b91507f4d757374206265206120706c61796572207769746820616e204e46542074686160008301527f74277320616c69766520616e6420696e20726f756e64203221000000000000006020830152604082019050919050565b60006141f7603183614848565b91507f4552433732313a207472616e736665722063616c6c6572206973206e6f74206f60008301527f776e6572206e6f7220617070726f7665640000000000000000000000000000006020830152604082019050919050565b600061425d603e83614848565b91507f57652068617665207265616368656420746865206d6178206e756d626572206f60008301527f6620706c61796572732c2074727920616761696e206e6578742074696d6500006020830152604082019050919050565b60006142c3601f83614848565b91507f5265656e7472616e637947756172643a207265656e7472616e742063616c6c006000830152602082019050919050565b6142ff816149f5565b82525050565b614316614311826149f5565b614af2565b82525050565b6000614328828461388f565b60148201915081905092915050565b60006143438284613869565b60148201915081905092915050565b600061435e8285613927565b915061436a8284613927565b91508190509392505050565b60006143828284614305565b60208201915081905092915050565b60006020820190506143a66000830184613880565b92915050565b60006080820190506143c16000830187613880565b6143ce6020830186613880565b6143db60408301856142f6565b81810360608301526143ed81846138b5565b905095945050505050565b600060208201905061440d60008301846138a6565b92915050565b6000602082019050818103600083015261442d81846138ee565b905092915050565b6000602082019050818103600083015261444e81613958565b9050919050565b6000602082019050818103600083015261446e816139be565b9050919050565b6000602082019050818103600083015261448e81613a4a565b9050919050565b600060208201905081810360008301526144ae81613a8a565b9050919050565b600060208201905081810360008301526144ce81613af0565b9050919050565b600060208201905081810360008301526144ee81613b30565b9050919050565b6000602082019050818103600083015261450e81613b70565b9050919050565b6000602082019050818103600083015261452e81613bd6565b9050919050565b6000602082019050818103600083015261454e81613c16565b9050919050565b6000602082019050818103600083015261456e81613c7c565b9050919050565b6000602082019050818103600083015261458e81613ce2565b9050919050565b600060208201905081810360008301526145ae81613d48565b9050919050565b600060208201905081810360008301526145ce81613dae565b9050919050565b600060208201905081810360008301526145ee81613e14565b9050919050565b6000602082019050818103600083015261460e81613e7a565b9050919050565b6000602082019050818103600083015261462e81613ee0565b9050919050565b6000602082019050818103600083015261464e81613f20565b9050919050565b6000602082019050818103600083015261466e81613f86565b9050919050565b6000602082019050818103600083015261468e81613fec565b9050919050565b600060208201905081810360008301526146ae81614052565b9050919050565b600060208201905081810360008301526146ce816140b8565b9050919050565b600060208201905081810360008301526146ee8161411e565b9050919050565b6000602082019050818103600083015261470e81614184565b9050919050565b6000602082019050818103600083015261472e816141ea565b9050919050565b6000602082019050818103600083015261474e81614250565b9050919050565b6000602082019050818103600083015261476e816142b6565b9050919050565b600060208201905061478a60008301846142f6565b92915050565b6000604051905081810181811067ffffffffffffffff821117156147b7576147b6614bba565b5b8060405250919050565b600067ffffffffffffffff8211156147dc576147db614bba565b5b601f19601f8301169050602081019050919050565b600067ffffffffffffffff82111561480c5761480b614bba565b5b601f19601f8301169050602081019050919050565b600081519050919050565b600081519050919050565b600082825260208201905092915050565b600082825260208201905092915050565b600081905092915050565b600061486f826149f5565b915061487a836149f5565b9250827fffffffffffffffffffffffffffffffffffffffffffffffffffffffffffffffff038211156148af576148ae614b2d565b5b828201905092915050565b60006148c5826149f5565b91506148d0836149f5565b9250826148e0576148df614b5c565b5b828204905092915050565b60006148f6826149f5565b9150614901836149f5565b9250817fffffffffffffffffffffffffffffffffffffffffffffffffffffffffffffffff048311821515161561493a57614939614b2d565b5b828202905092915050565b6000614950826149f5565b915061495b836149f5565b92508282101561496e5761496d614b2d565b5b828203905092915050565b6000614984826149d5565b9050919050565b6000614996826149d5565b9050919050565b60008115159050919050565b60007fffffffff0000000000000000000000000000000000000000000000000000000082169050919050565b600073ffffffffffffffffffffffffffffffffffffffff82169050919050565b6000819050919050565b82818337600083830152505050565b60005b83811015614a2c578082015181840152602081019050614a11565b83811115614a3b576000848401525b50505050565b60006002820490506001821680614a5957607f821691505b60208210811415614a6d57614a6c614b8b565b5b50919050565b6000614a7e826149f5565b91507fffffffffffffffffffffffffffffffffffffffffffffffffffffffffffffffff821415614ab157614ab0614b2d565b5b600182019050919050565b6000614ac782614ae0565b9050919050565b6000614ad982614ae0565b9050919050565b6000614aeb82614bfa565b9050919050565b6000819050919050565b6000614b07826149f5565b9150614b12836149f5565b925082614b2257614b21614b5c565b5b828206905092915050565b7f4e487b7100000000000000000000000000000000000000000000000000000000600052601160045260246000fd5b7f4e487b7100000000000000000000000000000000000000000000000000000000600052601260045260246000fd5b7f4e487b7100000000000000000000000000000000000000000000000000000000600052602260045260246000fd5b7f4e487b7100000000000000000000000000000000000000000000000000000000600052604160045260246000fd5b6000601f19601f8301169050919050565b60008160601b9050919050565b614c1081614979565b8114614c1b57600080fd5b50565b614c278161499d565b8114614c3257600080fd5b50565b614c3e816149a9565b8114614c4957600080fd5b50565b614c55816149f5565b8114614c6057600080fd5b5056fe536f7272792c20796f75207765726520656c696d696e617465642066726f6d20726f756e6420312e536f7272792c20796f75207765726520656c696d696e617465642066726f6d20726f756e6420322e536f7272792c20796f75207765726520656c696d696e617465642066726f6d20726f756e6420332ea2646970667358221220246bf79942f22fd3801367f231bee0c3f4d4dcaa780a4d5b3e86fee5cc07866e64736f6c63430008000033",
  "linkReferences": {},
  "deployedLinkReferences": {}
}